{
  "_format": "hh-sol-artifact-1",
  "contractName": "ElysiumNFTMarketplace",
  "sourceName": "contracts/ElysiumNFTMarketplace.sol",
  "abi": [
    {
      "inputs": [
        {
          "internalType": "uint256",
          "name": "_platformFee",
          "type": "uint256"
        },
        {
          "internalType": "contract elysiumNFTFactoryInterface",
          "name": "_elysiumNFTFactory",
          "type": "address"
        }
      ],
      "stateMutability": "nonpayable",
      "type": "constructor"
    },
    {
      "anonymous": false,
      "inputs": [
        {
          "indexed": true,
          "internalType": "address",
          "name": "nft",
          "type": "address"
        },
        {
          "indexed": true,
          "internalType": "uint256",
          "name": "tokenId",
          "type": "uint256"
        },
        {
          "indexed": false,
          "internalType": "uint256",
          "name": "price",
          "type": "uint256"
        },
        {
          "indexed": false,
          "internalType": "address",
          "name": "seller",
          "type": "address"
        },
        {
          "indexed": true,
          "internalType": "address",
          "name": "buyer",
          "type": "address"
        }
      ],
      "name": "BoughtNFT",
      "type": "event"
    },
    {
      "anonymous": false,
      "inputs": [
        {
          "indexed": true,
          "internalType": "address",
          "name": "nft",
          "type": "address"
        },
        {
          "indexed": true,
          "internalType": "uint256",
          "name": "tokenId",
          "type": "uint256"
        },
        {
          "indexed": false,
          "internalType": "uint256",
          "name": "price",
          "type": "uint256"
        },
        {
          "indexed": true,
          "internalType": "address",
          "name": "seller",
          "type": "address"
        }
      ],
      "name": "ListedNFT",
      "type": "event"
    },
    {
      "anonymous": false,
      "inputs": [
        {
          "indexed": true,
          "internalType": "address",
          "name": "previousOwner",
          "type": "address"
        },
        {
          "indexed": true,
          "internalType": "address",
          "name": "newOwner",
          "type": "address"
        }
      ],
      "name": "OwnershipTransferred",
      "type": "event"
    },
    {
      "inputs": [
        {
          "components": [
            {
              "internalType": "address",
              "name": "nft",
              "type": "address"
            },
            {
              "internalType": "uint256",
              "name": "tokenId",
              "type": "uint256"
            },
            {
              "internalType": "address payable",
              "name": "seller",
              "type": "address"
            },
            {
              "internalType": "uint256",
              "name": "price",
              "type": "uint256"
            },
            {
              "internalType": "bool",
              "name": "sold",
              "type": "bool"
            }
          ],
          "internalType": "struct ElysiumNFTMarketplace.ListNFT[]",
          "name": "nfts",
          "type": "tuple[]"
        }
      ],
      "name": "buyBulkNFTs",
      "outputs": [],
      "stateMutability": "payable",
      "type": "function"
    },
    {
      "inputs": [
        {
          "internalType": "address",
          "name": "_nft",
          "type": "address"
        },
        {
          "internalType": "uint256",
          "name": "_tokenId",
          "type": "uint256"
        },
        {
          "internalType": "uint256",
          "name": "_price",
          "type": "uint256"
        }
      ],
      "name": "buyNFT",
      "outputs": [],
      "stateMutability": "payable",
      "type": "function"
    },
    {
      "inputs": [
        {
          "internalType": "uint256",
          "name": "_royalty",
          "type": "uint256"
        },
        {
          "internalType": "uint256",
          "name": "_price",
          "type": "uint256"
        }
      ],
      "name": "calculateRoyalty",
      "outputs": [
        {
          "internalType": "uint256",
          "name": "",
          "type": "uint256"
        }
      ],
      "stateMutability": "pure",
      "type": "function"
    },
    {
      "inputs": [
        {
          "internalType": "address",
          "name": "_nft",
          "type": "address"
        },
        {
          "internalType": "uint256",
          "name": "_tokenId",
          "type": "uint256"
        }
      ],
      "name": "cancelListNFT",
      "outputs": [],
      "stateMutability": "nonpayable",
      "type": "function"
    },
    {
      "inputs": [
        {
          "internalType": "address",
          "name": "_feeRecipient",
          "type": "address"
        }
      ],
      "name": "changeFeeRecipient",
      "outputs": [],
      "stateMutability": "nonpayable",
      "type": "function"
    },
    {
      "inputs": [
        {
          "internalType": "address",
          "name": "_nft",
          "type": "address"
        },
        {
          "internalType": "uint256",
          "name": "_tokenId",
          "type": "uint256"
        }
      ],
      "name": "getListedNFT",
      "outputs": [
        {
          "components": [
            {
              "internalType": "address",
              "name": "nft",
              "type": "address"
            },
            {
              "internalType": "uint256",
              "name": "tokenId",
              "type": "uint256"
            },
            {
              "internalType": "address payable",
              "name": "seller",
              "type": "address"
            },
            {
              "internalType": "uint256",
              "name": "price",
              "type": "uint256"
            },
            {
              "internalType": "bool",
              "name": "sold",
              "type": "bool"
            }
          ],
          "internalType": "struct ElysiumNFTMarketplace.ListNFT",
          "name": "",
          "type": "tuple"
        }
      ],
      "stateMutability": "view",
      "type": "function"
    },
    {
      "inputs": [],
      "name": "getPlatformFee",
      "outputs": [
        {
          "internalType": "uint256",
          "name": "",
          "type": "uint256"
        }
      ],
      "stateMutability": "view",
      "type": "function"
    },
    {
      "inputs": [
        {
          "internalType": "address",
          "name": "_nft",
          "type": "address"
        },
        {
          "internalType": "uint256",
          "name": "_tokenId",
          "type": "uint256"
        },
        {
          "internalType": "uint256",
          "name": "_price",
          "type": "uint256"
        }
      ],
      "name": "listNft",
      "outputs": [],
      "stateMutability": "nonpayable",
      "type": "function"
    },
    {
      "inputs": [],
      "name": "owner",
      "outputs": [
        {
          "internalType": "address",
          "name": "",
          "type": "address"
        }
      ],
      "stateMutability": "view",
      "type": "function"
    },
    {
      "inputs": [],
      "name": "renounceOwnership",
      "outputs": [],
      "stateMutability": "nonpayable",
      "type": "function"
    },
    {
      "inputs": [
        {
          "internalType": "address",
          "name": "newOwner",
          "type": "address"
        }
      ],
      "name": "transferOwnership",
      "outputs": [],
      "stateMutability": "nonpayable",
      "type": "function"
    },
    {
      "inputs": [
        {
          "internalType": "uint256",
          "name": "_platformFee",
          "type": "uint256"
        }
      ],
      "name": "updatePlatformFee",
      "outputs": [],
      "stateMutability": "nonpayable",
      "type": "function"
    }
  ],
  "bytecode": "0x60a060405266038d7ea4c680006002553480156200001c57600080fd5b5060405162002a4a38038062002a4a833981810160405281019062000042919062000272565b6200006262000056620000ed60201b60201c565b620000f560201b60201c565b600180819055508160028190555033600360006101000a81548173ffffffffffffffffffffffffffffffffffffffff021916908373ffffffffffffffffffffffffffffffffffffffff1602179055508073ffffffffffffffffffffffffffffffffffffffff1660808173ffffffffffffffffffffffffffffffffffffffff16815250505050620002b9565b600033905090565b60008060009054906101000a900473ffffffffffffffffffffffffffffffffffffffff169050816000806101000a81548173ffffffffffffffffffffffffffffffffffffffff021916908373ffffffffffffffffffffffffffffffffffffffff1602179055508173ffffffffffffffffffffffffffffffffffffffff168173ffffffffffffffffffffffffffffffffffffffff167f8be0079c531659141344cd1fd0a4f28419497f9722a3daafe3b4186f6b6457e060405160405180910390a35050565b600080fd5b6000819050919050565b620001d381620001be565b8114620001df57600080fd5b50565b600081519050620001f381620001c8565b92915050565b600073ffffffffffffffffffffffffffffffffffffffff82169050919050565b60006200022682620001f9565b9050919050565b60006200023a8262000219565b9050919050565b6200024c816200022d565b81146200025857600080fd5b50565b6000815190506200026c8162000241565b92915050565b600080604083850312156200028c576200028b620001b9565b5b60006200029c85828601620001e2565b9250506020620002af858286016200025b565b9150509250929050565b608051612775620002d560003960006110bc01526127756000f3fe6080604052600436106100a75760003560e01c806394becb8e1161006457806394becb8e14610187578063aa0b5988146101a3578063b0708a35146101cc578063c922b17c14610209578063dc3c3dfd14610232578063f2fde38b1461026f576100a7565b806323604071146100ac57806335a8a049146100d557806353da6f01146100fe5780636ea8bc101461011a578063715018a6146101455780638da5cb5b1461015c575b600080fd5b3480156100b857600080fd5b506100d360048036038101906100ce91906118ec565b610298565b005b3480156100e157600080fd5b506100fc60048036038101906100f7919061194f565b610353565b005b6101186004803603810190610113919061198f565b6107f9565b005b34801561012657600080fd5b5061012f610e81565b60405161013c91906119f1565b60405180910390f35b34801561015157600080fd5b5061015a610e8b565b005b34801561016857600080fd5b50610171610e9f565b60405161017e9190611a1b565b60405180910390f35b6101a1600480360381019061019c9190611c96565b610ec8565b005b3480156101af57600080fd5b506101ca60048036038101906101c59190611cdf565b611040565b005b3480156101d857600080fd5b506101f360048036038101906101ee9190611d0c565b611096565b60405161020091906119f1565b60405180910390f35b34801561021557600080fd5b50610230600480360381019061022b919061198f565b6110b9565b005b34801561023e57600080fd5b506102596004803603810190610254919061194f565b61150a565b6040516102669190611df0565b60405180910390f35b34801561027b57600080fd5b50610296600480360381019061029191906118ec565b611650565b005b6102a06116d3565b600073ffffffffffffffffffffffffffffffffffffffff168173ffffffffffffffffffffffffffffffffffffffff160361030f576040517f08c379a000000000000000000000000000000000000000000000000000000000815260040161030690611e68565b60405180910390fd5b80600360006101000a81548173ffffffffffffffffffffffffffffffffffffffff021916908373ffffffffffffffffffffffffffffffffffffffff16021790555050565b81816000600460008473ffffffffffffffffffffffffffffffffffffffff1673ffffffffffffffffffffffffffffffffffffffff16815260200190815260200160002060008381526020019081526020016000206040518060a00160405290816000820160009054906101000a900473ffffffffffffffffffffffffffffffffffffffff1673ffffffffffffffffffffffffffffffffffffffff1673ffffffffffffffffffffffffffffffffffffffff168152602001600182015481526020016002820160009054906101000a900473ffffffffffffffffffffffffffffffffffffffff1673ffffffffffffffffffffffffffffffffffffffff1673ffffffffffffffffffffffffffffffffffffffff168152602001600382015481526020016004820160009054906101000a900460ff1615151515815250509050600073ffffffffffffffffffffffffffffffffffffffff16816040015173ffffffffffffffffffffffffffffffffffffffff16141580156104d257508060800151155b610511576040517f08c379a000000000000000000000000000000000000000000000000000000000815260040161050890611ed4565b60405180910390fd5b6000600460008773ffffffffffffffffffffffffffffffffffffffff1673ffffffffffffffffffffffffffffffffffffffff16815260200190815260200160002060008681526020019081526020016000206040518060a00160405290816000820160009054906101000a900473ffffffffffffffffffffffffffffffffffffffff1673ffffffffffffffffffffffffffffffffffffffff1673ffffffffffffffffffffffffffffffffffffffff168152602001600182015481526020016002820160009054906101000a900473ffffffffffffffffffffffffffffffffffffffff1673ffffffffffffffffffffffffffffffffffffffff1673ffffffffffffffffffffffffffffffffffffffff168152602001600382015481526020016004820160009054906101000a900460ff16151515158152505090503373ffffffffffffffffffffffffffffffffffffffff16816040015173ffffffffffffffffffffffffffffffffffffffff16146106bd576040517f08c379a00000000000000000000000000000000000000000000000000000000081526004016106b490611f66565b60405180910390fd5b8573ffffffffffffffffffffffffffffffffffffffff166323b872dd3033886040518463ffffffff1660e01b81526004016106fa93929190611f86565b600060405180830381600087803b15801561071457600080fd5b505af1158015610728573d6000803e3d6000fd5b50505050600460008773ffffffffffffffffffffffffffffffffffffffff1673ffffffffffffffffffffffffffffffffffffffff1681526020019081526020016000206000868152602001908152602001600020600080820160006101000a81549073ffffffffffffffffffffffffffffffffffffffff021916905560018201600090556002820160006101000a81549073ffffffffffffffffffffffffffffffffffffffff021916905560038201600090556004820160006101000a81549060ff02191690555050505050505050565b82826000600460008473ffffffffffffffffffffffffffffffffffffffff1673ffffffffffffffffffffffffffffffffffffffff16815260200190815260200160002060008381526020019081526020016000206040518060a00160405290816000820160009054906101000a900473ffffffffffffffffffffffffffffffffffffffff1673ffffffffffffffffffffffffffffffffffffffff1673ffffffffffffffffffffffffffffffffffffffff168152602001600182015481526020016002820160009054906101000a900473ffffffffffffffffffffffffffffffffffffffff1673ffffffffffffffffffffffffffffffffffffffff1673ffffffffffffffffffffffffffffffffffffffff168152602001600382015481526020016004820160009054906101000a900460ff1615151515815250509050600073ffffffffffffffffffffffffffffffffffffffff16816040015173ffffffffffffffffffffffffffffffffffffffff161415801561097857508060800151155b6109b7576040517f08c379a00000000000000000000000000000000000000000000000000000000081526004016109ae90611ed4565b60405180910390fd5b6000600460008873ffffffffffffffffffffffffffffffffffffffff1673ffffffffffffffffffffffffffffffffffffffff168152602001908152602001600020600087815260200190815260200160002090508060040160009054906101000a900460ff1615610a5d576040517f08c379a0000000000000000000000000000000000000000000000000000000008152600401610a5490612009565b60405180910390fd5b8060030154341015610aa4576040517f08c379a0000000000000000000000000000000000000000000000000000000008152600401610a9b90612075565b60405180910390fd5b60018160040160006101000a81548160ff021916908315150217905550600034905060008260000160009054906101000a900473ffffffffffffffffffffffffffffffffffffffff16905060008173ffffffffffffffffffffffffffffffffffffffff166395edc18c6040518163ffffffff1660e01b8152600401602060405180830381865afa158015610b3c573d6000803e3d6000fd5b505050506040513d601f19601f82011682018060405250810190610b6091906120aa565b905060008273ffffffffffffffffffffffffffffffffffffffff16634d47732a6040518163ffffffff1660e01b8152600401602060405180830381865afa158015610baf573d6000803e3d6000fd5b505050506040513d601f19601f82011682018060405250810190610bd391906120ec565b90506000811115610c43576000610bea828b611096565b90508273ffffffffffffffffffffffffffffffffffffffff166108fc829081150290604051600060405180830381858888f19350505050158015610c32573d6000803e3d6000fd5b508085610c3f9190612148565b9450505b600360009054906101000a900473ffffffffffffffffffffffffffffffffffffffff1673ffffffffffffffffffffffffffffffffffffffff166108fc6002549081150290604051600060405180830381858888f19350505050158015610cad573d6000803e3d6000fd5b5060025484610cbc9190612148565b93508460020160009054906101000a900473ffffffffffffffffffffffffffffffffffffffff1673ffffffffffffffffffffffffffffffffffffffff166108fc859081150290604051600060405180830381858888f19350505050158015610d28573d6000803e3d6000fd5b508460000160009054906101000a900473ffffffffffffffffffffffffffffffffffffffff1673ffffffffffffffffffffffffffffffffffffffff166342842e0e303388600101546040518463ffffffff1660e01b8152600401610d8e93929190611f86565b600060405180830381600087803b158015610da857600080fd5b505af1158015610dbc573d6000803e3d6000fd5b505050503373ffffffffffffffffffffffffffffffffffffffff1685600101548660000160009054906101000a900473ffffffffffffffffffffffffffffffffffffffff1673ffffffffffffffffffffffffffffffffffffffff167f7ecd9705c4bad458d33cbb498a44bd1a8591b38703a9db6df94f1f390bc9bb1c8c8960020160009054906101000a900473ffffffffffffffffffffffffffffffffffffffff16604051610e6c9291906121db565b60405180910390a45050505050505050505050565b6000600254905090565b610e936116d3565b610e9d6000611751565b565b60008060009054906101000a900473ffffffffffffffffffffffffffffffffffffffff16905090565b6000805b8251811015610f7357828181518110610ee857610ee7612204565b5b60200260200101516080015115610f34576040517f08c379a0000000000000000000000000000000000000000000000000000000008152600401610f2b9061227f565b60405180910390fd5b828181518110610f4757610f46612204565b5b60200260200101516060015182610f5e919061229f565b91508080610f6b906122d3565b915050610ecc565b5080341015610fb7576040517f08c379a0000000000000000000000000000000000000000000000000000000008152600401610fae90612367565b60405180910390fd5b60005b825181101561103b57611028838281518110610fd957610fd8612204565b5b602002602001015160000151848381518110610ff857610ff7612204565b5b60200260200101516020015185848151811061101757611016612204565b5b6020026020010151606001516107f9565b8080611033906122d3565b915050610fba565b505050565b6110486116d3565b600081101561108c576040517f08c379a0000000000000000000000000000000000000000000000000000000008152600401611083906123d3565b60405180910390fd5b8060028190555050565b600061271083836110a791906123f3565b6110b19190612464565b905092915050565b827f000000000000000000000000000000000000000000000000000000000000000073ffffffffffffffffffffffffffffffffffffffff16632657e680826040518263ffffffff1660e01b81526004016111139190611a1b565b602060405180830381865afa158015611130573d6000803e3d6000fd5b505050506040513d601f19601f8201168201806040525081019061115491906124aa565b611193576040517f08c379a000000000000000000000000000000000000000000000000000000000815260040161118a90612523565b60405180910390fd5b60008490503373ffffffffffffffffffffffffffffffffffffffff168173ffffffffffffffffffffffffffffffffffffffff16636352211e866040518263ffffffff1660e01b81526004016111e891906119f1565b602060405180830381865afa158015611205573d6000803e3d6000fd5b505050506040513d601f19601f8201168201806040525081019061122991906120aa565b73ffffffffffffffffffffffffffffffffffffffff161461127f576040517f08c379a00000000000000000000000000000000000000000000000000000000081526004016112769061258f565b60405180910390fd5b60025483116112c3576040517f08c379a00000000000000000000000000000000000000000000000000000000081526004016112ba90612621565b60405180910390fd5b8073ffffffffffffffffffffffffffffffffffffffff166323b872dd3330876040518463ffffffff1660e01b815260040161130093929190611f86565b600060405180830381600087803b15801561131a57600080fd5b505af115801561132e573d6000803e3d6000fd5b505050506040518060a001604052808673ffffffffffffffffffffffffffffffffffffffff1681526020018581526020013373ffffffffffffffffffffffffffffffffffffffff16815260200184815260200160001515815250600460008773ffffffffffffffffffffffffffffffffffffffff1673ffffffffffffffffffffffffffffffffffffffff168152602001908152602001600020600086815260200190815260200160002060008201518160000160006101000a81548173ffffffffffffffffffffffffffffffffffffffff021916908373ffffffffffffffffffffffffffffffffffffffff1602179055506020820151816001015560408201518160020160006101000a81548173ffffffffffffffffffffffffffffffffffffffff021916908373ffffffffffffffffffffffffffffffffffffffff1602179055506060820151816003015560808201518160040160006101000a81548160ff0219169083151502179055509050503373ffffffffffffffffffffffffffffffffffffffff16848673ffffffffffffffffffffffffffffffffffffffff167fe02826fc6a405c79c4564cea7d782c33deaee166adfc40d81130ddad0b72c029866040516114fb91906119f1565b60405180910390a45050505050565b61151261181d565b600460008473ffffffffffffffffffffffffffffffffffffffff1673ffffffffffffffffffffffffffffffffffffffff16815260200190815260200160002060008381526020019081526020016000206040518060a00160405290816000820160009054906101000a900473ffffffffffffffffffffffffffffffffffffffff1673ffffffffffffffffffffffffffffffffffffffff1673ffffffffffffffffffffffffffffffffffffffff168152602001600182015481526020016002820160009054906101000a900473ffffffffffffffffffffffffffffffffffffffff1673ffffffffffffffffffffffffffffffffffffffff1673ffffffffffffffffffffffffffffffffffffffff168152602001600382015481526020016004820160009054906101000a900460ff161515151581525050905092915050565b6116586116d3565b600073ffffffffffffffffffffffffffffffffffffffff168173ffffffffffffffffffffffffffffffffffffffff16036116c7576040517f08c379a00000000000000000000000000000000000000000000000000000000081526004016116be906126b3565b60405180910390fd5b6116d081611751565b50565b6116db611815565b73ffffffffffffffffffffffffffffffffffffffff166116f9610e9f565b73ffffffffffffffffffffffffffffffffffffffff161461174f576040517f08c379a00000000000000000000000000000000000000000000000000000000081526004016117469061271f565b60405180910390fd5b565b60008060009054906101000a900473ffffffffffffffffffffffffffffffffffffffff169050816000806101000a81548173ffffffffffffffffffffffffffffffffffffffff021916908373ffffffffffffffffffffffffffffffffffffffff1602179055508173ffffffffffffffffffffffffffffffffffffffff168173ffffffffffffffffffffffffffffffffffffffff167f8be0079c531659141344cd1fd0a4f28419497f9722a3daafe3b4186f6b6457e060405160405180910390a35050565b600033905090565b6040518060a00160405280600073ffffffffffffffffffffffffffffffffffffffff16815260200160008152602001600073ffffffffffffffffffffffffffffffffffffffff168152602001600081526020016000151581525090565b6000604051905090565b600080fd5b600080fd5b600073ffffffffffffffffffffffffffffffffffffffff82169050919050565b60006118b98261188e565b9050919050565b6118c9816118ae565b81146118d457600080fd5b50565b6000813590506118e6816118c0565b92915050565b60006020828403121561190257611901611884565b5b6000611910848285016118d7565b91505092915050565b6000819050919050565b61192c81611919565b811461193757600080fd5b50565b60008135905061194981611923565b92915050565b6000806040838503121561196657611965611884565b5b6000611974858286016118d7565b92505060206119858582860161193a565b9150509250929050565b6000806000606084860312156119a8576119a7611884565b5b60006119b6868287016118d7565b93505060206119c78682870161193a565b92505060406119d88682870161193a565b9150509250925092565b6119eb81611919565b82525050565b6000602082019050611a0660008301846119e2565b92915050565b611a15816118ae565b82525050565b6000602082019050611a306000830184611a0c565b92915050565b600080fd5b6000601f19601f8301169050919050565b7f4e487b7100000000000000000000000000000000000000000000000000000000600052604160045260246000fd5b611a8482611a3b565b810181811067ffffffffffffffff82111715611aa357611aa2611a4c565b5b80604052505050565b6000611ab661187a565b9050611ac28282611a7b565b919050565b600067ffffffffffffffff821115611ae257611ae1611a4c565b5b602082029050602081019050919050565b600080fd5b600080fd5b6000611b088261188e565b9050919050565b611b1881611afd565b8114611b2357600080fd5b50565b600081359050611b3581611b0f565b92915050565b60008115159050919050565b611b5081611b3b565b8114611b5b57600080fd5b50565b600081359050611b6d81611b47565b92915050565b600060a08284031215611b8957611b88611af8565b5b611b9360a0611aac565b90506000611ba3848285016118d7565b6000830152506020611bb78482850161193a565b6020830152506040611bcb84828501611b26565b6040830152506060611bdf8482850161193a565b6060830152506080611bf384828501611b5e565b60808301525092915050565b6000611c12611c0d84611ac7565b611aac565b90508083825260208201905060a08402830185811115611c3557611c34611af3565b5b835b81811015611c5e5780611c4a8882611b73565b84526020840193505060a081019050611c37565b5050509392505050565b600082601f830112611c7d57611c7c611a36565b5b8135611c8d848260208601611bff565b91505092915050565b600060208284031215611cac57611cab611884565b5b600082013567ffffffffffffffff811115611cca57611cc9611889565b5b611cd684828501611c68565b91505092915050565b600060208284031215611cf557611cf4611884565b5b6000611d038482850161193a565b91505092915050565b60008060408385031215611d2357611d22611884565b5b6000611d318582860161193a565b9250506020611d428582860161193a565b9150509250929050565b611d55816118ae565b82525050565b611d6481611919565b82525050565b611d7381611afd565b82525050565b611d8281611b3b565b82525050565b60a082016000820151611d9e6000850182611d4c565b506020820151611db16020850182611d5b565b506040820151611dc46040850182611d6a565b506060820151611dd76060850182611d5b565b506080820151611dea6080850182611d79565b50505050565b600060a082019050611e056000830184611d88565b92915050565b600082825260208201905092915050565b7f63616e2774206265203020616464726573730000000000000000000000000000600082015250565b6000611e52601283611e0b565b9150611e5d82611e1c565b602082019050919050565b60006020820190508181036000830152611e8181611e45565b9050919050565b7f6e6f74206c697374656400000000000000000000000000000000000000000000600082015250565b6000611ebe600a83611e0b565b9150611ec982611e88565b602082019050919050565b60006020820190508181036000830152611eed81611eb1565b9050919050565b7f4f6e6c79206f726967696e616c206f776e65722063616e2063616e63656c206c60008201527f697374696e670000000000000000000000000000000000000000000000000000602082015250565b6000611f50602683611e0b565b9150611f5b82611ef4565b604082019050919050565b60006020820190508181036000830152611f7f81611f43565b9050919050565b6000606082019050611f9b6000830186611a0c565b611fa86020830185611a0c565b611fb560408301846119e2565b949350505050565b7f6e667420616c726561647920736f6c6400000000000000000000000000000000600082015250565b6000611ff3601083611e0b565b9150611ffe82611fbd565b602082019050919050565b6000602082019050818103600083015261202281611fe6565b9050919050565b7f496e73756666696369656e74207061796d656e74000000000000000000000000600082015250565b600061205f601483611e0b565b915061206a82612029565b602082019050919050565b6000602082019050818103600083015261208e81612052565b9050919050565b6000815190506120a4816118c0565b92915050565b6000602082840312156120c0576120bf611884565b5b60006120ce84828501612095565b91505092915050565b6000815190506120e681611923565b92915050565b60006020828403121561210257612101611884565b5b6000612110848285016120d7565b91505092915050565b7f4e487b7100000000000000000000000000000000000000000000000000000000600052601160045260246000fd5b600061215382611919565b915061215e83611919565b925082820390508181111561217657612175612119565b5b92915050565b6000819050919050565b60006121a161219c6121978461188e565b61217c565b61188e565b9050919050565b60006121b382612186565b9050919050565b60006121c5826121a8565b9050919050565b6121d5816121ba565b82525050565b60006040820190506121f060008301856119e2565b6121fd60208301846121cc565b9392505050565b7f4e487b7100000000000000000000000000000000000000000000000000000000600052603260045260246000fd5b7f4e465420616c726561647920736f6c6400000000000000000000000000000000600082015250565b6000612269601083611e0b565b915061227482612233565b602082019050919050565b600060208201905081810360008301526122988161225c565b9050919050565b60006122aa82611919565b91506122b583611919565b92508282019050808211156122cd576122cc612119565b5b92915050565b60006122de82611919565b91507fffffffffffffffffffffffffffffffffffffffffffffffffffffffffffffffff82036123105761230f612119565b5b600182019050919050565b7f496e73756666696369656e742065746865722070726f76696465640000000000600082015250565b6000612351601b83611e0b565b915061235c8261231b565b602082019050919050565b6000602082019050818103600083015261238081612344565b9050919050565b7f43616e6e6f74206265206e656761746976650000000000000000000000000000600082015250565b60006123bd601283611e0b565b91506123c882612387565b602082019050919050565b600060208201905081810360008301526123ec816123b0565b9050919050565b60006123fe82611919565b915061240983611919565b925082820261241781611919565b9150828204841483151761242e5761242d612119565b5b5092915050565b7f4e487b7100000000000000000000000000000000000000000000000000000000600052601260045260246000fd5b600061246f82611919565b915061247a83611919565b92508261248a57612489612435565b5b828204905092915050565b6000815190506124a481611b47565b92915050565b6000602082840312156124c0576124bf611884565b5b60006124ce84828501612495565b91505092915050565b7f6e6f7420456c797369756d204e46540000000000000000000000000000000000600082015250565b600061250d600f83611e0b565b9150612518826124d7565b602082019050919050565b6000602082019050818103600083015261253c81612500565b9050919050565b7f6e6f74206e6674206f776e657200000000000000000000000000000000000000600082015250565b6000612579600d83611e0b565b915061258482612543565b602082019050919050565b600060208201905081810360008301526125a88161256c565b9050919050565b7f7072696365206d7573742062652067726561746572207468616e20706c61746660008201527f6f726d2066656500000000000000000000000000000000000000000000000000602082015250565b600061260b602783611e0b565b9150612616826125af565b604082019050919050565b6000602082019050818103600083015261263a816125fe565b9050919050565b7f4f776e61626c653a206e6577206f776e657220697320746865207a65726f206160008201527f6464726573730000000000000000000000000000000000000000000000000000602082015250565b600061269d602683611e0b565b91506126a882612641565b604082019050919050565b600060208201905081810360008301526126cc81612690565b9050919050565b7f4f776e61626c653a2063616c6c6572206973206e6f7420746865206f776e6572600082015250565b6000612709602083611e0b565b9150612714826126d3565b602082019050919050565b60006020820190508181036000830152612738816126fc565b905091905056fea2646970667358221220dd1cd30e19c0423713a624f720a5462899080a0142a77a442caf9e291efecb7064736f6c63430008110033",
  "linkReferences": {},
  "deployedLinkReferences": {}
}