{
  "_format": "hh-sol-artifact-1",
  "contractName": "ElysiumNFT",
  "sourceName": "contracts/ElysiumNFT.sol",
  "abi": [
    {
      "inputs": [
        {
          "internalType": "string",
          "name": "_name",
          "type": "string"
        },
        {
          "internalType": "string",
          "name": "_symbol",
          "type": "string"
        },
        {
          "internalType": "address",
          "name": "_owner",
          "type": "address"
        },
        {
          "internalType": "uint256",
          "name": "_royalty",
          "type": "uint256"
        },
        {
          "internalType": "address",
          "name": "_royaltyRecipient",
          "type": "address"
        }
      ],
      "stateMutability": "nonpayable",
      "type": "constructor"
    },
    {
      "anonymous": false,
      "inputs": [
        {
          "indexed": true,
          "internalType": "address",
          "name": "owner",
          "type": "address"
        },
        {
          "indexed": true,
          "internalType": "address",
          "name": "approved",
          "type": "address"
        },
        {
          "indexed": true,
          "internalType": "uint256",
          "name": "tokenId",
          "type": "uint256"
        }
      ],
      "name": "Approval",
      "type": "event"
    },
    {
      "anonymous": false,
      "inputs": [
        {
          "indexed": true,
          "internalType": "address",
          "name": "owner",
          "type": "address"
        },
        {
          "indexed": true,
          "internalType": "address",
          "name": "operator",
          "type": "address"
        },
        {
          "indexed": false,
          "internalType": "bool",
          "name": "approved",
          "type": "bool"
        }
      ],
      "name": "ApprovalForAll",
      "type": "event"
    },
    {
      "anonymous": false,
      "inputs": [
        {
          "indexed": false,
          "internalType": "uint256",
          "name": "tokenId",
          "type": "uint256"
        },
        {
          "indexed": false,
          "internalType": "address",
          "name": "owner",
          "type": "address"
        },
        {
          "indexed": false,
          "internalType": "string",
          "name": "tokenUri",
          "type": "string"
        }
      ],
      "name": "NewNFTMinted",
      "type": "event"
    },
    {
      "anonymous": false,
      "inputs": [
        {
          "indexed": true,
          "internalType": "address",
          "name": "previousOwner",
          "type": "address"
        },
        {
          "indexed": true,
          "internalType": "address",
          "name": "newOwner",
          "type": "address"
        }
      ],
      "name": "OwnershipTransferred",
      "type": "event"
    },
    {
      "anonymous": false,
      "inputs": [
        {
          "indexed": true,
          "internalType": "address",
          "name": "from",
          "type": "address"
        },
        {
          "indexed": true,
          "internalType": "address",
          "name": "to",
          "type": "address"
        },
        {
          "indexed": true,
          "internalType": "uint256",
          "name": "tokenId",
          "type": "uint256"
        }
      ],
      "name": "Transfer",
      "type": "event"
    },
    {
      "inputs": [
        {
          "internalType": "address",
          "name": "to",
          "type": "address"
        },
        {
          "internalType": "uint256",
          "name": "tokenId",
          "type": "uint256"
        }
      ],
      "name": "approve",
      "outputs": [],
      "stateMutability": "nonpayable",
      "type": "function"
    },
    {
      "inputs": [
        {
          "internalType": "address",
          "name": "owner",
          "type": "address"
        }
      ],
      "name": "balanceOf",
      "outputs": [
        {
          "internalType": "uint256",
          "name": "",
          "type": "uint256"
        }
      ],
      "stateMutability": "view",
      "type": "function"
    },
    {
      "inputs": [
        {
          "internalType": "uint256",
          "name": "tokenId",
          "type": "uint256"
        }
      ],
      "name": "burn",
      "outputs": [],
      "stateMutability": "nonpayable",
      "type": "function"
    },
    {
      "inputs": [
        {
          "internalType": "uint256",
          "name": "tokenId",
          "type": "uint256"
        }
      ],
      "name": "getApproved",
      "outputs": [
        {
          "internalType": "address",
          "name": "",
          "type": "address"
        }
      ],
      "stateMutability": "view",
      "type": "function"
    },
    {
      "inputs": [],
      "name": "getRoyalty",
      "outputs": [
        {
          "internalType": "uint256",
          "name": "",
          "type": "uint256"
        }
      ],
      "stateMutability": "view",
      "type": "function"
    },
    {
      "inputs": [],
      "name": "getRoyaltyRecipient",
      "outputs": [
        {
          "internalType": "address",
          "name": "",
          "type": "address"
        }
      ],
      "stateMutability": "view",
      "type": "function"
    },
    {
      "inputs": [
        {
          "internalType": "address",
          "name": "owner",
          "type": "address"
        },
        {
          "internalType": "address",
          "name": "operator",
          "type": "address"
        }
      ],
      "name": "isApprovedForAll",
      "outputs": [
        {
          "internalType": "bool",
          "name": "",
          "type": "bool"
        }
      ],
      "stateMutability": "view",
      "type": "function"
    },
    {
      "inputs": [],
      "name": "name",
      "outputs": [
        {
          "internalType": "string",
          "name": "",
          "type": "string"
        }
      ],
      "stateMutability": "view",
      "type": "function"
    },
    {
      "inputs": [],
      "name": "owner",
      "outputs": [
        {
          "internalType": "address",
          "name": "",
          "type": "address"
        }
      ],
      "stateMutability": "view",
      "type": "function"
    },
    {
      "inputs": [
        {
          "internalType": "uint256",
          "name": "tokenId",
          "type": "uint256"
        }
      ],
      "name": "ownerOf",
      "outputs": [
        {
          "internalType": "address",
          "name": "",
          "type": "address"
        }
      ],
      "stateMutability": "view",
      "type": "function"
    },
    {
      "inputs": [],
      "name": "renounceOwnership",
      "outputs": [],
      "stateMutability": "nonpayable",
      "type": "function"
    },
    {
      "inputs": [
        {
          "internalType": "address",
          "name": "_to",
          "type": "address"
        },
        {
          "internalType": "string",
          "name": "_uri",
          "type": "string"
        }
      ],
      "name": "safeMint",
      "outputs": [],
      "stateMutability": "nonpayable",
      "type": "function"
    },
    {
      "inputs": [
        {
          "internalType": "address",
          "name": "from",
          "type": "address"
        },
        {
          "internalType": "address",
          "name": "to",
          "type": "address"
        },
        {
          "internalType": "uint256",
          "name": "tokenId",
          "type": "uint256"
        }
      ],
      "name": "safeTransferFrom",
      "outputs": [],
      "stateMutability": "nonpayable",
      "type": "function"
    },
    {
      "inputs": [
        {
          "internalType": "address",
          "name": "from",
          "type": "address"
        },
        {
          "internalType": "address",
          "name": "to",
          "type": "address"
        },
        {
          "internalType": "uint256",
          "name": "tokenId",
          "type": "uint256"
        },
        {
          "internalType": "bytes",
          "name": "data",
          "type": "bytes"
        }
      ],
      "name": "safeTransferFrom",
      "outputs": [],
      "stateMutability": "nonpayable",
      "type": "function"
    },
    {
      "inputs": [
        {
          "internalType": "address",
          "name": "operator",
          "type": "address"
        },
        {
          "internalType": "bool",
          "name": "approved",
          "type": "bool"
        }
      ],
      "name": "setApprovalForAll",
      "outputs": [],
      "stateMutability": "nonpayable",
      "type": "function"
    },
    {
      "inputs": [
        {
          "internalType": "bytes4",
          "name": "interfaceId",
          "type": "bytes4"
        }
      ],
      "name": "supportsInterface",
      "outputs": [
        {
          "internalType": "bool",
          "name": "",
          "type": "bool"
        }
      ],
      "stateMutability": "view",
      "type": "function"
    },
    {
      "inputs": [],
      "name": "symbol",
      "outputs": [
        {
          "internalType": "string",
          "name": "",
          "type": "string"
        }
      ],
      "stateMutability": "view",
      "type": "function"
    },
    {
      "inputs": [
        {
          "internalType": "uint256",
          "name": "index",
          "type": "uint256"
        }
      ],
      "name": "tokenByIndex",
      "outputs": [
        {
          "internalType": "uint256",
          "name": "",
          "type": "uint256"
        }
      ],
      "stateMutability": "view",
      "type": "function"
    },
    {
      "inputs": [
        {
          "internalType": "address",
          "name": "owner",
          "type": "address"
        },
        {
          "internalType": "uint256",
          "name": "index",
          "type": "uint256"
        }
      ],
      "name": "tokenOfOwnerByIndex",
      "outputs": [
        {
          "internalType": "uint256",
          "name": "",
          "type": "uint256"
        }
      ],
      "stateMutability": "view",
      "type": "function"
    },
    {
      "inputs": [
        {
          "internalType": "uint256",
          "name": "tokenId",
          "type": "uint256"
        }
      ],
      "name": "tokenURI",
      "outputs": [
        {
          "internalType": "string",
          "name": "",
          "type": "string"
        }
      ],
      "stateMutability": "view",
      "type": "function"
    },
    {
      "inputs": [],
      "name": "totalSupply",
      "outputs": [
        {
          "internalType": "uint256",
          "name": "",
          "type": "uint256"
        }
      ],
      "stateMutability": "view",
      "type": "function"
    },
    {
      "inputs": [
        {
          "internalType": "address",
          "name": "from",
          "type": "address"
        },
        {
          "internalType": "address",
          "name": "to",
          "type": "address"
        },
        {
          "internalType": "uint256",
          "name": "tokenId",
          "type": "uint256"
        }
      ],
      "name": "transferFrom",
      "outputs": [],
      "stateMutability": "nonpayable",
      "type": "function"
    },
    {
      "inputs": [
        {
          "internalType": "address",
          "name": "newOwner",
          "type": "address"
        }
      ],
      "name": "transferOwnership",
      "outputs": [],
      "stateMutability": "nonpayable",
      "type": "function"
    },
    {
      "inputs": [
        {
          "internalType": "uint256",
          "name": "_royalty",
          "type": "uint256"
        }
      ],
      "name": "updateRoyalty",
      "outputs": [],
      "stateMutability": "nonpayable",
      "type": "function"
    }
  ],
  "bytecode": "0x60806040523480156200001157600080fd5b506040516200471b3803806200471b8339818101604052810190620000379190620005b7565b848481600090816200004a9190620008be565b5080600190816200005c9190620008be565b5050506200007f620000736200016560201b60201c565b6200016d60201b60201c565b612710821115620000c7576040517f08c379a0000000000000000000000000000000000000000000000000000000008152600401620000be9062000a06565b60405180910390fd5b600073ffffffffffffffffffffffffffffffffffffffff168173ffffffffffffffffffffffffffffffffffffffff16036200010157600080fd5b81600d8190555080600e60006101000a81548173ffffffffffffffffffffffffffffffffffffffff021916908373ffffffffffffffffffffffffffffffffffffffff1602179055506200015a836200023360201b60201c565b505050505062000b32565b600033905090565b6000600b60009054906101000a900473ffffffffffffffffffffffffffffffffffffffff16905081600b60006101000a81548173ffffffffffffffffffffffffffffffffffffffff021916908373ffffffffffffffffffffffffffffffffffffffff1602179055508173ffffffffffffffffffffffffffffffffffffffff168173ffffffffffffffffffffffffffffffffffffffff167f8be0079c531659141344cd1fd0a4f28419497f9722a3daafe3b4186f6b6457e060405160405180910390a35050565b62000243620002c960201b60201c565b600073ffffffffffffffffffffffffffffffffffffffff168173ffffffffffffffffffffffffffffffffffffffff1603620002b5576040517f08c379a0000000000000000000000000000000000000000000000000000000008152600401620002ac9062000a9e565b60405180910390fd5b620002c6816200016d60201b60201c565b50565b620002d96200016560201b60201c565b73ffffffffffffffffffffffffffffffffffffffff16620002ff6200035a60201b60201c565b73ffffffffffffffffffffffffffffffffffffffff161462000358576040517f08c379a00000000000000000000000000000000000000000000000000000000081526004016200034f9062000b10565b60405180910390fd5b565b6000600b60009054906101000a900473ffffffffffffffffffffffffffffffffffffffff16905090565b6000604051905090565b600080fd5b600080fd5b600080fd5b600080fd5b6000601f19601f8301169050919050565b7f4e487b7100000000000000000000000000000000000000000000000000000000600052604160045260246000fd5b620003ed82620003a2565b810181811067ffffffffffffffff821117156200040f576200040e620003b3565b5b80604052505050565b60006200042462000384565b9050620004328282620003e2565b919050565b600067ffffffffffffffff821115620004555762000454620003b3565b5b6200046082620003a2565b9050602081019050919050565b60005b838110156200048d57808201518184015260208101905062000470565b60008484015250505050565b6000620004b0620004aa8462000437565b62000418565b905082815260208101848484011115620004cf57620004ce6200039d565b5b620004dc8482856200046d565b509392505050565b600082601f830112620004fc57620004fb62000398565b5b81516200050e84826020860162000499565b91505092915050565b600073ffffffffffffffffffffffffffffffffffffffff82169050919050565b6000620005448262000517565b9050919050565b620005568162000537565b81146200056257600080fd5b50565b60008151905062000576816200054b565b92915050565b6000819050919050565b62000591816200057c565b81146200059d57600080fd5b50565b600081519050620005b18162000586565b92915050565b600080600080600060a08688031215620005d657620005d56200038e565b5b600086015167ffffffffffffffff811115620005f757620005f662000393565b5b6200060588828901620004e4565b955050602086015167ffffffffffffffff81111562000629576200062862000393565b5b6200063788828901620004e4565b94505060406200064a8882890162000565565b93505060606200065d88828901620005a0565b9250506080620006708882890162000565565b9150509295509295909350565b600081519050919050565b7f4e487b7100000000000000000000000000000000000000000000000000000000600052602260045260246000fd5b60006002820490506001821680620006d057607f821691505b602082108103620006e657620006e562000688565b5b50919050565b60008190508160005260206000209050919050565b60006020601f8301049050919050565b600082821b905092915050565b600060088302620007507fffffffffffffffffffffffffffffffffffffffffffffffffffffffffffffffff8262000711565b6200075c868362000711565b95508019841693508086168417925050509392505050565b6000819050919050565b60006200079f6200079962000793846200057c565b62000774565b6200057c565b9050919050565b6000819050919050565b620007bb836200077e565b620007d3620007ca82620007a6565b8484546200071e565b825550505050565b600090565b620007ea620007db565b620007f7818484620007b0565b505050565b5b818110156200081f5762000813600082620007e0565b600181019050620007fd565b5050565b601f8211156200086e576200083881620006ec565b620008438462000701565b8101602085101562000853578190505b6200086b620008628562000701565b830182620007fc565b50505b505050565b600082821c905092915050565b6000620008936000198460080262000873565b1980831691505092915050565b6000620008ae838362000880565b9150826002028217905092915050565b620008c9826200067d565b67ffffffffffffffff811115620008e557620008e4620003b3565b5b620008f18254620006b7565b620008fe82828562000823565b600060209050601f83116001811462000936576000841562000921578287015190505b6200092d8582620008a0565b8655506200099d565b601f1984166200094686620006ec565b60005b82811015620009705784890151825560018201915060208501945060208101905062000949565b868310156200099057848901516200098c601f89168262000880565b8355505b6001600288020188555050505b505050505050565b600082825260208201905092915050565b7f63616e2774206d6f7265207468616e2031302070657263656e74000000000000600082015250565b6000620009ee601a83620009a5565b9150620009fb82620009b6565b602082019050919050565b6000602082019050818103600083015262000a2181620009df565b9050919050565b7f4f776e61626c653a206e6577206f776e657220697320746865207a65726f206160008201527f6464726573730000000000000000000000000000000000000000000000000000602082015250565b600062000a86602683620009a5565b915062000a938262000a28565b604082019050919050565b6000602082019050818103600083015262000ab98162000a77565b9050919050565b7f4f776e61626c653a2063616c6c6572206973206e6f7420746865206f776e6572600082015250565b600062000af8602083620009a5565b915062000b058262000ac0565b602082019050919050565b6000602082019050818103600083015262000b2b8162000ae9565b9050919050565b613bd98062000b426000396000f3fe608060405234801561001057600080fd5b50600436106101585760003560e01c806370a08231116100c3578063a22cb4651161007c578063a22cb465146103c7578063b88d4fde146103e3578063c87b56dd146103ff578063d204c45e1461042f578063e985e9c51461044b578063f2fde38b1461047b57610158565b806370a0823114610317578063715018a6146103475780638da5cb5b146103515780638fffd8b51461036f57806395d89b411461038b57806395edc18c146103a957610158565b80632f745c59116101155780632f745c591461023157806342842e0e1461026157806342966c681461027d5780634d47732a146102995780634f6ccce7146102b75780636352211e146102e757610158565b806301ffc9a71461015d57806306fdde031461018d578063081812fc146101ab578063095ea7b3146101db57806318160ddd146101f757806323b872dd14610215575b600080fd5b610177600480360381019061017291906126a9565b610497565b60405161018491906126f1565b60405180910390f35b6101956104a9565b6040516101a2919061279c565b60405180910390f35b6101c560048036038101906101c091906127f4565b61053b565b6040516101d29190612862565b60405180910390f35b6101f560048036038101906101f091906128a9565b610581565b005b6101ff610698565b60405161020c91906128f8565b60405180910390f35b61022f600480360381019061022a9190612913565b6106a5565b005b61024b600480360381019061024691906128a9565b610705565b60405161025891906128f8565b60405180910390f35b61027b60048036038101906102769190612913565b6107aa565b005b610297600480360381019061029291906127f4565b6107ca565b005b6102a1610826565b6040516102ae91906128f8565b60405180910390f35b6102d160048036038101906102cc91906127f4565b610830565b6040516102de91906128f8565b60405180910390f35b61030160048036038101906102fc91906127f4565b6108a1565b60405161030e9190612862565b60405180910390f35b610331600480360381019061032c9190612966565b610927565b60405161033e91906128f8565b60405180910390f35b61034f6109de565b005b6103596109f2565b6040516103669190612862565b60405180910390f35b610389600480360381019061038491906127f4565b610a1c565b005b610393610a73565b6040516103a0919061279c565b60405180910390f35b6103b1610b05565b6040516103be9190612862565b60405180910390f35b6103e160048036038101906103dc91906129bf565b610b2f565b005b6103fd60048036038101906103f89190612b34565b610b45565b005b610419600480360381019061041491906127f4565b610ba7565b604051610426919061279c565b60405180910390f35b61044960048036038101906104449190612c58565b610bb9565b005b61046560048036038101906104609190612cb4565b610c2d565b60405161047291906126f1565b60405180910390f35b61049560048036038101906104909190612966565b610cc1565b005b60006104a282610d44565b9050919050565b6060600080546104b890612d23565b80601f01602080910402602001604051908101604052809291908181526020018280546104e490612d23565b80156105315780601f1061050657610100808354040283529160200191610531565b820191906000526020600020905b81548152906001019060200180831161051457829003601f168201915b5050505050905090565b600061054682610dbe565b6004600083815260200190815260200160002060009054906101000a900473ffffffffffffffffffffffffffffffffffffffff169050919050565b600061058c826108a1565b90508073ffffffffffffffffffffffffffffffffffffffff168373ffffffffffffffffffffffffffffffffffffffff16036105fc576040517f08c379a00000000000000000000000000000000000000000000000000000000081526004016105f390612dc6565b60405180910390fd5b8073ffffffffffffffffffffffffffffffffffffffff1661061b610e09565b73ffffffffffffffffffffffffffffffffffffffff16148061064a575061064981610644610e09565b610c2d565b5b610689576040517f08c379a000000000000000000000000000000000000000000000000000000000815260040161068090612e58565b60405180910390fd5b6106938383610e11565b505050565b6000600980549050905090565b6106b66106b0610e09565b82610eca565b6106f5576040517f08c379a00000000000000000000000000000000000000000000000000000000081526004016106ec90612eea565b60405180910390fd5b610700838383610f5f565b505050565b600061071083610927565b8210610751576040517f08c379a000000000000000000000000000000000000000000000000000000000815260040161074890612f7c565b60405180910390fd5b600760008473ffffffffffffffffffffffffffffffffffffffff1673ffffffffffffffffffffffffffffffffffffffff168152602001908152602001600020600083815260200190815260200160002054905092915050565b6107c583838360405180602001604052806000815250610b45565b505050565b6107db6107d5610e09565b82610eca565b61081a576040517f08c379a000000000000000000000000000000000000000000000000000000000815260040161081190612eea565b60405180910390fd5b61082381611258565b50565b6000600d54905090565b600061083a610698565b821061087b576040517f08c379a00000000000000000000000000000000000000000000000000000000081526004016108729061300e565b60405180910390fd5b6009828154811061088f5761088e61302e565b5b90600052602060002001549050919050565b6000806108ad83611264565b9050600073ffffffffffffffffffffffffffffffffffffffff168173ffffffffffffffffffffffffffffffffffffffff160361091e576040517f08c379a0000000000000000000000000000000000000000000000000000000008152600401610915906130a9565b60405180910390fd5b80915050919050565b60008073ffffffffffffffffffffffffffffffffffffffff168273ffffffffffffffffffffffffffffffffffffffff1603610997576040517f08c379a000000000000000000000000000000000000000000000000000000000815260040161098e9061313b565b60405180910390fd5b600360008373ffffffffffffffffffffffffffffffffffffffff1673ffffffffffffffffffffffffffffffffffffffff168152602001908152602001600020549050919050565b6109e66112a1565b6109f0600061131f565b565b6000600b60009054906101000a900473ffffffffffffffffffffffffffffffffffffffff16905090565b610a246112a1565b612710811115610a69576040517f08c379a0000000000000000000000000000000000000000000000000000000008152600401610a60906131a7565b60405180910390fd5b80600d8190555050565b606060018054610a8290612d23565b80601f0160208091040260200160405190810160405280929190818152602001828054610aae90612d23565b8015610afb5780601f10610ad057610100808354040283529160200191610afb565b820191906000526020600020905b815481529060010190602001808311610ade57829003601f168201915b5050505050905090565b6000600e60009054906101000a900473ffffffffffffffffffffffffffffffffffffffff16905090565b610b41610b3a610e09565b83836113e5565b5050565b610b56610b50610e09565b83610eca565b610b95576040517f08c379a0000000000000000000000000000000000000000000000000000000008152600401610b8c90612eea565b60405180910390fd5b610ba184848484611551565b50505050565b6060610bb2826115ad565b9050919050565b610bc16112a1565b6000610bcd600c6116bf565b9050610bd9600c6116cd565b610be383826116e3565b610bed8183611701565b7f2d0ab36a823efbc1ef943e68ebdc4bcf02c8bd0e69e44c622b178de465bea874818484604051610c20939291906131c7565b60405180910390a1505050565b6000600560008473ffffffffffffffffffffffffffffffffffffffff1673ffffffffffffffffffffffffffffffffffffffff16815260200190815260200160002060008373ffffffffffffffffffffffffffffffffffffffff1673ffffffffffffffffffffffffffffffffffffffff16815260200190815260200160002060009054906101000a900460ff16905092915050565b610cc96112a1565b600073ffffffffffffffffffffffffffffffffffffffff168173ffffffffffffffffffffffffffffffffffffffff1603610d38576040517f08c379a0000000000000000000000000000000000000000000000000000000008152600401610d2f90613277565b60405180910390fd5b610d418161131f565b50565b60007f780e9d63000000000000000000000000000000000000000000000000000000007bffffffffffffffffffffffffffffffffffffffffffffffffffffffff1916827bffffffffffffffffffffffffffffffffffffffffffffffffffffffff19161480610db75750610db68261176e565b5b9050919050565b610dc781611850565b610e06576040517f08c379a0000000000000000000000000000000000000000000000000000000008152600401610dfd906130a9565b60405180910390fd5b50565b600033905090565b816004600083815260200190815260200160002060006101000a81548173ffffffffffffffffffffffffffffffffffffffff021916908373ffffffffffffffffffffffffffffffffffffffff160217905550808273ffffffffffffffffffffffffffffffffffffffff16610e84836108a1565b73ffffffffffffffffffffffffffffffffffffffff167f8c5be1e5ebec7d5bd14f71427d1e84f3dd0314c0f7b2291e5b200ac8c7c3b92560405160405180910390a45050565b600080610ed6836108a1565b90508073ffffffffffffffffffffffffffffffffffffffff168473ffffffffffffffffffffffffffffffffffffffff161480610f185750610f178185610c2d565b5b80610f5657508373ffffffffffffffffffffffffffffffffffffffff16610f3e8461053b565b73ffffffffffffffffffffffffffffffffffffffff16145b91505092915050565b8273ffffffffffffffffffffffffffffffffffffffff16610f7f826108a1565b73ffffffffffffffffffffffffffffffffffffffff1614610fd5576040517f08c379a0000000000000000000000000000000000000000000000000000000008152600401610fcc90613309565b60405180910390fd5b600073ffffffffffffffffffffffffffffffffffffffff168273ffffffffffffffffffffffffffffffffffffffff1603611044576040517f08c379a000000000000000000000000000000000000000000000000000000000815260040161103b9061339b565b60405180910390fd5b6110518383836001611891565b8273ffffffffffffffffffffffffffffffffffffffff16611071826108a1565b73ffffffffffffffffffffffffffffffffffffffff16146110c7576040517f08c379a00000000000000000000000000000000000000000000000000000000081526004016110be90613309565b60405180910390fd5b6004600082815260200190815260200160002060006101000a81549073ffffffffffffffffffffffffffffffffffffffff02191690556001600360008573ffffffffffffffffffffffffffffffffffffffff1673ffffffffffffffffffffffffffffffffffffffff168152602001908152602001600020600082825403925050819055506001600360008473ffffffffffffffffffffffffffffffffffffffff1673ffffffffffffffffffffffffffffffffffffffff16815260200190815260200160002060008282540192505081905550816002600083815260200190815260200160002060006101000a81548173ffffffffffffffffffffffffffffffffffffffff021916908373ffffffffffffffffffffffffffffffffffffffff160217905550808273ffffffffffffffffffffffffffffffffffffffff168473ffffffffffffffffffffffffffffffffffffffff167fddf252ad1be2c89b69c2b068fc378daa952ba7f163c4a11628f55a4df523b3ef60405160405180910390a461125383838360016118a3565b505050565b611261816118a9565b50565b60006002600083815260200190815260200160002060009054906101000a900473ffffffffffffffffffffffffffffffffffffffff169050919050565b6112a9610e09565b73ffffffffffffffffffffffffffffffffffffffff166112c76109f2565b73ffffffffffffffffffffffffffffffffffffffff161461131d576040517f08c379a000000000000000000000000000000000000000000000000000000000815260040161131490613407565b60405180910390fd5b565b6000600b60009054906101000a900473ffffffffffffffffffffffffffffffffffffffff16905081600b60006101000a81548173ffffffffffffffffffffffffffffffffffffffff021916908373ffffffffffffffffffffffffffffffffffffffff1602179055508173ffffffffffffffffffffffffffffffffffffffff168173ffffffffffffffffffffffffffffffffffffffff167f8be0079c531659141344cd1fd0a4f28419497f9722a3daafe3b4186f6b6457e060405160405180910390a35050565b8173ffffffffffffffffffffffffffffffffffffffff168373ffffffffffffffffffffffffffffffffffffffff1603611453576040517f08c379a000000000000000000000000000000000000000000000000000000000815260040161144a90613473565b60405180910390fd5b80600560008573ffffffffffffffffffffffffffffffffffffffff1673ffffffffffffffffffffffffffffffffffffffff16815260200190815260200160002060008473ffffffffffffffffffffffffffffffffffffffff1673ffffffffffffffffffffffffffffffffffffffff16815260200190815260200160002060006101000a81548160ff0219169083151502179055508173ffffffffffffffffffffffffffffffffffffffff168373ffffffffffffffffffffffffffffffffffffffff167f17307eab39ab6107e8899845ad3d59bd9653f200f220920489ca2b5937696c318360405161154491906126f1565b60405180910390a3505050565b61155c848484610f5f565b611568848484846118fc565b6115a7576040517f08c379a000000000000000000000000000000000000000000000000000000000815260040161159e90613505565b60405180910390fd5b50505050565b60606115b882610dbe565b60006006600084815260200190815260200160002080546115d890612d23565b80601f016020809104026020016040519081016040528092919081815260200182805461160490612d23565b80156116515780601f1061162657610100808354040283529160200191611651565b820191906000526020600020905b81548152906001019060200180831161163457829003601f168201915b505050505090506000611662611a83565b905060008151036116775781925050506116ba565b6000825111156116ac578082604051602001611694929190613561565b604051602081830303815290604052925050506116ba565b6116b584611a9a565b925050505b919050565b600081600001549050919050565b6001816000016000828254019250508190555050565b6116fd828260405180602001604052806000815250611b02565b5050565b61170a82611850565b611749576040517f08c379a0000000000000000000000000000000000000000000000000000000008152600401611740906135f7565b60405180910390fd5b8060066000848152602001908152602001600020908161176991906137c3565b505050565b60007f80ac58cd000000000000000000000000000000000000000000000000000000007bffffffffffffffffffffffffffffffffffffffffffffffffffffffff1916827bffffffffffffffffffffffffffffffffffffffffffffffffffffffff1916148061183957507f5b5e139f000000000000000000000000000000000000000000000000000000007bffffffffffffffffffffffffffffffffffffffffffffffffffffffff1916827bffffffffffffffffffffffffffffffffffffffffffffffffffffffff1916145b80611849575061184882611b5d565b5b9050919050565b60008073ffffffffffffffffffffffffffffffffffffffff1661187283611264565b73ffffffffffffffffffffffffffffffffffffffff1614159050919050565b61189d84848484611bc7565b50505050565b50505050565b6118b281611d25565b60006006600083815260200190815260200160002080546118d290612d23565b9050146118f9576006600082815260200190815260200160002060006118f891906125e0565b5b50565b600061191d8473ffffffffffffffffffffffffffffffffffffffff16611e73565b15611a76578373ffffffffffffffffffffffffffffffffffffffff1663150b7a02611946610e09565b8786866040518563ffffffff1660e01b815260040161196894939291906138ea565b6020604051808303816000875af19250505080156119a457506040513d601f19601f820116820180604052508101906119a1919061394b565b60015b611a26573d80600081146119d4576040519150601f19603f3d011682016040523d82523d6000602084013e6119d9565b606091505b506000815103611a1e576040517f08c379a0000000000000000000000000000000000000000000000000000000008152600401611a1590613505565b60405180910390fd5b805181602001fd5b63150b7a0260e01b7bffffffffffffffffffffffffffffffffffffffffffffffffffffffff1916817bffffffffffffffffffffffffffffffffffffffffffffffffffffffff191614915050611a7b565b600190505b949350505050565b606060405180602001604052806000815250905090565b6060611aa582610dbe565b6000611aaf611a83565b90506000815111611acf5760405180602001604052806000815250611afa565b80611ad984611e96565b604051602001611aea929190613561565b6040516020818303038152906040525b915050919050565b611b0c8383611f64565b611b1960008484846118fc565b611b58576040517f08c379a0000000000000000000000000000000000000000000000000000000008152600401611b4f90613505565b60405180910390fd5b505050565b60007f01ffc9a7000000000000000000000000000000000000000000000000000000007bffffffffffffffffffffffffffffffffffffffffffffffffffffffff1916827bffffffffffffffffffffffffffffffffffffffffffffffffffffffff1916149050919050565b611bd384848484612181565b6001811115611c17576040517f08c379a0000000000000000000000000000000000000000000000000000000008152600401611c0e906139ea565b60405180910390fd5b6000829050600073ffffffffffffffffffffffffffffffffffffffff168573ffffffffffffffffffffffffffffffffffffffff1603611c5e57611c5981612187565b611c9d565b8373ffffffffffffffffffffffffffffffffffffffff168573ffffffffffffffffffffffffffffffffffffffff1614611c9c57611c9b85826121d0565b5b5b600073ffffffffffffffffffffffffffffffffffffffff168473ffffffffffffffffffffffffffffffffffffffff1603611cdf57611cda8161233d565b611d1e565b8473ffffffffffffffffffffffffffffffffffffffff168473ffffffffffffffffffffffffffffffffffffffff1614611d1d57611d1c848261240e565b5b5b5050505050565b6000611d30826108a1565b9050611d40816000846001611891565b611d49826108a1565b90506004600083815260200190815260200160002060006101000a81549073ffffffffffffffffffffffffffffffffffffffff02191690556001600360008373ffffffffffffffffffffffffffffffffffffffff1673ffffffffffffffffffffffffffffffffffffffff168152602001908152602001600020600082825403925050819055506002600083815260200190815260200160002060006101000a81549073ffffffffffffffffffffffffffffffffffffffff021916905581600073ffffffffffffffffffffffffffffffffffffffff168273ffffffffffffffffffffffffffffffffffffffff167fddf252ad1be2c89b69c2b068fc378daa952ba7f163c4a11628f55a4df523b3ef60405160405180910390a4611e6f8160008460016118a3565b5050565b6000808273ffffffffffffffffffffffffffffffffffffffff163b119050919050565b606060006001611ea58461248d565b01905060008167ffffffffffffffff811115611ec457611ec3612a09565b5b6040519080825280601f01601f191660200182016040528015611ef65781602001600182028036833780820191505090505b509050600082602001820190505b600115611f59578080600190039150507f3031323334353637383961626364656600000000000000000000000000000000600a86061a8153600a8581611f4d57611f4c613a0a565b5b04945060008503611f04575b819350505050919050565b600073ffffffffffffffffffffffffffffffffffffffff168273ffffffffffffffffffffffffffffffffffffffff1603611fd3576040517f08c379a0000000000000000000000000000000000000000000000000000000008152600401611fca90613a85565b60405180910390fd5b611fdc81611850565b1561201c576040517f08c379a000000000000000000000000000000000000000000000000000000000815260040161201390613af1565b60405180910390fd5b61202a600083836001611891565b61203381611850565b15612073576040517f08c379a000000000000000000000000000000000000000000000000000000000815260040161206a90613af1565b60405180910390fd5b6001600360008473ffffffffffffffffffffffffffffffffffffffff1673ffffffffffffffffffffffffffffffffffffffff16815260200190815260200160002060008282540192505081905550816002600083815260200190815260200160002060006101000a81548173ffffffffffffffffffffffffffffffffffffffff021916908373ffffffffffffffffffffffffffffffffffffffff160217905550808273ffffffffffffffffffffffffffffffffffffffff16600073ffffffffffffffffffffffffffffffffffffffff167fddf252ad1be2c89b69c2b068fc378daa952ba7f163c4a11628f55a4df523b3ef60405160405180910390a461217d6000838360016118a3565b5050565b50505050565b600980549050600a600083815260200190815260200160002081905550600981908060018154018082558091505060019003906000526020600020016000909190919091505550565b600060016121dd84610927565b6121e79190613b40565b90506000600860008481526020019081526020016000205490508181146122cc576000600760008673ffffffffffffffffffffffffffffffffffffffff1673ffffffffffffffffffffffffffffffffffffffff168152602001908152602001600020600084815260200190815260200160002054905080600760008773ffffffffffffffffffffffffffffffffffffffff1673ffffffffffffffffffffffffffffffffffffffff168152602001908152602001600020600084815260200190815260200160002081905550816008600083815260200190815260200160002081905550505b6008600084815260200190815260200160002060009055600760008573ffffffffffffffffffffffffffffffffffffffff1673ffffffffffffffffffffffffffffffffffffffff16815260200190815260200160002060008381526020019081526020016000206000905550505050565b600060016009805490506123519190613b40565b90506000600a60008481526020019081526020016000205490506000600983815481106123815761238061302e565b5b9060005260206000200154905080600983815481106123a3576123a261302e565b5b906000526020600020018190555081600a600083815260200190815260200160002081905550600a60008581526020019081526020016000206000905560098054806123f2576123f1613b74565b5b6001900381819060005260206000200160009055905550505050565b600061241983610927565b905081600760008573ffffffffffffffffffffffffffffffffffffffff1673ffffffffffffffffffffffffffffffffffffffff168152602001908152602001600020600083815260200190815260200160002081905550806008600084815260200190815260200160002081905550505050565b600080600090507a184f03e93ff9f4daa797ed6e38ed64bf6a1f01000000000000000083106124eb577a184f03e93ff9f4daa797ed6e38ed64bf6a1f01000000000000000083816124e1576124e0613a0a565b5b0492506040810190505b6d04ee2d6d415b85acef81000000008310612528576d04ee2d6d415b85acef8100000000838161251e5761251d613a0a565b5b0492506020810190505b662386f26fc10000831061255757662386f26fc10000838161254d5761254c613a0a565b5b0492506010810190505b6305f5e1008310612580576305f5e100838161257657612575613a0a565b5b0492506008810190505b61271083106125a557612710838161259b5761259a613a0a565b5b0492506004810190505b606483106125c857606483816125be576125bd613a0a565b5b0492506002810190505b600a83106125d7576001810190505b80915050919050565b5080546125ec90612d23565b6000825580601f106125fe575061261d565b601f01602090049060005260206000209081019061261c9190612620565b5b50565b5b80821115612639576000816000905550600101612621565b5090565b6000604051905090565b600080fd5b600080fd5b60007fffffffff0000000000000000000000000000000000000000000000000000000082169050919050565b61268681612651565b811461269157600080fd5b50565b6000813590506126a38161267d565b92915050565b6000602082840312156126bf576126be612647565b5b60006126cd84828501612694565b91505092915050565b60008115159050919050565b6126eb816126d6565b82525050565b600060208201905061270660008301846126e2565b92915050565b600081519050919050565b600082825260208201905092915050565b60005b8381101561274657808201518184015260208101905061272b565b60008484015250505050565b6000601f19601f8301169050919050565b600061276e8261270c565b6127788185612717565b9350612788818560208601612728565b61279181612752565b840191505092915050565b600060208201905081810360008301526127b68184612763565b905092915050565b6000819050919050565b6127d1816127be565b81146127dc57600080fd5b50565b6000813590506127ee816127c8565b92915050565b60006020828403121561280a57612809612647565b5b6000612818848285016127df565b91505092915050565b600073ffffffffffffffffffffffffffffffffffffffff82169050919050565b600061284c82612821565b9050919050565b61285c81612841565b82525050565b60006020820190506128776000830184612853565b92915050565b61288681612841565b811461289157600080fd5b50565b6000813590506128a38161287d565b92915050565b600080604083850312156128c0576128bf612647565b5b60006128ce85828601612894565b92505060206128df858286016127df565b9150509250929050565b6128f2816127be565b82525050565b600060208201905061290d60008301846128e9565b92915050565b60008060006060848603121561292c5761292b612647565b5b600061293a86828701612894565b935050602061294b86828701612894565b925050604061295c868287016127df565b9150509250925092565b60006020828403121561297c5761297b612647565b5b600061298a84828501612894565b91505092915050565b61299c816126d6565b81146129a757600080fd5b50565b6000813590506129b981612993565b92915050565b600080604083850312156129d6576129d5612647565b5b60006129e485828601612894565b92505060206129f5858286016129aa565b9150509250929050565b600080fd5b600080fd5b7f4e487b7100000000000000000000000000000000000000000000000000000000600052604160045260246000fd5b612a4182612752565b810181811067ffffffffffffffff82111715612a6057612a5f612a09565b5b80604052505050565b6000612a7361263d565b9050612a7f8282612a38565b919050565b600067ffffffffffffffff821115612a9f57612a9e612a09565b5b612aa882612752565b9050602081019050919050565b82818337600083830152505050565b6000612ad7612ad284612a84565b612a69565b905082815260208101848484011115612af357612af2612a04565b5b612afe848285612ab5565b509392505050565b600082601f830112612b1b57612b1a6129ff565b5b8135612b2b848260208601612ac4565b91505092915050565b60008060008060808587031215612b4e57612b4d612647565b5b6000612b5c87828801612894565b9450506020612b6d87828801612894565b9350506040612b7e878288016127df565b925050606085013567ffffffffffffffff811115612b9f57612b9e61264c565b5b612bab87828801612b06565b91505092959194509250565b600067ffffffffffffffff821115612bd257612bd1612a09565b5b612bdb82612752565b9050602081019050919050565b6000612bfb612bf684612bb7565b612a69565b905082815260208101848484011115612c1757612c16612a04565b5b612c22848285612ab5565b509392505050565b600082601f830112612c3f57612c3e6129ff565b5b8135612c4f848260208601612be8565b91505092915050565b60008060408385031215612c6f57612c6e612647565b5b6000612c7d85828601612894565b925050602083013567ffffffffffffffff811115612c9e57612c9d61264c565b5b612caa85828601612c2a565b9150509250929050565b60008060408385031215612ccb57612cca612647565b5b6000612cd985828601612894565b9250506020612cea85828601612894565b9150509250929050565b7f4e487b7100000000000000000000000000000000000000000000000000000000600052602260045260246000fd5b60006002820490506001821680612d3b57607f821691505b602082108103612d4e57612d4d612cf4565b5b50919050565b7f4552433732313a20617070726f76616c20746f2063757272656e74206f776e6560008201527f7200000000000000000000000000000000000000000000000000000000000000602082015250565b6000612db0602183612717565b9150612dbb82612d54565b604082019050919050565b60006020820190508181036000830152612ddf81612da3565b9050919050565b7f4552433732313a20617070726f76652063616c6c6572206973206e6f7420746f60008201527f6b656e206f776e6572206f7220617070726f76656420666f7220616c6c000000602082015250565b6000612e42603d83612717565b9150612e4d82612de6565b604082019050919050565b60006020820190508181036000830152612e7181612e35565b9050919050565b7f4552433732313a2063616c6c6572206973206e6f7420746f6b656e206f776e6560008201527f72206f7220617070726f76656400000000000000000000000000000000000000602082015250565b6000612ed4602d83612717565b9150612edf82612e78565b604082019050919050565b60006020820190508181036000830152612f0381612ec7565b9050919050565b7f455243373231456e756d657261626c653a206f776e657220696e646578206f7560008201527f74206f6620626f756e6473000000000000000000000000000000000000000000602082015250565b6000612f66602b83612717565b9150612f7182612f0a565b604082019050919050565b60006020820190508181036000830152612f9581612f59565b9050919050565b7f455243373231456e756d657261626c653a20676c6f62616c20696e646578206f60008201527f7574206f6620626f756e64730000000000000000000000000000000000000000602082015250565b6000612ff8602c83612717565b915061300382612f9c565b604082019050919050565b6000602082019050818103600083015261302781612feb565b9050919050565b7f4e487b7100000000000000000000000000000000000000000000000000000000600052603260045260246000fd5b7f4552433732313a20696e76616c696420746f6b656e2049440000000000000000600082015250565b6000613093601883612717565b915061309e8261305d565b602082019050919050565b600060208201905081810360008301526130c281613086565b9050919050565b7f4552433732313a2061646472657373207a65726f206973206e6f74206120766160008201527f6c6964206f776e65720000000000000000000000000000000000000000000000602082015250565b6000613125602983612717565b9150613130826130c9565b604082019050919050565b6000602082019050818103600083015261315481613118565b9050919050565b7f63616e2774206d6f7265207468616e2031302070657263656e74000000000000600082015250565b6000613191601a83612717565b915061319c8261315b565b602082019050919050565b600060208201905081810360008301526131c081613184565b9050919050565b60006060820190506131dc60008301866128e9565b6131e96020830185612853565b81810360408301526131fb8184612763565b9050949350505050565b7f4f776e61626c653a206e6577206f776e657220697320746865207a65726f206160008201527f6464726573730000000000000000000000000000000000000000000000000000602082015250565b6000613261602683612717565b915061326c82613205565b604082019050919050565b6000602082019050818103600083015261329081613254565b9050919050565b7f4552433732313a207472616e736665722066726f6d20696e636f72726563742060008201527f6f776e6572000000000000000000000000000000000000000000000000000000602082015250565b60006132f3602583612717565b91506132fe82613297565b604082019050919050565b60006020820190508181036000830152613322816132e6565b9050919050565b7f4552433732313a207472616e7366657220746f20746865207a65726f2061646460008201527f7265737300000000000000000000000000000000000000000000000000000000602082015250565b6000613385602483612717565b915061339082613329565b604082019050919050565b600060208201905081810360008301526133b481613378565b9050919050565b7f4f776e61626c653a2063616c6c6572206973206e6f7420746865206f776e6572600082015250565b60006133f1602083612717565b91506133fc826133bb565b602082019050919050565b60006020820190508181036000830152613420816133e4565b9050919050565b7f4552433732313a20617070726f766520746f2063616c6c657200000000000000600082015250565b600061345d601983612717565b915061346882613427565b602082019050919050565b6000602082019050818103600083015261348c81613450565b9050919050565b7f4552433732313a207472616e7366657220746f206e6f6e20455243373231526560008201527f63656976657220696d706c656d656e7465720000000000000000000000000000602082015250565b60006134ef603283612717565b91506134fa82613493565b604082019050919050565b6000602082019050818103600083015261351e816134e2565b9050919050565b600081905092915050565b600061353b8261270c565b6135458185613525565b9350613555818560208601612728565b80840191505092915050565b600061356d8285613530565b91506135798284613530565b91508190509392505050565b7f45524337323155524953746f726167653a2055524920736574206f66206e6f6e60008201527f6578697374656e7420746f6b656e000000000000000000000000000000000000602082015250565b60006135e1602e83612717565b91506135ec82613585565b604082019050919050565b60006020820190508181036000830152613610816135d4565b9050919050565b60008190508160005260206000209050919050565b60006020601f8301049050919050565b600082821b905092915050565b6000600883026136797fffffffffffffffffffffffffffffffffffffffffffffffffffffffffffffffff8261363c565b613683868361363c565b95508019841693508086168417925050509392505050565b6000819050919050565b60006136c06136bb6136b6846127be565b61369b565b6127be565b9050919050565b6000819050919050565b6136da836136a5565b6136ee6136e6826136c7565b848454613649565b825550505050565b600090565b6137036136f6565b61370e8184846136d1565b505050565b5b81811015613732576137276000826136fb565b600181019050613714565b5050565b601f8211156137775761374881613617565b6137518461362c565b81016020851015613760578190505b61377461376c8561362c565b830182613713565b50505b505050565b600082821c905092915050565b600061379a6000198460080261377c565b1980831691505092915050565b60006137b38383613789565b9150826002028217905092915050565b6137cc8261270c565b67ffffffffffffffff8111156137e5576137e4612a09565b5b6137ef8254612d23565b6137fa828285613736565b600060209050601f83116001811461382d576000841561381b578287015190505b61382585826137a7565b86555061388d565b601f19841661383b86613617565b60005b828110156138635784890151825560018201915060208501945060208101905061383e565b86831015613880578489015161387c601f891682613789565b8355505b6001600288020188555050505b505050505050565b600081519050919050565b600082825260208201905092915050565b60006138bc82613895565b6138c681856138a0565b93506138d6818560208601612728565b6138df81612752565b840191505092915050565b60006080820190506138ff6000830187612853565b61390c6020830186612853565b61391960408301856128e9565b818103606083015261392b81846138b1565b905095945050505050565b6000815190506139458161267d565b92915050565b60006020828403121561396157613960612647565b5b600061396f84828501613936565b91505092915050565b7f455243373231456e756d657261626c653a20636f6e736563757469766520747260008201527f616e7366657273206e6f7420737570706f727465640000000000000000000000602082015250565b60006139d4603583612717565b91506139df82613978565b604082019050919050565b60006020820190508181036000830152613a03816139c7565b9050919050565b7f4e487b7100000000000000000000000000000000000000000000000000000000600052601260045260246000fd5b7f4552433732313a206d696e7420746f20746865207a65726f2061646472657373600082015250565b6000613a6f602083612717565b9150613a7a82613a39565b602082019050919050565b60006020820190508181036000830152613a9e81613a62565b9050919050565b7f4552433732313a20746f6b656e20616c7265616479206d696e74656400000000600082015250565b6000613adb601c83612717565b9150613ae682613aa5565b602082019050919050565b60006020820190508181036000830152613b0a81613ace565b9050919050565b7f4e487b7100000000000000000000000000000000000000000000000000000000600052601160045260246000fd5b6000613b4b826127be565b9150613b56836127be565b9250828203905081811115613b6e57613b6d613b11565b5b92915050565b7f4e487b7100000000000000000000000000000000000000000000000000000000600052603160045260246000fdfea26469706673582212203d14766219b1d53eb4239a3f12d3a4adf24d8cf7ff847e071443454f710fd9e564736f6c63430008110033",
  "linkReferences": {},
  "deployedLinkReferences": {}
}