{
  "_format": "hh-sol-artifact-1",
  "contractName": "ElysiumNFTMarketplace",
  "sourceName": "contracts/ElysiumNFTMarketplace.sol",
  "abi": [
    {
      "inputs": [
        {
          "internalType": "uint256",
          "name": "_platformFee",
          "type": "uint256"
        },
        {
          "internalType": "contract elysiumNFTFactoryInterface",
          "name": "_elysiumNFTFactory",
          "type": "address"
        }
      ],
      "stateMutability": "nonpayable",
      "type": "constructor"
    },
    {
      "anonymous": false,
      "inputs": [
        {
          "indexed": true,
          "internalType": "address",
          "name": "nft",
          "type": "address"
        },
        {
          "indexed": true,
          "internalType": "uint256",
          "name": "tokenId",
          "type": "uint256"
        },
        {
          "indexed": false,
          "internalType": "uint256",
          "name": "price",
          "type": "uint256"
        },
        {
          "indexed": false,
          "internalType": "address",
          "name": "seller",
          "type": "address"
        },
        {
          "indexed": true,
          "internalType": "address",
          "name": "buyer",
          "type": "address"
        }
      ],
      "name": "BoughtNFT",
      "type": "event"
    },
    {
      "anonymous": false,
      "inputs": [
        {
          "indexed": true,
          "internalType": "address",
          "name": "nft",
          "type": "address"
        },
        {
          "indexed": true,
          "internalType": "uint256",
          "name": "tokenId",
          "type": "uint256"
        },
        {
          "indexed": false,
          "internalType": "uint256",
          "name": "price",
          "type": "uint256"
        },
        {
          "indexed": true,
          "internalType": "address",
          "name": "seller",
          "type": "address"
        }
      ],
      "name": "ListedNFT",
      "type": "event"
    },
    {
      "anonymous": false,
      "inputs": [
        {
          "indexed": true,
          "internalType": "address",
          "name": "previousOwner",
          "type": "address"
        },
        {
          "indexed": true,
          "internalType": "address",
          "name": "newOwner",
          "type": "address"
        }
      ],
      "name": "OwnershipTransferred",
      "type": "event"
    },
    {
      "inputs": [
        {
          "internalType": "address[]",
          "name": "_nfts",
          "type": "address[]"
        },
        {
          "internalType": "uint256[]",
          "name": "_tokenIds",
          "type": "uint256[]"
        }
      ],
      "name": "buyBulkNFTs",
      "outputs": [],
      "stateMutability": "payable",
      "type": "function"
    },
    {
      "inputs": [
        {
          "internalType": "address",
          "name": "_nft",
          "type": "address"
        },
        {
          "internalType": "uint256",
          "name": "_tokenId",
          "type": "uint256"
        }
      ],
      "name": "buyNFT",
      "outputs": [],
      "stateMutability": "payable",
      "type": "function"
    },
    {
      "inputs": [
        {
          "internalType": "uint256",
          "name": "_royalty",
          "type": "uint256"
        },
        {
          "internalType": "uint256",
          "name": "_price",
          "type": "uint256"
        }
      ],
      "name": "calculateRoyalty",
      "outputs": [
        {
          "internalType": "uint256",
          "name": "",
          "type": "uint256"
        }
      ],
      "stateMutability": "pure",
      "type": "function"
    },
    {
      "inputs": [
        {
          "internalType": "address",
          "name": "_nft",
          "type": "address"
        },
        {
          "internalType": "uint256",
          "name": "_tokenId",
          "type": "uint256"
        }
      ],
      "name": "cancelListNFT",
      "outputs": [],
      "stateMutability": "nonpayable",
      "type": "function"
    },
    {
      "inputs": [
        {
          "internalType": "address",
          "name": "_feeRecipient",
          "type": "address"
        }
      ],
      "name": "changeFeeRecipient",
      "outputs": [],
      "stateMutability": "nonpayable",
      "type": "function"
    },
    {
      "inputs": [],
      "name": "getFeeRecipient",
      "outputs": [
        {
          "internalType": "address",
          "name": "",
          "type": "address"
        }
      ],
      "stateMutability": "view",
      "type": "function"
    },
    {
      "inputs": [
        {
          "internalType": "address",
          "name": "_nft",
          "type": "address"
        },
        {
          "internalType": "uint256",
          "name": "_tokenId",
          "type": "uint256"
        }
      ],
      "name": "getListedNFT",
      "outputs": [
        {
          "components": [
            {
              "internalType": "address",
              "name": "nft",
              "type": "address"
            },
            {
              "internalType": "uint256",
              "name": "tokenId",
              "type": "uint256"
            },
            {
              "internalType": "address payable",
              "name": "seller",
              "type": "address"
            },
            {
              "internalType": "uint256",
              "name": "price",
              "type": "uint256"
            },
            {
              "internalType": "bool",
              "name": "sold",
              "type": "bool"
            }
          ],
          "internalType": "struct ElysiumNFTMarketplace.ListNFT",
          "name": "",
          "type": "tuple"
        }
      ],
      "stateMutability": "view",
      "type": "function"
    },
    {
      "inputs": [],
      "name": "getPlatformFee",
      "outputs": [
        {
          "internalType": "uint256",
          "name": "",
          "type": "uint256"
        }
      ],
      "stateMutability": "view",
      "type": "function"
    },
    {
      "inputs": [
        {
          "internalType": "address",
          "name": "_nft",
          "type": "address"
        },
        {
          "internalType": "uint256",
          "name": "_tokenId",
          "type": "uint256"
        },
        {
          "internalType": "uint256",
          "name": "_price",
          "type": "uint256"
        }
      ],
      "name": "listNft",
      "outputs": [],
      "stateMutability": "nonpayable",
      "type": "function"
    },
    {
      "inputs": [],
      "name": "owner",
      "outputs": [
        {
          "internalType": "address",
          "name": "",
          "type": "address"
        }
      ],
      "stateMutability": "view",
      "type": "function"
    },
    {
      "inputs": [],
      "name": "renounceOwnership",
      "outputs": [],
      "stateMutability": "nonpayable",
      "type": "function"
    },
    {
      "inputs": [
        {
          "internalType": "address",
          "name": "newOwner",
          "type": "address"
        }
      ],
      "name": "transferOwnership",
      "outputs": [],
      "stateMutability": "nonpayable",
      "type": "function"
    },
    {
      "inputs": [
        {
          "internalType": "uint256",
          "name": "_platformFee",
          "type": "uint256"
        }
      ],
      "name": "updatePlatformFee",
      "outputs": [],
      "stateMutability": "nonpayable",
      "type": "function"
    }
  ],
  "bytecode": "0x60a060405266038d7ea4c680006002553480156200001c57600080fd5b50604051620031ab380380620031ab833981810160405281019062000042919062000272565b6200006262000056620000ed60201b60201c565b620000f560201b60201c565b600180819055508160028190555033600360006101000a81548173ffffffffffffffffffffffffffffffffffffffff021916908373ffffffffffffffffffffffffffffffffffffffff1602179055508073ffffffffffffffffffffffffffffffffffffffff1660808173ffffffffffffffffffffffffffffffffffffffff16815250505050620002b9565b600033905090565b60008060009054906101000a900473ffffffffffffffffffffffffffffffffffffffff169050816000806101000a81548173ffffffffffffffffffffffffffffffffffffffff021916908373ffffffffffffffffffffffffffffffffffffffff1602179055508173ffffffffffffffffffffffffffffffffffffffff168173ffffffffffffffffffffffffffffffffffffffff167f8be0079c531659141344cd1fd0a4f28419497f9722a3daafe3b4186f6b6457e060405160405180910390a35050565b600080fd5b6000819050919050565b620001d381620001be565b8114620001df57600080fd5b50565b600081519050620001f381620001c8565b92915050565b600073ffffffffffffffffffffffffffffffffffffffff82169050919050565b60006200022682620001f9565b9050919050565b60006200023a8262000219565b9050919050565b6200024c816200022d565b81146200025857600080fd5b50565b6000815190506200026c8162000241565b92915050565b600080604083850312156200028c576200028b620001b9565b5b60006200029c85828601620001e2565b9250506020620002af858286016200025b565b9150509250929050565b608051612ed6620002d560003960006118690152612ed66000f3fe6080604052600436106100c25760003560e01c80638da5cb5b1161007f578063b0708a3511610059578063b0708a3514610212578063c922b17c1461024f578063dc3c3dfd14610278578063f2fde38b146102b5576100c2565b80638da5cb5b146101a2578063a82ba76f146101cd578063aa0b5988146101e9576100c2565b806323604071146100c757806335a8a049146100f05780634ccb20c0146101195780636ea8bc1014610144578063715018a61461016f5780637939d03014610186575b600080fd5b3480156100d357600080fd5b506100ee60048036038101906100e99190612099565b6102de565b005b3480156100fc57600080fd5b50610117600480360381019061011291906120fc565b610399565b005b34801561012557600080fd5b5061012e61083f565b60405161013b919061214b565b60405180910390f35b34801561015057600080fd5b50610159610869565b6040516101669190612175565b60405180910390f35b34801561017b57600080fd5b50610184610873565b005b6101a0600480360381019061019b91906123ac565b610887565b005b3480156101ae57600080fd5b506101b7611135565b6040516101c4919061214b565b60405180910390f35b6101e760048036038101906101e291906120fc565b61115e565b005b3480156101f557600080fd5b50610210600480360381019061020b9190612424565b6117ed565b005b34801561021e57600080fd5b5061023960048036038101906102349190612451565b611843565b6040516102469190612175565b60405180910390f35b34801561025b57600080fd5b5061027660048036038101906102719190612491565b611866565b005b34801561028457600080fd5b5061029f600480360381019061029a91906120fc565b611cb7565b6040516102ac91906125a6565b60405180910390f35b3480156102c157600080fd5b506102dc60048036038101906102d79190612099565b611dfd565b005b6102e6611e80565b600073ffffffffffffffffffffffffffffffffffffffff168173ffffffffffffffffffffffffffffffffffffffff1603610355576040517f08c379a000000000000000000000000000000000000000000000000000000000815260040161034c9061261e565b60405180910390fd5b80600360006101000a81548173ffffffffffffffffffffffffffffffffffffffff021916908373ffffffffffffffffffffffffffffffffffffffff16021790555050565b81816000600460008473ffffffffffffffffffffffffffffffffffffffff1673ffffffffffffffffffffffffffffffffffffffff16815260200190815260200160002060008381526020019081526020016000206040518060a00160405290816000820160009054906101000a900473ffffffffffffffffffffffffffffffffffffffff1673ffffffffffffffffffffffffffffffffffffffff1673ffffffffffffffffffffffffffffffffffffffff168152602001600182015481526020016002820160009054906101000a900473ffffffffffffffffffffffffffffffffffffffff1673ffffffffffffffffffffffffffffffffffffffff1673ffffffffffffffffffffffffffffffffffffffff168152602001600382015481526020016004820160009054906101000a900460ff1615151515815250509050600073ffffffffffffffffffffffffffffffffffffffff16816040015173ffffffffffffffffffffffffffffffffffffffff161415801561051857508060800151155b610557576040517f08c379a000000000000000000000000000000000000000000000000000000000815260040161054e9061268a565b60405180910390fd5b6000600460008773ffffffffffffffffffffffffffffffffffffffff1673ffffffffffffffffffffffffffffffffffffffff16815260200190815260200160002060008681526020019081526020016000206040518060a00160405290816000820160009054906101000a900473ffffffffffffffffffffffffffffffffffffffff1673ffffffffffffffffffffffffffffffffffffffff1673ffffffffffffffffffffffffffffffffffffffff168152602001600182015481526020016002820160009054906101000a900473ffffffffffffffffffffffffffffffffffffffff1673ffffffffffffffffffffffffffffffffffffffff1673ffffffffffffffffffffffffffffffffffffffff168152602001600382015481526020016004820160009054906101000a900460ff16151515158152505090503373ffffffffffffffffffffffffffffffffffffffff16816040015173ffffffffffffffffffffffffffffffffffffffff1614610703576040517f08c379a00000000000000000000000000000000000000000000000000000000081526004016106fa9061271c565b60405180910390fd5b8573ffffffffffffffffffffffffffffffffffffffff166323b872dd3033886040518463ffffffff1660e01b81526004016107409392919061273c565b600060405180830381600087803b15801561075a57600080fd5b505af115801561076e573d6000803e3d6000fd5b50505050600460008773ffffffffffffffffffffffffffffffffffffffff1673ffffffffffffffffffffffffffffffffffffffff1681526020019081526020016000206000868152602001908152602001600020600080820160006101000a81549073ffffffffffffffffffffffffffffffffffffffff021916905560018201600090556002820160006101000a81549073ffffffffffffffffffffffffffffffffffffffff021916905560038201600090556004820160006101000a81549060ff02191690555050505050505050565b6000600360009054906101000a900473ffffffffffffffffffffffffffffffffffffffff16905090565b6000600254905090565b61087b611e80565b6108856000611efe565b565b600080835167ffffffffffffffff8111156108a5576108a46121a6565b5b6040519080825280602002602001820160405280156108de57816020015b6108cb611fca565b8152602001906001900390816108c35790505b50905060005b8451811015610ab4576004600086838151811061090457610903612773565b5b602002602001015173ffffffffffffffffffffffffffffffffffffffff1673ffffffffffffffffffffffffffffffffffffffff168152602001908152602001600020600085838151811061095b5761095a612773565b5b602002602001015181526020019081526020016000206040518060a00160405290816000820160009054906101000a900473ffffffffffffffffffffffffffffffffffffffff1673ffffffffffffffffffffffffffffffffffffffff1673ffffffffffffffffffffffffffffffffffffffff168152602001600182015481526020016002820160009054906101000a900473ffffffffffffffffffffffffffffffffffffffff1673ffffffffffffffffffffffffffffffffffffffff1673ffffffffffffffffffffffffffffffffffffffff168152602001600382015481526020016004820160009054906101000a900460ff161515151581525050828281518110610a6a57610a69612773565b5b6020026020010181905250818181518110610a8857610a87612773565b5b60200260200101516060015183610a9f91906127d1565b92508080610aac90612805565b9150506108e4565b5081341015610af8576040517f08c379a0000000000000000000000000000000000000000000000000000000008152600401610aef90612899565b60405180910390fd5b60003490506000805b86518110156110e557600073ffffffffffffffffffffffffffffffffffffffff16848281518110610b3557610b34612773565b5b60200260200101516040015173ffffffffffffffffffffffffffffffffffffffff1603610b97576040517f08c379a0000000000000000000000000000000000000000000000000000000008152600401610b8e9061268a565b60405180910390fd5b838181518110610baa57610ba9612773565b5b60200260200101516080015115610bf6576040517f08c379a0000000000000000000000000000000000000000000000000000000008152600401610bed90612905565b60405180910390fd5b838181518110610c0957610c08612773565b5b602002602001015160600151341015610c57576040517f08c379a0000000000000000000000000000000000000000000000000000000008152600401610c4e90612971565b60405180910390fd5b838181518110610c6a57610c69612773565b5b60200260200101516060015191506001848281518110610c8d57610c8c612773565b5b602002602001015160800190151590811515815250506000848281518110610cb857610cb7612773565b5b602002602001015160000151905060008173ffffffffffffffffffffffffffffffffffffffff166395edc18c6040518163ffffffff1660e01b8152600401602060405180830381865afa158015610d13573d6000803e3d6000fd5b505050506040513d601f19601f82011682018060405250810190610d3791906129a6565b905060008273ffffffffffffffffffffffffffffffffffffffff16634d47732a6040518163ffffffff1660e01b8152600401602060405180830381865afa158015610d86573d6000803e3d6000fd5b505050506040513d601f19601f82011682018060405250810190610daa91906129e8565b90506000811115610e38576000610ddf82898781518110610dce57610dcd612773565b5b602002602001015160600151611843565b90508273ffffffffffffffffffffffffffffffffffffffff166108fc829081150290604051600060405180830381858888f19350505050158015610e27573d6000803e3d6000fd5b508086610e349190612a15565b9550505b600360009054906101000a900473ffffffffffffffffffffffffffffffffffffffff1673ffffffffffffffffffffffffffffffffffffffff166108fc6002549081150290604051600060405180830381858888f19350505050158015610ea2573d6000803e3d6000fd5b5060025485610eb19190612a15565b9450868481518110610ec657610ec5612773565b5b60200260200101516040015173ffffffffffffffffffffffffffffffffffffffff166108fc869081150290604051600060405180830381858888f19350505050158015610f17573d6000803e3d6000fd5b50868481518110610f2b57610f2a612773565b5b60200260200101516060015186610f429190612a15565b9550868481518110610f5757610f56612773565b5b60200260200101516000015173ffffffffffffffffffffffffffffffffffffffff166342842e0e30338a8881518110610f9357610f92612773565b5b6020026020010151602001516040518463ffffffff1660e01b8152600401610fbd9392919061273c565b600060405180830381600087803b158015610fd757600080fd5b505af1158015610feb573d6000803e3d6000fd5b505050503373ffffffffffffffffffffffffffffffffffffffff1687858151811061101957611018612773565b5b60200260200101516020015188868151811061103857611037612773565b5b60200260200101516000015173ffffffffffffffffffffffffffffffffffffffff167f7ecd9705c4bad458d33cbb498a44bd1a8591b38703a9db6df94f1f390bc9bb1c8a888151811061108e5761108d612773565b5b6020026020010151606001518b89815181106110ad576110ac612773565b5b6020026020010151604001516040516110c7929190612aa8565b60405180910390a450505080806110dd90612805565b915050610b01565b503373ffffffffffffffffffffffffffffffffffffffff166108fc839081150290604051600060405180830381858888f1935050505015801561112c573d6000803e3d6000fd5b50505050505050565b60008060009054906101000a900473ffffffffffffffffffffffffffffffffffffffff16905090565b81816000600460008473ffffffffffffffffffffffffffffffffffffffff1673ffffffffffffffffffffffffffffffffffffffff16815260200190815260200160002060008381526020019081526020016000206040518060a00160405290816000820160009054906101000a900473ffffffffffffffffffffffffffffffffffffffff1673ffffffffffffffffffffffffffffffffffffffff1673ffffffffffffffffffffffffffffffffffffffff168152602001600182015481526020016002820160009054906101000a900473ffffffffffffffffffffffffffffffffffffffff1673ffffffffffffffffffffffffffffffffffffffff1673ffffffffffffffffffffffffffffffffffffffff168152602001600382015481526020016004820160009054906101000a900460ff1615151515815250509050600073ffffffffffffffffffffffffffffffffffffffff16816040015173ffffffffffffffffffffffffffffffffffffffff16141580156112dd57508060800151155b61131c576040517f08c379a00000000000000000000000000000000000000000000000000000000081526004016113139061268a565b60405180910390fd5b6000600460008773ffffffffffffffffffffffffffffffffffffffff1673ffffffffffffffffffffffffffffffffffffffff168152602001908152602001600020600086815260200190815260200160002090508060040160009054906101000a900460ff16156113c2576040517f08c379a00000000000000000000000000000000000000000000000000000000081526004016113b990612905565b60405180910390fd5b8060030154341015611409576040517f08c379a000000000000000000000000000000000000000000000000000000000815260040161140090612971565b60405180910390fd5b60018160040160006101000a81548160ff021916908315150217905550600034905060008260000160009054906101000a900473ffffffffffffffffffffffffffffffffffffffff16905060008173ffffffffffffffffffffffffffffffffffffffff166395edc18c6040518163ffffffff1660e01b8152600401602060405180830381865afa1580156114a1573d6000803e3d6000fd5b505050506040513d601f19601f820116820180604052508101906114c591906129a6565b905060008273ffffffffffffffffffffffffffffffffffffffff16634d47732a6040518163ffffffff1660e01b8152600401602060405180830381865afa158015611514573d6000803e3d6000fd5b505050506040513d601f19601f8201168201806040525081019061153891906129e8565b905060008111156115ac576000611553828760030154611843565b90508273ffffffffffffffffffffffffffffffffffffffff166108fc829081150290604051600060405180830381858888f1935050505015801561159b573d6000803e3d6000fd5b5080856115a89190612a15565b9450505b600360009054906101000a900473ffffffffffffffffffffffffffffffffffffffff1673ffffffffffffffffffffffffffffffffffffffff166108fc6002549081150290604051600060405180830381858888f19350505050158015611616573d6000803e3d6000fd5b50600254846116259190612a15565b93508460020160009054906101000a900473ffffffffffffffffffffffffffffffffffffffff1673ffffffffffffffffffffffffffffffffffffffff166108fc859081150290604051600060405180830381858888f19350505050158015611691573d6000803e3d6000fd5b508460000160009054906101000a900473ffffffffffffffffffffffffffffffffffffffff1673ffffffffffffffffffffffffffffffffffffffff166342842e0e303388600101546040518463ffffffff1660e01b81526004016116f79392919061273c565b600060405180830381600087803b15801561171157600080fd5b505af1158015611725573d6000803e3d6000fd5b505050503373ffffffffffffffffffffffffffffffffffffffff1685600101548660000160009054906101000a900473ffffffffffffffffffffffffffffffffffffffff1673ffffffffffffffffffffffffffffffffffffffff167f7ecd9705c4bad458d33cbb498a44bd1a8591b38703a9db6df94f1f390bc9bb1c88600301548960020160009054906101000a900473ffffffffffffffffffffffffffffffffffffffff166040516117d9929190612aa8565b60405180910390a450505050505050505050565b6117f5611e80565b6000811015611839576040517f08c379a000000000000000000000000000000000000000000000000000000000815260040161183090612b1d565b60405180910390fd5b8060028190555050565b600061271083836118549190612b3d565b61185e9190612bae565b905092915050565b827f000000000000000000000000000000000000000000000000000000000000000073ffffffffffffffffffffffffffffffffffffffff16632657e680826040518263ffffffff1660e01b81526004016118c0919061214b565b602060405180830381865afa1580156118dd573d6000803e3d6000fd5b505050506040513d601f19601f820116820180604052508101906119019190612c0b565b611940576040517f08c379a000000000000000000000000000000000000000000000000000000000815260040161193790612c84565b60405180910390fd5b60008490503373ffffffffffffffffffffffffffffffffffffffff168173ffffffffffffffffffffffffffffffffffffffff16636352211e866040518263ffffffff1660e01b81526004016119959190612175565b602060405180830381865afa1580156119b2573d6000803e3d6000fd5b505050506040513d601f19601f820116820180604052508101906119d691906129a6565b73ffffffffffffffffffffffffffffffffffffffff1614611a2c576040517f08c379a0000000000000000000000000000000000000000000000000000000008152600401611a2390612cf0565b60405180910390fd5b6002548311611a70576040517f08c379a0000000000000000000000000000000000000000000000000000000008152600401611a6790612d82565b60405180910390fd5b8073ffffffffffffffffffffffffffffffffffffffff166323b872dd3330876040518463ffffffff1660e01b8152600401611aad9392919061273c565b600060405180830381600087803b158015611ac757600080fd5b505af1158015611adb573d6000803e3d6000fd5b505050506040518060a001604052808673ffffffffffffffffffffffffffffffffffffffff1681526020018581526020013373ffffffffffffffffffffffffffffffffffffffff16815260200184815260200160001515815250600460008773ffffffffffffffffffffffffffffffffffffffff1673ffffffffffffffffffffffffffffffffffffffff168152602001908152602001600020600086815260200190815260200160002060008201518160000160006101000a81548173ffffffffffffffffffffffffffffffffffffffff021916908373ffffffffffffffffffffffffffffffffffffffff1602179055506020820151816001015560408201518160020160006101000a81548173ffffffffffffffffffffffffffffffffffffffff021916908373ffffffffffffffffffffffffffffffffffffffff1602179055506060820151816003015560808201518160040160006101000a81548160ff0219169083151502179055509050503373ffffffffffffffffffffffffffffffffffffffff16848673ffffffffffffffffffffffffffffffffffffffff167fe02826fc6a405c79c4564cea7d782c33deaee166adfc40d81130ddad0b72c02986604051611ca89190612175565b60405180910390a45050505050565b611cbf611fca565b600460008473ffffffffffffffffffffffffffffffffffffffff1673ffffffffffffffffffffffffffffffffffffffff16815260200190815260200160002060008381526020019081526020016000206040518060a00160405290816000820160009054906101000a900473ffffffffffffffffffffffffffffffffffffffff1673ffffffffffffffffffffffffffffffffffffffff1673ffffffffffffffffffffffffffffffffffffffff168152602001600182015481526020016002820160009054906101000a900473ffffffffffffffffffffffffffffffffffffffff1673ffffffffffffffffffffffffffffffffffffffff1673ffffffffffffffffffffffffffffffffffffffff168152602001600382015481526020016004820160009054906101000a900460ff161515151581525050905092915050565b611e05611e80565b600073ffffffffffffffffffffffffffffffffffffffff168173ffffffffffffffffffffffffffffffffffffffff1603611e74576040517f08c379a0000000000000000000000000000000000000000000000000000000008152600401611e6b90612e14565b60405180910390fd5b611e7d81611efe565b50565b611e88611fc2565b73ffffffffffffffffffffffffffffffffffffffff16611ea6611135565b73ffffffffffffffffffffffffffffffffffffffff1614611efc576040517f08c379a0000000000000000000000000000000000000000000000000000000008152600401611ef390612e80565b60405180910390fd5b565b60008060009054906101000a900473ffffffffffffffffffffffffffffffffffffffff169050816000806101000a81548173ffffffffffffffffffffffffffffffffffffffff021916908373ffffffffffffffffffffffffffffffffffffffff1602179055508173ffffffffffffffffffffffffffffffffffffffff168173ffffffffffffffffffffffffffffffffffffffff167f8be0079c531659141344cd1fd0a4f28419497f9722a3daafe3b4186f6b6457e060405160405180910390a35050565b600033905090565b6040518060a00160405280600073ffffffffffffffffffffffffffffffffffffffff16815260200160008152602001600073ffffffffffffffffffffffffffffffffffffffff168152602001600081526020016000151581525090565b6000604051905090565b600080fd5b600080fd5b600073ffffffffffffffffffffffffffffffffffffffff82169050919050565b60006120668261203b565b9050919050565b6120768161205b565b811461208157600080fd5b50565b6000813590506120938161206d565b92915050565b6000602082840312156120af576120ae612031565b5b60006120bd84828501612084565b91505092915050565b6000819050919050565b6120d9816120c6565b81146120e457600080fd5b50565b6000813590506120f6816120d0565b92915050565b6000806040838503121561211357612112612031565b5b600061212185828601612084565b9250506020612132858286016120e7565b9150509250929050565b6121458161205b565b82525050565b6000602082019050612160600083018461213c565b92915050565b61216f816120c6565b82525050565b600060208201905061218a6000830184612166565b92915050565b600080fd5b6000601f19601f8301169050919050565b7f4e487b7100000000000000000000000000000000000000000000000000000000600052604160045260246000fd5b6121de82612195565b810181811067ffffffffffffffff821117156121fd576121fc6121a6565b5b80604052505050565b6000612210612027565b905061221c82826121d5565b919050565b600067ffffffffffffffff82111561223c5761223b6121a6565b5b602082029050602081019050919050565b600080fd5b600061226561226084612221565b612206565b905080838252602082019050602084028301858111156122885761228761224d565b5b835b818110156122b1578061229d8882612084565b84526020840193505060208101905061228a565b5050509392505050565b600082601f8301126122d0576122cf612190565b5b81356122e0848260208601612252565b91505092915050565b600067ffffffffffffffff821115612304576123036121a6565b5b602082029050602081019050919050565b6000612328612323846122e9565b612206565b9050808382526020820190506020840283018581111561234b5761234a61224d565b5b835b81811015612374578061236088826120e7565b84526020840193505060208101905061234d565b5050509392505050565b600082601f83011261239357612392612190565b5b81356123a3848260208601612315565b91505092915050565b600080604083850312156123c3576123c2612031565b5b600083013567ffffffffffffffff8111156123e1576123e0612036565b5b6123ed858286016122bb565b925050602083013567ffffffffffffffff81111561240e5761240d612036565b5b61241a8582860161237e565b9150509250929050565b60006020828403121561243a57612439612031565b5b6000612448848285016120e7565b91505092915050565b6000806040838503121561246857612467612031565b5b6000612476858286016120e7565b9250506020612487858286016120e7565b9150509250929050565b6000806000606084860312156124aa576124a9612031565b5b60006124b886828701612084565b93505060206124c9868287016120e7565b92505060406124da868287016120e7565b9150509250925092565b6124ed8161205b565b82525050565b6124fc816120c6565b82525050565b600061250d8261203b565b9050919050565b61251d81612502565b82525050565b60008115159050919050565b61253881612523565b82525050565b60a08201600082015161255460008501826124e4565b50602082015161256760208501826124f3565b50604082015161257a6040850182612514565b50606082015161258d60608501826124f3565b5060808201516125a0608085018261252f565b50505050565b600060a0820190506125bb600083018461253e565b92915050565b600082825260208201905092915050565b7f63616e2774206265203020616464726573730000000000000000000000000000600082015250565b60006126086012836125c1565b9150612613826125d2565b602082019050919050565b60006020820190508181036000830152612637816125fb565b9050919050565b7f6e6f74206c697374656400000000000000000000000000000000000000000000600082015250565b6000612674600a836125c1565b915061267f8261263e565b602082019050919050565b600060208201905081810360008301526126a381612667565b9050919050565b7f4f6e6c79206f726967696e616c206f776e65722063616e2063616e63656c206c60008201527f697374696e670000000000000000000000000000000000000000000000000000602082015250565b60006127066026836125c1565b9150612711826126aa565b604082019050919050565b60006020820190508181036000830152612735816126f9565b9050919050565b6000606082019050612751600083018661213c565b61275e602083018561213c565b61276b6040830184612166565b949350505050565b7f4e487b7100000000000000000000000000000000000000000000000000000000600052603260045260246000fd5b7f4e487b7100000000000000000000000000000000000000000000000000000000600052601160045260246000fd5b60006127dc826120c6565b91506127e7836120c6565b92508282019050808211156127ff576127fe6127a2565b5b92915050565b6000612810826120c6565b91507fffffffffffffffffffffffffffffffffffffffffffffffffffffffffffffffff8203612842576128416127a2565b5b600182019050919050565b7f496e73756666696369656e742065746865722070726f76696465640000000000600082015250565b6000612883601b836125c1565b915061288e8261284d565b602082019050919050565b600060208201905081810360008301526128b281612876565b9050919050565b7f6e667420616c726561647920736f6c6400000000000000000000000000000000600082015250565b60006128ef6010836125c1565b91506128fa826128b9565b602082019050919050565b6000602082019050818103600083015261291e816128e2565b9050919050565b7f496e73756666696369656e74207061796d656e74000000000000000000000000600082015250565b600061295b6014836125c1565b915061296682612925565b602082019050919050565b6000602082019050818103600083015261298a8161294e565b9050919050565b6000815190506129a08161206d565b92915050565b6000602082840312156129bc576129bb612031565b5b60006129ca84828501612991565b91505092915050565b6000815190506129e2816120d0565b92915050565b6000602082840312156129fe576129fd612031565b5b6000612a0c848285016129d3565b91505092915050565b6000612a20826120c6565b9150612a2b836120c6565b9250828203905081811115612a4357612a426127a2565b5b92915050565b6000819050919050565b6000612a6e612a69612a648461203b565b612a49565b61203b565b9050919050565b6000612a8082612a53565b9050919050565b6000612a9282612a75565b9050919050565b612aa281612a87565b82525050565b6000604082019050612abd6000830185612166565b612aca6020830184612a99565b9392505050565b7f43616e6e6f74206265206e656761746976650000000000000000000000000000600082015250565b6000612b076012836125c1565b9150612b1282612ad1565b602082019050919050565b60006020820190508181036000830152612b3681612afa565b9050919050565b6000612b48826120c6565b9150612b53836120c6565b9250828202612b61816120c6565b91508282048414831517612b7857612b776127a2565b5b5092915050565b7f4e487b7100000000000000000000000000000000000000000000000000000000600052601260045260246000fd5b6000612bb9826120c6565b9150612bc4836120c6565b925082612bd457612bd3612b7f565b5b828204905092915050565b612be881612523565b8114612bf357600080fd5b50565b600081519050612c0581612bdf565b92915050565b600060208284031215612c2157612c20612031565b5b6000612c2f84828501612bf6565b91505092915050565b7f6e6f7420456c797369756d204e46540000000000000000000000000000000000600082015250565b6000612c6e600f836125c1565b9150612c7982612c38565b602082019050919050565b60006020820190508181036000830152612c9d81612c61565b9050919050565b7f6e6f74206e6674206f776e657200000000000000000000000000000000000000600082015250565b6000612cda600d836125c1565b9150612ce582612ca4565b602082019050919050565b60006020820190508181036000830152612d0981612ccd565b9050919050565b7f7072696365206d7573742062652067726561746572207468616e20706c61746660008201527f6f726d2066656500000000000000000000000000000000000000000000000000602082015250565b6000612d6c6027836125c1565b9150612d7782612d10565b604082019050919050565b60006020820190508181036000830152612d9b81612d5f565b9050919050565b7f4f776e61626c653a206e6577206f776e657220697320746865207a65726f206160008201527f6464726573730000000000000000000000000000000000000000000000000000602082015250565b6000612dfe6026836125c1565b9150612e0982612da2565b604082019050919050565b60006020820190508181036000830152612e2d81612df1565b9050919050565b7f4f776e61626c653a2063616c6c6572206973206e6f7420746865206f776e6572600082015250565b6000612e6a6020836125c1565b9150612e7582612e34565b602082019050919050565b60006020820190508181036000830152612e9981612e5d565b905091905056fea264697066735822122002f936c3055a2cd31dceb52dc6d8f6a80615ea560f030121d36e463b8209ac3f64736f6c63430008110033",
  "linkReferences": {},
  "deployedLinkReferences": {}
}