{
  "_format": "hh-sol-artifact-1",
  "contractName": "ElysiumNFTMarketplace",
  "sourceName": "contracts/ElysiumNFTMarketplace.sol",
  "abi": [
    {
      "inputs": [
        {
          "internalType": "uint256",
          "name": "_platformFee",
          "type": "uint256"
        },
        {
          "internalType": "contract elysiumNFTFactoryInterface",
          "name": "_elysiumNFTFactory",
          "type": "address"
        }
      ],
      "stateMutability": "nonpayable",
      "type": "constructor"
    },
    {
      "anonymous": false,
      "inputs": [
        {
          "indexed": true,
          "internalType": "address",
          "name": "nft",
          "type": "address"
        },
        {
          "indexed": true,
          "internalType": "uint256",
          "name": "tokenId",
          "type": "uint256"
        },
        {
          "indexed": false,
          "internalType": "uint256",
          "name": "price",
          "type": "uint256"
        },
        {
          "indexed": false,
          "internalType": "address",
          "name": "seller",
          "type": "address"
        },
        {
          "indexed": true,
          "internalType": "address",
          "name": "buyer",
          "type": "address"
        }
      ],
      "name": "BoughtNFT",
      "type": "event"
    },
    {
      "anonymous": false,
      "inputs": [
        {
          "indexed": true,
          "internalType": "address",
          "name": "nft",
          "type": "address"
        },
        {
          "indexed": true,
          "internalType": "uint256",
          "name": "tokenId",
          "type": "uint256"
        },
        {
          "indexed": false,
          "internalType": "uint256",
          "name": "price",
          "type": "uint256"
        },
        {
          "indexed": true,
          "internalType": "address",
          "name": "seller",
          "type": "address"
        }
      ],
      "name": "ListedNFT",
      "type": "event"
    },
    {
      "anonymous": false,
      "inputs": [
        {
          "indexed": true,
          "internalType": "address",
          "name": "previousOwner",
          "type": "address"
        },
        {
          "indexed": true,
          "internalType": "address",
          "name": "newOwner",
          "type": "address"
        }
      ],
      "name": "OwnershipTransferred",
      "type": "event"
    },
    {
      "inputs": [
        {
          "internalType": "address",
          "name": "_nft",
          "type": "address"
        },
        {
          "internalType": "uint256",
          "name": "_tokenId",
          "type": "uint256"
        },
        {
          "internalType": "uint256",
          "name": "_price",
          "type": "uint256"
        }
      ],
      "name": "buyNFT",
      "outputs": [],
      "stateMutability": "payable",
      "type": "function"
    },
    {
      "inputs": [
        {
          "internalType": "uint256",
          "name": "_price",
          "type": "uint256"
        }
      ],
      "name": "calculatePlatformFee",
      "outputs": [
        {
          "internalType": "uint256",
          "name": "",
          "type": "uint256"
        }
      ],
      "stateMutability": "view",
      "type": "function"
    },
    {
      "inputs": [
        {
          "internalType": "uint256",
          "name": "_royalty",
          "type": "uint256"
        },
        {
          "internalType": "uint256",
          "name": "_price",
          "type": "uint256"
        }
      ],
      "name": "calculateRoyalty",
      "outputs": [
        {
          "internalType": "uint256",
          "name": "",
          "type": "uint256"
        }
      ],
      "stateMutability": "pure",
      "type": "function"
    },
    {
      "inputs": [
        {
          "internalType": "address",
          "name": "_nft",
          "type": "address"
        },
        {
          "internalType": "uint256",
          "name": "_tokenId",
          "type": "uint256"
        }
      ],
      "name": "cancelListNFT",
      "outputs": [],
      "stateMutability": "nonpayable",
      "type": "function"
    },
    {
      "inputs": [
        {
          "internalType": "address",
          "name": "_feeRecipient",
          "type": "address"
        }
      ],
      "name": "changeFeeRecipient",
      "outputs": [],
      "stateMutability": "nonpayable",
      "type": "function"
    },
    {
      "inputs": [
        {
          "internalType": "address",
          "name": "_nft",
          "type": "address"
        },
        {
          "internalType": "uint256",
          "name": "_tokenId",
          "type": "uint256"
        }
      ],
      "name": "getListedNFT",
      "outputs": [
        {
          "components": [
            {
              "internalType": "address",
              "name": "nft",
              "type": "address"
            },
            {
              "internalType": "uint256",
              "name": "tokenId",
              "type": "uint256"
            },
            {
              "internalType": "address",
              "name": "seller",
              "type": "address"
            },
            {
              "internalType": "uint256",
              "name": "price",
              "type": "uint256"
            },
            {
              "internalType": "bool",
              "name": "sold",
              "type": "bool"
            }
          ],
          "internalType": "struct ElysiumNFTMarketplace.ListNFT",
          "name": "",
          "type": "tuple"
        }
      ],
      "stateMutability": "view",
      "type": "function"
    },
    {
      "inputs": [
        {
          "internalType": "address",
          "name": "_nft",
          "type": "address"
        },
        {
          "internalType": "uint256",
          "name": "_tokenId",
          "type": "uint256"
        },
        {
          "internalType": "uint256",
          "name": "_price",
          "type": "uint256"
        }
      ],
      "name": "listNft",
      "outputs": [],
      "stateMutability": "nonpayable",
      "type": "function"
    },
    {
      "inputs": [],
      "name": "owner",
      "outputs": [
        {
          "internalType": "address",
          "name": "",
          "type": "address"
        }
      ],
      "stateMutability": "view",
      "type": "function"
    },
    {
      "inputs": [],
      "name": "renounceOwnership",
      "outputs": [],
      "stateMutability": "nonpayable",
      "type": "function"
    },
    {
      "inputs": [
        {
          "internalType": "address",
          "name": "newOwner",
          "type": "address"
        }
      ],
      "name": "transferOwnership",
      "outputs": [],
      "stateMutability": "nonpayable",
      "type": "function"
    },
    {
      "inputs": [
        {
          "internalType": "uint256",
          "name": "_platformFee",
          "type": "uint256"
        }
      ],
      "name": "updatePlatformFee",
      "outputs": [],
      "stateMutability": "nonpayable",
      "type": "function"
    }
  ],
  "bytecode": "0x60a06040523480156200001157600080fd5b506040516200235538038062002355833981810160405281019062000037919062000267565b620000576200004b620000e260201b60201c565b620000ea60201b60201c565b600180819055508160028190555033600360006101000a81548173ffffffffffffffffffffffffffffffffffffffff021916908373ffffffffffffffffffffffffffffffffffffffff1602179055508073ffffffffffffffffffffffffffffffffffffffff1660808173ffffffffffffffffffffffffffffffffffffffff16815250505050620002ae565b600033905090565b60008060009054906101000a900473ffffffffffffffffffffffffffffffffffffffff169050816000806101000a81548173ffffffffffffffffffffffffffffffffffffffff021916908373ffffffffffffffffffffffffffffffffffffffff1602179055508173ffffffffffffffffffffffffffffffffffffffff168173ffffffffffffffffffffffffffffffffffffffff167f8be0079c531659141344cd1fd0a4f28419497f9722a3daafe3b4186f6b6457e060405160405180910390a35050565b600080fd5b6000819050919050565b620001c881620001b3565b8114620001d457600080fd5b50565b600081519050620001e881620001bd565b92915050565b600073ffffffffffffffffffffffffffffffffffffffff82169050919050565b60006200021b82620001ee565b9050919050565b60006200022f826200020e565b9050919050565b620002418162000222565b81146200024d57600080fd5b50565b600081519050620002618162000236565b92915050565b60008060408385031215620002815762000280620001ae565b5b60006200029185828601620001d7565b9250506020620002a48582860162000250565b9150509250929050565b60805161208b620002ca6000396000610f54015261208b6000f3fe60806040526004361061009c5760003560e01c80638da5cb5b116100645780638da5cb5b14610163578063aa0b59881461018e578063b0708a35146101b7578063c922b17c146101f4578063dc3c3dfd1461021d578063f2fde38b1461025a5761009c565b80630cbab4f7146100a157806323604071146100de57806335a8a0491461010757806353da6f0114610130578063715018a61461014c575b600080fd5b3480156100ad57600080fd5b506100c860048036038101906100c39190611709565b610283565b6040516100d59190611745565b60405180910390f35b3480156100ea57600080fd5b50610105600480360381019061010091906117be565b6102a7565b005b34801561011357600080fd5b5061012e600480360381019061012991906117eb565b610362565b005b61014a6004803603810190610145919061182b565b610808565b005b34801561015857600080fd5b50610161610e9a565b005b34801561016f57600080fd5b50610178610eae565b604051610185919061188d565b60405180910390f35b34801561019a57600080fd5b506101b560048036038101906101b09190611709565b610ed7565b005b3480156101c357600080fd5b506101de60048036038101906101d991906118a8565b610f2e565b6040516101eb9190611745565b60405180910390f35b34801561020057600080fd5b5061021b6004803603810190610216919061182b565b610f51565b005b34801561022957600080fd5b50610244600480360381019061023f91906117eb565b61135e565b6040516102519190611989565b60405180910390f35b34801561026657600080fd5b50610281600480360381019061027c91906117be565b6114a4565b005b60006127106002548361029691906119d3565b6102a09190611a44565b9050919050565b6102af611527565b600073ffffffffffffffffffffffffffffffffffffffff168173ffffffffffffffffffffffffffffffffffffffff160361031e576040517f08c379a000000000000000000000000000000000000000000000000000000000815260040161031590611ad2565b60405180910390fd5b80600360006101000a81548173ffffffffffffffffffffffffffffffffffffffff021916908373ffffffffffffffffffffffffffffffffffffffff16021790555050565b81816000600460008473ffffffffffffffffffffffffffffffffffffffff1673ffffffffffffffffffffffffffffffffffffffff16815260200190815260200160002060008381526020019081526020016000206040518060a00160405290816000820160009054906101000a900473ffffffffffffffffffffffffffffffffffffffff1673ffffffffffffffffffffffffffffffffffffffff1673ffffffffffffffffffffffffffffffffffffffff168152602001600182015481526020016002820160009054906101000a900473ffffffffffffffffffffffffffffffffffffffff1673ffffffffffffffffffffffffffffffffffffffff1673ffffffffffffffffffffffffffffffffffffffff168152602001600382015481526020016004820160009054906101000a900460ff1615151515815250509050600073ffffffffffffffffffffffffffffffffffffffff16816040015173ffffffffffffffffffffffffffffffffffffffff16141580156104e157508060800151155b610520576040517f08c379a000000000000000000000000000000000000000000000000000000000815260040161051790611b3e565b60405180910390fd5b6000600460008773ffffffffffffffffffffffffffffffffffffffff1673ffffffffffffffffffffffffffffffffffffffff16815260200190815260200160002060008681526020019081526020016000206040518060a00160405290816000820160009054906101000a900473ffffffffffffffffffffffffffffffffffffffff1673ffffffffffffffffffffffffffffffffffffffff1673ffffffffffffffffffffffffffffffffffffffff168152602001600182015481526020016002820160009054906101000a900473ffffffffffffffffffffffffffffffffffffffff1673ffffffffffffffffffffffffffffffffffffffff1673ffffffffffffffffffffffffffffffffffffffff168152602001600382015481526020016004820160009054906101000a900460ff16151515158152505090503373ffffffffffffffffffffffffffffffffffffffff16816040015173ffffffffffffffffffffffffffffffffffffffff16146106cc576040517f08c379a00000000000000000000000000000000000000000000000000000000081526004016106c390611baa565b60405180910390fd5b8573ffffffffffffffffffffffffffffffffffffffff166323b872dd3033886040518463ffffffff1660e01b815260040161070993929190611bca565b600060405180830381600087803b15801561072357600080fd5b505af1158015610737573d6000803e3d6000fd5b50505050600460008773ffffffffffffffffffffffffffffffffffffffff1673ffffffffffffffffffffffffffffffffffffffff1681526020019081526020016000206000868152602001908152602001600020600080820160006101000a81549073ffffffffffffffffffffffffffffffffffffffff021916905560018201600090556002820160006101000a81549073ffffffffffffffffffffffffffffffffffffffff021916905560038201600090556004820160006101000a81549060ff02191690555050505050505050565b82826000600460008473ffffffffffffffffffffffffffffffffffffffff1673ffffffffffffffffffffffffffffffffffffffff16815260200190815260200160002060008381526020019081526020016000206040518060a00160405290816000820160009054906101000a900473ffffffffffffffffffffffffffffffffffffffff1673ffffffffffffffffffffffffffffffffffffffff1673ffffffffffffffffffffffffffffffffffffffff168152602001600182015481526020016002820160009054906101000a900473ffffffffffffffffffffffffffffffffffffffff1673ffffffffffffffffffffffffffffffffffffffff1673ffffffffffffffffffffffffffffffffffffffff168152602001600382015481526020016004820160009054906101000a900460ff1615151515815250509050600073ffffffffffffffffffffffffffffffffffffffff16816040015173ffffffffffffffffffffffffffffffffffffffff161415801561098757508060800151155b6109c6576040517f08c379a00000000000000000000000000000000000000000000000000000000081526004016109bd90611b3e565b60405180910390fd5b6000600460008873ffffffffffffffffffffffffffffffffffffffff1673ffffffffffffffffffffffffffffffffffffffff168152602001908152602001600020600087815260200190815260200160002090508060040160009054906101000a900460ff1615610a6c576040517f08c379a0000000000000000000000000000000000000000000000000000000008152600401610a6390611c4d565b60405180910390fd5b8060030154341015610ab3576040517f08c379a0000000000000000000000000000000000000000000000000000000008152600401610aaa90611cb9565b60405180910390fd5b60018160040160006101000a81548160ff021916908315150217905550600034905060008260000160009054906101000a900473ffffffffffffffffffffffffffffffffffffffff16905060008173ffffffffffffffffffffffffffffffffffffffff166395edc18c6040518163ffffffff1660e01b8152600401602060405180830381865afa158015610b4b573d6000803e3d6000fd5b505050506040513d601f19601f82011682018060405250810190610b6f9190611cee565b905060008273ffffffffffffffffffffffffffffffffffffffff1663820bdcdc6040518163ffffffff1660e01b8152600401602060405180830381865afa158015610bbe573d6000803e3d6000fd5b505050506040513d601f19601f82011682018060405250810190610be29190611d30565b90506000811115610c52576000610bf9828b610f2e565b90508273ffffffffffffffffffffffffffffffffffffffff166108fc829081150290604051600060405180830381858888f19350505050158015610c41573d6000803e3d6000fd5b508085610c4e9190611d5d565b9450505b6000610c5d8a610283565b9050600360009054906101000a900473ffffffffffffffffffffffffffffffffffffffff1673ffffffffffffffffffffffffffffffffffffffff166108fc829081150290604051600060405180830381858888f19350505050158015610cc7573d6000803e3d6000fd5b508085610cd49190611d5d565b94508560020160009054906101000a900473ffffffffffffffffffffffffffffffffffffffff1673ffffffffffffffffffffffffffffffffffffffff166108fc869081150290604051600060405180830381858888f19350505050158015610d40573d6000803e3d6000fd5b508560000160009054906101000a900473ffffffffffffffffffffffffffffffffffffffff1673ffffffffffffffffffffffffffffffffffffffff166342842e0e303389600101546040518463ffffffff1660e01b8152600401610da693929190611bca565b600060405180830381600087803b158015610dc057600080fd5b505af1158015610dd4573d6000803e3d6000fd5b505050503373ffffffffffffffffffffffffffffffffffffffff1686600101548760000160009054906101000a900473ffffffffffffffffffffffffffffffffffffffff1673ffffffffffffffffffffffffffffffffffffffff167f7ecd9705c4bad458d33cbb498a44bd1a8591b38703a9db6df94f1f390bc9bb1c8d8a60020160009054906101000a900473ffffffffffffffffffffffffffffffffffffffff16604051610e84929190611d91565b60405180910390a4505050505050505050505050565b610ea2611527565b610eac60006115a5565b565b60008060009054906101000a900473ffffffffffffffffffffffffffffffffffffffff16905090565b610edf611527565b612710811115610f24576040517f08c379a0000000000000000000000000000000000000000000000000000000008152600401610f1b90611e06565b60405180910390fd5b8060028190555050565b60006127108383610f3f91906119d3565b610f499190611a44565b905092915050565b827f000000000000000000000000000000000000000000000000000000000000000073ffffffffffffffffffffffffffffffffffffffff16632657e680826040518263ffffffff1660e01b8152600401610fab919061188d565b602060405180830381865afa158015610fc8573d6000803e3d6000fd5b505050506040513d601f19601f82011682018060405250810190610fec9190611e52565b61102b576040517f08c379a000000000000000000000000000000000000000000000000000000000815260040161102290611ecb565b60405180910390fd5b60008490503373ffffffffffffffffffffffffffffffffffffffff168173ffffffffffffffffffffffffffffffffffffffff16636352211e866040518263ffffffff1660e01b81526004016110809190611745565b602060405180830381865afa15801561109d573d6000803e3d6000fd5b505050506040513d601f19601f820116820180604052508101906110c19190611cee565b73ffffffffffffffffffffffffffffffffffffffff1614611117576040517f08c379a000000000000000000000000000000000000000000000000000000000815260040161110e90611f37565b60405180910390fd5b8073ffffffffffffffffffffffffffffffffffffffff166323b872dd3330876040518463ffffffff1660e01b815260040161115493929190611bca565b600060405180830381600087803b15801561116e57600080fd5b505af1158015611182573d6000803e3d6000fd5b505050506040518060a001604052808673ffffffffffffffffffffffffffffffffffffffff1681526020018581526020013373ffffffffffffffffffffffffffffffffffffffff16815260200184815260200160001515815250600460008773ffffffffffffffffffffffffffffffffffffffff1673ffffffffffffffffffffffffffffffffffffffff168152602001908152602001600020600086815260200190815260200160002060008201518160000160006101000a81548173ffffffffffffffffffffffffffffffffffffffff021916908373ffffffffffffffffffffffffffffffffffffffff1602179055506020820151816001015560408201518160020160006101000a81548173ffffffffffffffffffffffffffffffffffffffff021916908373ffffffffffffffffffffffffffffffffffffffff1602179055506060820151816003015560808201518160040160006101000a81548160ff0219169083151502179055509050503373ffffffffffffffffffffffffffffffffffffffff16848673ffffffffffffffffffffffffffffffffffffffff167fe02826fc6a405c79c4564cea7d782c33deaee166adfc40d81130ddad0b72c0298660405161134f9190611745565b60405180910390a45050505050565b611366611671565b600460008473ffffffffffffffffffffffffffffffffffffffff1673ffffffffffffffffffffffffffffffffffffffff16815260200190815260200160002060008381526020019081526020016000206040518060a00160405290816000820160009054906101000a900473ffffffffffffffffffffffffffffffffffffffff1673ffffffffffffffffffffffffffffffffffffffff1673ffffffffffffffffffffffffffffffffffffffff168152602001600182015481526020016002820160009054906101000a900473ffffffffffffffffffffffffffffffffffffffff1673ffffffffffffffffffffffffffffffffffffffff1673ffffffffffffffffffffffffffffffffffffffff168152602001600382015481526020016004820160009054906101000a900460ff161515151581525050905092915050565b6114ac611527565b600073ffffffffffffffffffffffffffffffffffffffff168173ffffffffffffffffffffffffffffffffffffffff160361151b576040517f08c379a000000000000000000000000000000000000000000000000000000000815260040161151290611fc9565b60405180910390fd5b611524816115a5565b50565b61152f611669565b73ffffffffffffffffffffffffffffffffffffffff1661154d610eae565b73ffffffffffffffffffffffffffffffffffffffff16146115a3576040517f08c379a000000000000000000000000000000000000000000000000000000000815260040161159a90612035565b60405180910390fd5b565b60008060009054906101000a900473ffffffffffffffffffffffffffffffffffffffff169050816000806101000a81548173ffffffffffffffffffffffffffffffffffffffff021916908373ffffffffffffffffffffffffffffffffffffffff1602179055508173ffffffffffffffffffffffffffffffffffffffff168173ffffffffffffffffffffffffffffffffffffffff167f8be0079c531659141344cd1fd0a4f28419497f9722a3daafe3b4186f6b6457e060405160405180910390a35050565b600033905090565b6040518060a00160405280600073ffffffffffffffffffffffffffffffffffffffff16815260200160008152602001600073ffffffffffffffffffffffffffffffffffffffff168152602001600081526020016000151581525090565b600080fd5b6000819050919050565b6116e6816116d3565b81146116f157600080fd5b50565b600081359050611703816116dd565b92915050565b60006020828403121561171f5761171e6116ce565b5b600061172d848285016116f4565b91505092915050565b61173f816116d3565b82525050565b600060208201905061175a6000830184611736565b92915050565b600073ffffffffffffffffffffffffffffffffffffffff82169050919050565b600061178b82611760565b9050919050565b61179b81611780565b81146117a657600080fd5b50565b6000813590506117b881611792565b92915050565b6000602082840312156117d4576117d36116ce565b5b60006117e2848285016117a9565b91505092915050565b60008060408385031215611802576118016116ce565b5b6000611810858286016117a9565b9250506020611821858286016116f4565b9150509250929050565b600080600060608486031215611844576118436116ce565b5b6000611852868287016117a9565b9350506020611863868287016116f4565b9250506040611874868287016116f4565b9150509250925092565b61188781611780565b82525050565b60006020820190506118a2600083018461187e565b92915050565b600080604083850312156118bf576118be6116ce565b5b60006118cd858286016116f4565b92505060206118de858286016116f4565b9150509250929050565b6118f181611780565b82525050565b611900816116d3565b82525050565b60008115159050919050565b61191b81611906565b82525050565b60a08201600082015161193760008501826118e8565b50602082015161194a60208501826118f7565b50604082015161195d60408501826118e8565b50606082015161197060608501826118f7565b5060808201516119836080850182611912565b50505050565b600060a08201905061199e6000830184611921565b92915050565b7f4e487b7100000000000000000000000000000000000000000000000000000000600052601160045260246000fd5b60006119de826116d3565b91506119e9836116d3565b92508282026119f7816116d3565b91508282048414831517611a0e57611a0d6119a4565b5b5092915050565b7f4e487b7100000000000000000000000000000000000000000000000000000000600052601260045260246000fd5b6000611a4f826116d3565b9150611a5a836116d3565b925082611a6a57611a69611a15565b5b828204905092915050565b600082825260208201905092915050565b7f63616e2774206265203020616464726573730000000000000000000000000000600082015250565b6000611abc601283611a75565b9150611ac782611a86565b602082019050919050565b60006020820190508181036000830152611aeb81611aaf565b9050919050565b7f6e6f74206c697374656400000000000000000000000000000000000000000000600082015250565b6000611b28600a83611a75565b9150611b3382611af2565b602082019050919050565b60006020820190508181036000830152611b5781611b1b565b9050919050565b7f6e6f74206c6973746564206f776e657200000000000000000000000000000000600082015250565b6000611b94601083611a75565b9150611b9f82611b5e565b602082019050919050565b60006020820190508181036000830152611bc381611b87565b9050919050565b6000606082019050611bdf600083018661187e565b611bec602083018561187e565b611bf96040830184611736565b949350505050565b7f6e667420616c726561647920736f6c6400000000000000000000000000000000600082015250565b6000611c37601083611a75565b9150611c4282611c01565b602082019050919050565b60006020820190508181036000830152611c6681611c2a565b9050919050565b7f496e73756666696369656e74207061796d656e74000000000000000000000000600082015250565b6000611ca3601483611a75565b9150611cae82611c6d565b602082019050919050565b60006020820190508181036000830152611cd281611c96565b9050919050565b600081519050611ce881611792565b92915050565b600060208284031215611d0457611d036116ce565b5b6000611d1284828501611cd9565b91505092915050565b600081519050611d2a816116dd565b92915050565b600060208284031215611d4657611d456116ce565b5b6000611d5484828501611d1b565b91505092915050565b6000611d68826116d3565b9150611d73836116d3565b9250828203905081811115611d8b57611d8a6119a4565b5b92915050565b6000604082019050611da66000830185611736565b611db3602083018461187e565b9392505050565b7f63616e2774206d6f7265207468616e2031302070657263656e74000000000000600082015250565b6000611df0601a83611a75565b9150611dfb82611dba565b602082019050919050565b60006020820190508181036000830152611e1f81611de3565b9050919050565b611e2f81611906565b8114611e3a57600080fd5b50565b600081519050611e4c81611e26565b92915050565b600060208284031215611e6857611e676116ce565b5b6000611e7684828501611e3d565b91505092915050565b7f6e6f7420456c797369756d204e46540000000000000000000000000000000000600082015250565b6000611eb5600f83611a75565b9150611ec082611e7f565b602082019050919050565b60006020820190508181036000830152611ee481611ea8565b9050919050565b7f6e6f74206e6674206f776e657200000000000000000000000000000000000000600082015250565b6000611f21600d83611a75565b9150611f2c82611eeb565b602082019050919050565b60006020820190508181036000830152611f5081611f14565b9050919050565b7f4f776e61626c653a206e6577206f776e657220697320746865207a65726f206160008201527f6464726573730000000000000000000000000000000000000000000000000000602082015250565b6000611fb3602683611a75565b9150611fbe82611f57565b604082019050919050565b60006020820190508181036000830152611fe281611fa6565b9050919050565b7f4f776e61626c653a2063616c6c6572206973206e6f7420746865206f776e6572600082015250565b600061201f602083611a75565b915061202a82611fe9565b602082019050919050565b6000602082019050818103600083015261204e81612012565b905091905056fea2646970667358221220c0a6352b1d726c6746e5dd3e235390f1c5a140d997cdb4ad52751f8267a1210764736f6c63430008110033",
  "linkReferences": {},
  "deployedLinkReferences": {}
}