{
  "_format": "hh-sol-artifact-1",
  "contractName": "ElysiumNFTFactory",
  "sourceName": "contracts/ElysiumNFTFactory.sol",
  "abi": [
    {
      "anonymous": false,
      "inputs": [
        {
          "indexed": false,
          "internalType": "address",
          "name": "creator",
          "type": "address"
        },
        {
          "indexed": false,
          "internalType": "address",
          "name": "nft",
          "type": "address"
        },
        {
          "indexed": false,
          "internalType": "string",
          "name": "name",
          "type": "string"
        },
        {
          "indexed": false,
          "internalType": "string",
          "name": "symbol",
          "type": "string"
        }
      ],
      "name": "CreatedNFTCollection",
      "type": "event"
    },
    {
      "inputs": [
        {
          "internalType": "string",
          "name": "_name",
          "type": "string"
        },
        {
          "internalType": "string",
          "name": "_symbol",
          "type": "string"
        },
        {
          "internalType": "uint256",
          "name": "_royaltyFee",
          "type": "uint256"
        },
        {
          "internalType": "address",
          "name": "_royaltyRecipient",
          "type": "address"
        }
      ],
      "name": "createNFTCollection",
      "outputs": [],
      "stateMutability": "nonpayable",
      "type": "function"
    },
    {
      "inputs": [],
      "name": "getOwnCollections",
      "outputs": [
        {
          "internalType": "address[]",
          "name": "",
          "type": "address[]"
        }
      ],
      "stateMutability": "view",
      "type": "function"
    },
    {
      "inputs": [
        {
          "internalType": "address",
          "name": "_nft",
          "type": "address"
        }
      ],
      "name": "isElysiumNFT",
      "outputs": [
        {
          "internalType": "bool",
          "name": "",
          "type": "bool"
        }
      ],
      "stateMutability": "view",
      "type": "function"
    }
  ],
  "bytecode": "0x608060405234801561001057600080fd5b50614fe1806100206000396000f3fe60806040523480156200001157600080fd5b5060043610620000465760003560e01c80632657e680146200004b5780637a3c7a2c1462000081578063cdbe0fc314620000a1575b600080fd5b620000696004803603810190620000639190620003ed565b620000c3565b6040516200007891906200043c565b60405180910390f35b6200009f6004803603810190620000999190620005f6565b62000119565b005b620000ab6200029a565b604051620000ba919062000774565b60405180910390f35b6000600160008373ffffffffffffffffffffffffffffffffffffffff1673ffffffffffffffffffffffffffffffffffffffff16815260200190815260200160002060009054906101000a900460ff169050919050565b600084843385856040516200012e9062000366565b6200013e95949392919062000843565b604051809103906000f0801580156200015b573d6000803e3d6000fd5b5090506000803373ffffffffffffffffffffffffffffffffffffffff1673ffffffffffffffffffffffffffffffffffffffff168152602001908152602001600020819080600181540180825580915050600190039060005260206000200160009091909190916101000a81548173ffffffffffffffffffffffffffffffffffffffff021916908373ffffffffffffffffffffffffffffffffffffffff16021790555060018060008373ffffffffffffffffffffffffffffffffffffffff1673ffffffffffffffffffffffffffffffffffffffff16815260200190815260200160002060006101000a81548160ff0219169083151502179055507f63769cea406878ef0dbb67fc60c62a7c20747798c2703734c451fa2e8381ef24338287876040516200028b9493929190620008ae565b60405180910390a15050505050565b60606000803373ffffffffffffffffffffffffffffffffffffffff1673ffffffffffffffffffffffffffffffffffffffff1681526020019081526020016000208054806020026020016040519081016040528092919081815260200182805480156200035c57602002820191906000526020600020905b8160009054906101000a900473ffffffffffffffffffffffffffffffffffffffff1673ffffffffffffffffffffffffffffffffffffffff168152602001906001019080831162000311575b5050505050905090565b6146a2806200090a83390190565b6000604051905090565b600080fd5b600080fd5b600073ffffffffffffffffffffffffffffffffffffffff82169050919050565b6000620003b58262000388565b9050919050565b620003c781620003a8565b8114620003d357600080fd5b50565b600081359050620003e781620003bc565b92915050565b6000602082840312156200040657620004056200037e565b5b60006200041684828501620003d6565b91505092915050565b60008115159050919050565b62000436816200041f565b82525050565b60006020820190506200045360008301846200042b565b92915050565b600080fd5b600080fd5b6000601f19601f8301169050919050565b7f4e487b7100000000000000000000000000000000000000000000000000000000600052604160045260246000fd5b620004ae8262000463565b810181811067ffffffffffffffff82111715620004d057620004cf62000474565b5b80604052505050565b6000620004e562000374565b9050620004f38282620004a3565b919050565b600067ffffffffffffffff82111562000516576200051562000474565b5b620005218262000463565b9050602081019050919050565b82818337600083830152505050565b6000620005546200054e84620004f8565b620004d9565b9050828152602081018484840111156200057357620005726200045e565b5b620005808482856200052e565b509392505050565b600082601f830112620005a0576200059f62000459565b5b8135620005b28482602086016200053d565b91505092915050565b6000819050919050565b620005d081620005bb565b8114620005dc57600080fd5b50565b600081359050620005f081620005c5565b92915050565b600080600080608085870312156200061357620006126200037e565b5b600085013567ffffffffffffffff81111562000634576200063362000383565b5b620006428782880162000588565b945050602085013567ffffffffffffffff81111562000666576200066562000383565b5b620006748782880162000588565b93505060406200068787828801620005df565b92505060606200069a87828801620003d6565b91505092959194509250565b600081519050919050565b600082825260208201905092915050565b6000819050602082019050919050565b620006dd81620003a8565b82525050565b6000620006f18383620006d2565b60208301905092915050565b6000602082019050919050565b60006200071782620006a6565b620007238185620006b1565b93506200073083620006c2565b8060005b83811015620007675781516200074b8882620006e3565b97506200075883620006fd565b92505060018101905062000734565b5085935050505092915050565b600060208201905081810360008301526200079081846200070a565b905092915050565b600081519050919050565b600082825260208201905092915050565b60005b83811015620007d4578082015181840152602081019050620007b7565b60008484015250505050565b6000620007ed8262000798565b620007f98185620007a3565b93506200080b818560208601620007b4565b620008168162000463565b840191505092915050565b6200082c81620003a8565b82525050565b6200083d81620005bb565b82525050565b600060a08201905081810360008301526200085f8188620007e0565b90508181036020830152620008758187620007e0565b905062000886604083018662000821565b62000895606083018562000832565b620008a4608083018462000821565b9695505050505050565b6000608082019050620008c5600083018762000821565b620008d4602083018662000821565b8181036040830152620008e88185620007e0565b90508181036060830152620008fe8184620007e0565b90509594505050505056fe60806040523480156200001157600080fd5b50604051620046a2380380620046a28339818101604052810190620000379190620005b7565b848481600090816200004a9190620008be565b5080600190816200005c9190620008be565b5050506200007f620000736200016560201b60201c565b6200016d60201b60201c565b612710821115620000c7576040517f08c379a0000000000000000000000000000000000000000000000000000000008152600401620000be9062000a06565b60405180910390fd5b600073ffffffffffffffffffffffffffffffffffffffff168173ffffffffffffffffffffffffffffffffffffffff16036200010157600080fd5b81600d8190555080600e60006101000a81548173ffffffffffffffffffffffffffffffffffffffff021916908373ffffffffffffffffffffffffffffffffffffffff1602179055506200015a836200023360201b60201c565b505050505062000b32565b600033905090565b6000600b60009054906101000a900473ffffffffffffffffffffffffffffffffffffffff16905081600b60006101000a81548173ffffffffffffffffffffffffffffffffffffffff021916908373ffffffffffffffffffffffffffffffffffffffff1602179055508173ffffffffffffffffffffffffffffffffffffffff168173ffffffffffffffffffffffffffffffffffffffff167f8be0079c531659141344cd1fd0a4f28419497f9722a3daafe3b4186f6b6457e060405160405180910390a35050565b62000243620002c960201b60201c565b600073ffffffffffffffffffffffffffffffffffffffff168173ffffffffffffffffffffffffffffffffffffffff1603620002b5576040517f08c379a0000000000000000000000000000000000000000000000000000000008152600401620002ac9062000a9e565b60405180910390fd5b620002c6816200016d60201b60201c565b50565b620002d96200016560201b60201c565b73ffffffffffffffffffffffffffffffffffffffff16620002ff6200035a60201b60201c565b73ffffffffffffffffffffffffffffffffffffffff161462000358576040517f08c379a00000000000000000000000000000000000000000000000000000000081526004016200034f9062000b10565b60405180910390fd5b565b6000600b60009054906101000a900473ffffffffffffffffffffffffffffffffffffffff16905090565b6000604051905090565b600080fd5b600080fd5b600080fd5b600080fd5b6000601f19601f8301169050919050565b7f4e487b7100000000000000000000000000000000000000000000000000000000600052604160045260246000fd5b620003ed82620003a2565b810181811067ffffffffffffffff821117156200040f576200040e620003b3565b5b80604052505050565b60006200042462000384565b9050620004328282620003e2565b919050565b600067ffffffffffffffff821115620004555762000454620003b3565b5b6200046082620003a2565b9050602081019050919050565b60005b838110156200048d57808201518184015260208101905062000470565b60008484015250505050565b6000620004b0620004aa8462000437565b62000418565b905082815260208101848484011115620004cf57620004ce6200039d565b5b620004dc8482856200046d565b509392505050565b600082601f830112620004fc57620004fb62000398565b5b81516200050e84826020860162000499565b91505092915050565b600073ffffffffffffffffffffffffffffffffffffffff82169050919050565b6000620005448262000517565b9050919050565b620005568162000537565b81146200056257600080fd5b50565b60008151905062000576816200054b565b92915050565b6000819050919050565b62000591816200057c565b81146200059d57600080fd5b50565b600081519050620005b18162000586565b92915050565b600080600080600060a08688031215620005d657620005d56200038e565b5b600086015167ffffffffffffffff811115620005f757620005f662000393565b5b6200060588828901620004e4565b955050602086015167ffffffffffffffff81111562000629576200062862000393565b5b6200063788828901620004e4565b94505060406200064a8882890162000565565b93505060606200065d88828901620005a0565b9250506080620006708882890162000565565b9150509295509295909350565b600081519050919050565b7f4e487b7100000000000000000000000000000000000000000000000000000000600052602260045260246000fd5b60006002820490506001821680620006d057607f821691505b602082108103620006e657620006e562000688565b5b50919050565b60008190508160005260206000209050919050565b60006020601f8301049050919050565b600082821b905092915050565b600060088302620007507fffffffffffffffffffffffffffffffffffffffffffffffffffffffffffffffff8262000711565b6200075c868362000711565b95508019841693508086168417925050509392505050565b6000819050919050565b60006200079f6200079962000793846200057c565b62000774565b6200057c565b9050919050565b6000819050919050565b620007bb836200077e565b620007d3620007ca82620007a6565b8484546200071e565b825550505050565b600090565b620007ea620007db565b620007f7818484620007b0565b505050565b5b818110156200081f5762000813600082620007e0565b600181019050620007fd565b5050565b601f8211156200086e576200083881620006ec565b620008438462000701565b8101602085101562000853578190505b6200086b620008628562000701565b830182620007fc565b50505b505050565b600082821c905092915050565b6000620008936000198460080262000873565b1980831691505092915050565b6000620008ae838362000880565b9150826002028217905092915050565b620008c9826200067d565b67ffffffffffffffff811115620008e557620008e4620003b3565b5b620008f18254620006b7565b620008fe82828562000823565b600060209050601f83116001811462000936576000841562000921578287015190505b6200092d8582620008a0565b8655506200099d565b601f1984166200094686620006ec565b60005b82811015620009705784890151825560018201915060208501945060208101905062000949565b868310156200099057848901516200098c601f89168262000880565b8355505b6001600288020188555050505b505050505050565b600082825260208201905092915050565b7f63616e2774206d6f7265207468616e2031302070657263656e74000000000000600082015250565b6000620009ee601a83620009a5565b9150620009fb82620009b6565b602082019050919050565b6000602082019050818103600083015262000a2181620009df565b9050919050565b7f4f776e61626c653a206e6577206f776e657220697320746865207a65726f206160008201527f6464726573730000000000000000000000000000000000000000000000000000602082015250565b600062000a86602683620009a5565b915062000a938262000a28565b604082019050919050565b6000602082019050818103600083015262000ab98162000a77565b9050919050565b7f4f776e61626c653a2063616c6c6572206973206e6f7420746865206f776e6572600082015250565b600062000af8602083620009a5565b915062000b058262000ac0565b602082019050919050565b6000602082019050818103600083015262000b2b8162000ae9565b9050919050565b613b608062000b426000396000f3fe608060405234801561001057600080fd5b50600436106101585760003560e01c806370a08231116100c3578063a22cb4651161007c578063a22cb465146103c7578063b88d4fde146103e3578063c87b56dd146103ff578063d204c45e1461042f578063e985e9c51461044b578063f2fde38b1461047b57610158565b806370a0823114610315578063715018a614610345578063820bdcdc1461034f5780638da5cb5b1461036d57806395d89b411461038b57806395edc18c146103a957610158565b80632f745c59116101155780632f745c591461023157806342842e0e1461026157806342966c681461027d5780634e83be47146102995780634f6ccce7146102b55780636352211e146102e557610158565b806301ffc9a71461015d57806306fdde031461018d578063081812fc146101ab578063095ea7b3146101db57806318160ddd146101f757806323b872dd14610215575b600080fd5b6101776004803603810190610172919061266e565b610497565b60405161018491906126b6565b60405180910390f35b6101956104a9565b6040516101a29190612761565b60405180910390f35b6101c560048036038101906101c091906127b9565b61053b565b6040516101d29190612827565b60405180910390f35b6101f560048036038101906101f0919061286e565b610581565b005b6101ff610698565b60405161020c91906128bd565b60405180910390f35b61022f600480360381019061022a91906128d8565b6106a5565b005b61024b6004803603810190610246919061286e565b610705565b60405161025891906128bd565b60405180910390f35b61027b600480360381019061027691906128d8565b6107aa565b005b610297600480360381019061029291906127b9565b6107ca565b005b6102b360048036038101906102ae91906127b9565b610826565b005b6102cf60048036038101906102ca91906127b9565b61087d565b6040516102dc91906128bd565b60405180910390f35b6102ff60048036038101906102fa91906127b9565b6108ee565b60405161030c9190612827565b60405180910390f35b61032f600480360381019061032a919061292b565b610974565b60405161033c91906128bd565b60405180910390f35b61034d610a2b565b005b610357610a3f565b60405161036491906128bd565b60405180910390f35b610375610a49565b6040516103829190612827565b60405180910390f35b610393610a73565b6040516103a09190612761565b60405180910390f35b6103b1610b05565b6040516103be9190612827565b60405180910390f35b6103e160048036038101906103dc9190612984565b610b2f565b005b6103fd60048036038101906103f89190612af9565b610b45565b005b610419600480360381019061041491906127b9565b610ba7565b6040516104269190612761565b60405180910390f35b61044960048036038101906104449190612c1d565b610bb9565b005b61046560048036038101906104609190612c79565b610bf2565b60405161047291906126b6565b60405180910390f35b6104956004803603810190610490919061292b565b610c86565b005b60006104a282610d09565b9050919050565b6060600080546104b890612ce8565b80601f01602080910402602001604051908101604052809291908181526020018280546104e490612ce8565b80156105315780601f1061050657610100808354040283529160200191610531565b820191906000526020600020905b81548152906001019060200180831161051457829003601f168201915b5050505050905090565b600061054682610d83565b6004600083815260200190815260200160002060009054906101000a900473ffffffffffffffffffffffffffffffffffffffff169050919050565b600061058c826108ee565b90508073ffffffffffffffffffffffffffffffffffffffff168373ffffffffffffffffffffffffffffffffffffffff16036105fc576040517f08c379a00000000000000000000000000000000000000000000000000000000081526004016105f390612d8b565b60405180910390fd5b8073ffffffffffffffffffffffffffffffffffffffff1661061b610dce565b73ffffffffffffffffffffffffffffffffffffffff16148061064a575061064981610644610dce565b610bf2565b5b610689576040517f08c379a000000000000000000000000000000000000000000000000000000000815260040161068090612e1d565b60405180910390fd5b6106938383610dd6565b505050565b6000600980549050905090565b6106b66106b0610dce565b82610e8f565b6106f5576040517f08c379a00000000000000000000000000000000000000000000000000000000081526004016106ec90612eaf565b60405180910390fd5b610700838383610f24565b505050565b600061071083610974565b8210610751576040517f08c379a000000000000000000000000000000000000000000000000000000000815260040161074890612f41565b60405180910390fd5b600760008473ffffffffffffffffffffffffffffffffffffffff1673ffffffffffffffffffffffffffffffffffffffff168152602001908152602001600020600083815260200190815260200160002054905092915050565b6107c583838360405180602001604052806000815250610b45565b505050565b6107db6107d5610dce565b82610e8f565b61081a576040517f08c379a000000000000000000000000000000000000000000000000000000000815260040161081190612eaf565b60405180910390fd5b6108238161121d565b50565b61082e611229565b612710811115610873576040517f08c379a000000000000000000000000000000000000000000000000000000000815260040161086a90612fad565b60405180910390fd5b80600d8190555050565b6000610887610698565b82106108c8576040517f08c379a00000000000000000000000000000000000000000000000000000000081526004016108bf9061303f565b60405180910390fd5b600982815481106108dc576108db61305f565b5b90600052602060002001549050919050565b6000806108fa836112a7565b9050600073ffffffffffffffffffffffffffffffffffffffff168173ffffffffffffffffffffffffffffffffffffffff160361096b576040517f08c379a0000000000000000000000000000000000000000000000000000000008152600401610962906130da565b60405180910390fd5b80915050919050565b60008073ffffffffffffffffffffffffffffffffffffffff168273ffffffffffffffffffffffffffffffffffffffff16036109e4576040517f08c379a00000000000000000000000000000000000000000000000000000000081526004016109db9061316c565b60405180910390fd5b600360008373ffffffffffffffffffffffffffffffffffffffff1673ffffffffffffffffffffffffffffffffffffffff168152602001908152602001600020549050919050565b610a33611229565b610a3d60006112e4565b565b6000600d54905090565b6000600b60009054906101000a900473ffffffffffffffffffffffffffffffffffffffff16905090565b606060018054610a8290612ce8565b80601f0160208091040260200160405190810160405280929190818152602001828054610aae90612ce8565b8015610afb5780601f10610ad057610100808354040283529160200191610afb565b820191906000526020600020905b815481529060010190602001808311610ade57829003601f168201915b5050505050905090565b6000600e60009054906101000a900473ffffffffffffffffffffffffffffffffffffffff16905090565b610b41610b3a610dce565b83836113aa565b5050565b610b56610b50610dce565b83610e8f565b610b95576040517f08c379a0000000000000000000000000000000000000000000000000000000008152600401610b8c90612eaf565b60405180910390fd5b610ba184848484611516565b50505050565b6060610bb282611572565b9050919050565b610bc1611229565b6000610bcd600c611684565b9050610bd9600c611692565b610be383826116a8565b610bed81836116c6565b505050565b6000600560008473ffffffffffffffffffffffffffffffffffffffff1673ffffffffffffffffffffffffffffffffffffffff16815260200190815260200160002060008373ffffffffffffffffffffffffffffffffffffffff1673ffffffffffffffffffffffffffffffffffffffff16815260200190815260200160002060009054906101000a900460ff16905092915050565b610c8e611229565b600073ffffffffffffffffffffffffffffffffffffffff168173ffffffffffffffffffffffffffffffffffffffff1603610cfd576040517f08c379a0000000000000000000000000000000000000000000000000000000008152600401610cf4906131fe565b60405180910390fd5b610d06816112e4565b50565b60007f780e9d63000000000000000000000000000000000000000000000000000000007bffffffffffffffffffffffffffffffffffffffffffffffffffffffff1916827bffffffffffffffffffffffffffffffffffffffffffffffffffffffff19161480610d7c5750610d7b82611733565b5b9050919050565b610d8c81611815565b610dcb576040517f08c379a0000000000000000000000000000000000000000000000000000000008152600401610dc2906130da565b60405180910390fd5b50565b600033905090565b816004600083815260200190815260200160002060006101000a81548173ffffffffffffffffffffffffffffffffffffffff021916908373ffffffffffffffffffffffffffffffffffffffff160217905550808273ffffffffffffffffffffffffffffffffffffffff16610e49836108ee565b73ffffffffffffffffffffffffffffffffffffffff167f8c5be1e5ebec7d5bd14f71427d1e84f3dd0314c0f7b2291e5b200ac8c7c3b92560405160405180910390a45050565b600080610e9b836108ee565b90508073ffffffffffffffffffffffffffffffffffffffff168473ffffffffffffffffffffffffffffffffffffffff161480610edd5750610edc8185610bf2565b5b80610f1b57508373ffffffffffffffffffffffffffffffffffffffff16610f038461053b565b73ffffffffffffffffffffffffffffffffffffffff16145b91505092915050565b8273ffffffffffffffffffffffffffffffffffffffff16610f44826108ee565b73ffffffffffffffffffffffffffffffffffffffff1614610f9a576040517f08c379a0000000000000000000000000000000000000000000000000000000008152600401610f9190613290565b60405180910390fd5b600073ffffffffffffffffffffffffffffffffffffffff168273ffffffffffffffffffffffffffffffffffffffff1603611009576040517f08c379a000000000000000000000000000000000000000000000000000000000815260040161100090613322565b60405180910390fd5b6110168383836001611856565b8273ffffffffffffffffffffffffffffffffffffffff16611036826108ee565b73ffffffffffffffffffffffffffffffffffffffff161461108c576040517f08c379a000000000000000000000000000000000000000000000000000000000815260040161108390613290565b60405180910390fd5b6004600082815260200190815260200160002060006101000a81549073ffffffffffffffffffffffffffffffffffffffff02191690556001600360008573ffffffffffffffffffffffffffffffffffffffff1673ffffffffffffffffffffffffffffffffffffffff168152602001908152602001600020600082825403925050819055506001600360008473ffffffffffffffffffffffffffffffffffffffff1673ffffffffffffffffffffffffffffffffffffffff16815260200190815260200160002060008282540192505081905550816002600083815260200190815260200160002060006101000a81548173ffffffffffffffffffffffffffffffffffffffff021916908373ffffffffffffffffffffffffffffffffffffffff160217905550808273ffffffffffffffffffffffffffffffffffffffff168473ffffffffffffffffffffffffffffffffffffffff167fddf252ad1be2c89b69c2b068fc378daa952ba7f163c4a11628f55a4df523b3ef60405160405180910390a46112188383836001611868565b505050565b6112268161186e565b50565b611231610dce565b73ffffffffffffffffffffffffffffffffffffffff1661124f610a49565b73ffffffffffffffffffffffffffffffffffffffff16146112a5576040517f08c379a000000000000000000000000000000000000000000000000000000000815260040161129c9061338e565b60405180910390fd5b565b60006002600083815260200190815260200160002060009054906101000a900473ffffffffffffffffffffffffffffffffffffffff169050919050565b6000600b60009054906101000a900473ffffffffffffffffffffffffffffffffffffffff16905081600b60006101000a81548173ffffffffffffffffffffffffffffffffffffffff021916908373ffffffffffffffffffffffffffffffffffffffff1602179055508173ffffffffffffffffffffffffffffffffffffffff168173ffffffffffffffffffffffffffffffffffffffff167f8be0079c531659141344cd1fd0a4f28419497f9722a3daafe3b4186f6b6457e060405160405180910390a35050565b8173ffffffffffffffffffffffffffffffffffffffff168373ffffffffffffffffffffffffffffffffffffffff1603611418576040517f08c379a000000000000000000000000000000000000000000000000000000000815260040161140f906133fa565b60405180910390fd5b80600560008573ffffffffffffffffffffffffffffffffffffffff1673ffffffffffffffffffffffffffffffffffffffff16815260200190815260200160002060008473ffffffffffffffffffffffffffffffffffffffff1673ffffffffffffffffffffffffffffffffffffffff16815260200190815260200160002060006101000a81548160ff0219169083151502179055508173ffffffffffffffffffffffffffffffffffffffff168373ffffffffffffffffffffffffffffffffffffffff167f17307eab39ab6107e8899845ad3d59bd9653f200f220920489ca2b5937696c318360405161150991906126b6565b60405180910390a3505050565b611521848484610f24565b61152d848484846118c1565b61156c576040517f08c379a00000000000000000000000000000000000000000000000000000000081526004016115639061348c565b60405180910390fd5b50505050565b606061157d82610d83565b600060066000848152602001908152602001600020805461159d90612ce8565b80601f01602080910402602001604051908101604052809291908181526020018280546115c990612ce8565b80156116165780601f106115eb57610100808354040283529160200191611616565b820191906000526020600020905b8154815290600101906020018083116115f957829003601f168201915b505050505090506000611627611a48565b9050600081510361163c57819250505061167f565b6000825111156116715780826040516020016116599291906134e8565b6040516020818303038152906040529250505061167f565b61167a84611a5f565b925050505b919050565b600081600001549050919050565b6001816000016000828254019250508190555050565b6116c2828260405180602001604052806000815250611ac7565b5050565b6116cf82611815565b61170e576040517f08c379a00000000000000000000000000000000000000000000000000000000081526004016117059061357e565b60405180910390fd5b8060066000848152602001908152602001600020908161172e919061374a565b505050565b60007f80ac58cd000000000000000000000000000000000000000000000000000000007bffffffffffffffffffffffffffffffffffffffffffffffffffffffff1916827bffffffffffffffffffffffffffffffffffffffffffffffffffffffff191614806117fe57507f5b5e139f000000000000000000000000000000000000000000000000000000007bffffffffffffffffffffffffffffffffffffffffffffffffffffffff1916827bffffffffffffffffffffffffffffffffffffffffffffffffffffffff1916145b8061180e575061180d82611b22565b5b9050919050565b60008073ffffffffffffffffffffffffffffffffffffffff16611837836112a7565b73ffffffffffffffffffffffffffffffffffffffff1614159050919050565b61186284848484611b8c565b50505050565b50505050565b61187781611cea565b600060066000838152602001908152602001600020805461189790612ce8565b9050146118be576006600082815260200190815260200160002060006118bd91906125a5565b5b50565b60006118e28473ffffffffffffffffffffffffffffffffffffffff16611e38565b15611a3b578373ffffffffffffffffffffffffffffffffffffffff1663150b7a0261190b610dce565b8786866040518563ffffffff1660e01b815260040161192d9493929190613871565b6020604051808303816000875af192505050801561196957506040513d601f19601f8201168201806040525081019061196691906138d2565b60015b6119eb573d8060008114611999576040519150601f19603f3d011682016040523d82523d6000602084013e61199e565b606091505b5060008151036119e3576040517f08c379a00000000000000000000000000000000000000000000000000000000081526004016119da9061348c565b60405180910390fd5b805181602001fd5b63150b7a0260e01b7bffffffffffffffffffffffffffffffffffffffffffffffffffffffff1916817bffffffffffffffffffffffffffffffffffffffffffffffffffffffff191614915050611a40565b600190505b949350505050565b606060405180602001604052806000815250905090565b6060611a6a82610d83565b6000611a74611a48565b90506000815111611a945760405180602001604052806000815250611abf565b80611a9e84611e5b565b604051602001611aaf9291906134e8565b6040516020818303038152906040525b915050919050565b611ad18383611f29565b611ade60008484846118c1565b611b1d576040517f08c379a0000000000000000000000000000000000000000000000000000000008152600401611b149061348c565b60405180910390fd5b505050565b60007f01ffc9a7000000000000000000000000000000000000000000000000000000007bffffffffffffffffffffffffffffffffffffffffffffffffffffffff1916827bffffffffffffffffffffffffffffffffffffffffffffffffffffffff1916149050919050565b611b9884848484612146565b6001811115611bdc576040517f08c379a0000000000000000000000000000000000000000000000000000000008152600401611bd390613971565b60405180910390fd5b6000829050600073ffffffffffffffffffffffffffffffffffffffff168573ffffffffffffffffffffffffffffffffffffffff1603611c2357611c1e8161214c565b611c62565b8373ffffffffffffffffffffffffffffffffffffffff168573ffffffffffffffffffffffffffffffffffffffff1614611c6157611c608582612195565b5b5b600073ffffffffffffffffffffffffffffffffffffffff168473ffffffffffffffffffffffffffffffffffffffff1603611ca457611c9f81612302565b611ce3565b8473ffffffffffffffffffffffffffffffffffffffff168473ffffffffffffffffffffffffffffffffffffffff1614611ce257611ce184826123d3565b5b5b5050505050565b6000611cf5826108ee565b9050611d05816000846001611856565b611d0e826108ee565b90506004600083815260200190815260200160002060006101000a81549073ffffffffffffffffffffffffffffffffffffffff02191690556001600360008373ffffffffffffffffffffffffffffffffffffffff1673ffffffffffffffffffffffffffffffffffffffff168152602001908152602001600020600082825403925050819055506002600083815260200190815260200160002060006101000a81549073ffffffffffffffffffffffffffffffffffffffff021916905581600073ffffffffffffffffffffffffffffffffffffffff168273ffffffffffffffffffffffffffffffffffffffff167fddf252ad1be2c89b69c2b068fc378daa952ba7f163c4a11628f55a4df523b3ef60405160405180910390a4611e34816000846001611868565b5050565b6000808273ffffffffffffffffffffffffffffffffffffffff163b119050919050565b606060006001611e6a84612452565b01905060008167ffffffffffffffff811115611e8957611e886129ce565b5b6040519080825280601f01601f191660200182016040528015611ebb5781602001600182028036833780820191505090505b509050600082602001820190505b600115611f1e578080600190039150507f3031323334353637383961626364656600000000000000000000000000000000600a86061a8153600a8581611f1257611f11613991565b5b04945060008503611ec9575b819350505050919050565b600073ffffffffffffffffffffffffffffffffffffffff168273ffffffffffffffffffffffffffffffffffffffff1603611f98576040517f08c379a0000000000000000000000000000000000000000000000000000000008152600401611f8f90613a0c565b60405180910390fd5b611fa181611815565b15611fe1576040517f08c379a0000000000000000000000000000000000000000000000000000000008152600401611fd890613a78565b60405180910390fd5b611fef600083836001611856565b611ff881611815565b15612038576040517f08c379a000000000000000000000000000000000000000000000000000000000815260040161202f90613a78565b60405180910390fd5b6001600360008473ffffffffffffffffffffffffffffffffffffffff1673ffffffffffffffffffffffffffffffffffffffff16815260200190815260200160002060008282540192505081905550816002600083815260200190815260200160002060006101000a81548173ffffffffffffffffffffffffffffffffffffffff021916908373ffffffffffffffffffffffffffffffffffffffff160217905550808273ffffffffffffffffffffffffffffffffffffffff16600073ffffffffffffffffffffffffffffffffffffffff167fddf252ad1be2c89b69c2b068fc378daa952ba7f163c4a11628f55a4df523b3ef60405160405180910390a4612142600083836001611868565b5050565b50505050565b600980549050600a600083815260200190815260200160002081905550600981908060018154018082558091505060019003906000526020600020016000909190919091505550565b600060016121a284610974565b6121ac9190613ac7565b9050600060086000848152602001908152602001600020549050818114612291576000600760008673ffffffffffffffffffffffffffffffffffffffff1673ffffffffffffffffffffffffffffffffffffffff168152602001908152602001600020600084815260200190815260200160002054905080600760008773ffffffffffffffffffffffffffffffffffffffff1673ffffffffffffffffffffffffffffffffffffffff168152602001908152602001600020600084815260200190815260200160002081905550816008600083815260200190815260200160002081905550505b6008600084815260200190815260200160002060009055600760008573ffffffffffffffffffffffffffffffffffffffff1673ffffffffffffffffffffffffffffffffffffffff16815260200190815260200160002060008381526020019081526020016000206000905550505050565b600060016009805490506123169190613ac7565b90506000600a60008481526020019081526020016000205490506000600983815481106123465761234561305f565b5b9060005260206000200154905080600983815481106123685761236761305f565b5b906000526020600020018190555081600a600083815260200190815260200160002081905550600a60008581526020019081526020016000206000905560098054806123b7576123b6613afb565b5b6001900381819060005260206000200160009055905550505050565b60006123de83610974565b905081600760008573ffffffffffffffffffffffffffffffffffffffff1673ffffffffffffffffffffffffffffffffffffffff168152602001908152602001600020600083815260200190815260200160002081905550806008600084815260200190815260200160002081905550505050565b600080600090507a184f03e93ff9f4daa797ed6e38ed64bf6a1f01000000000000000083106124b0577a184f03e93ff9f4daa797ed6e38ed64bf6a1f01000000000000000083816124a6576124a5613991565b5b0492506040810190505b6d04ee2d6d415b85acef810000000083106124ed576d04ee2d6d415b85acef810000000083816124e3576124e2613991565b5b0492506020810190505b662386f26fc10000831061251c57662386f26fc10000838161251257612511613991565b5b0492506010810190505b6305f5e1008310612545576305f5e100838161253b5761253a613991565b5b0492506008810190505b612710831061256a5761271083816125605761255f613991565b5b0492506004810190505b6064831061258d576064838161258357612582613991565b5b0492506002810190505b600a831061259c576001810190505b80915050919050565b5080546125b190612ce8565b6000825580601f106125c357506125e2565b601f0160209004906000526020600020908101906125e191906125e5565b5b50565b5b808211156125fe5760008160009055506001016125e6565b5090565b6000604051905090565b600080fd5b600080fd5b60007fffffffff0000000000000000000000000000000000000000000000000000000082169050919050565b61264b81612616565b811461265657600080fd5b50565b60008135905061266881612642565b92915050565b6000602082840312156126845761268361260c565b5b600061269284828501612659565b91505092915050565b60008115159050919050565b6126b08161269b565b82525050565b60006020820190506126cb60008301846126a7565b92915050565b600081519050919050565b600082825260208201905092915050565b60005b8381101561270b5780820151818401526020810190506126f0565b60008484015250505050565b6000601f19601f8301169050919050565b6000612733826126d1565b61273d81856126dc565b935061274d8185602086016126ed565b61275681612717565b840191505092915050565b6000602082019050818103600083015261277b8184612728565b905092915050565b6000819050919050565b61279681612783565b81146127a157600080fd5b50565b6000813590506127b38161278d565b92915050565b6000602082840312156127cf576127ce61260c565b5b60006127dd848285016127a4565b91505092915050565b600073ffffffffffffffffffffffffffffffffffffffff82169050919050565b6000612811826127e6565b9050919050565b61282181612806565b82525050565b600060208201905061283c6000830184612818565b92915050565b61284b81612806565b811461285657600080fd5b50565b60008135905061286881612842565b92915050565b600080604083850312156128855761288461260c565b5b600061289385828601612859565b92505060206128a4858286016127a4565b9150509250929050565b6128b781612783565b82525050565b60006020820190506128d260008301846128ae565b92915050565b6000806000606084860312156128f1576128f061260c565b5b60006128ff86828701612859565b935050602061291086828701612859565b9250506040612921868287016127a4565b9150509250925092565b6000602082840312156129415761294061260c565b5b600061294f84828501612859565b91505092915050565b6129618161269b565b811461296c57600080fd5b50565b60008135905061297e81612958565b92915050565b6000806040838503121561299b5761299a61260c565b5b60006129a985828601612859565b92505060206129ba8582860161296f565b9150509250929050565b600080fd5b600080fd5b7f4e487b7100000000000000000000000000000000000000000000000000000000600052604160045260246000fd5b612a0682612717565b810181811067ffffffffffffffff82111715612a2557612a246129ce565b5b80604052505050565b6000612a38612602565b9050612a4482826129fd565b919050565b600067ffffffffffffffff821115612a6457612a636129ce565b5b612a6d82612717565b9050602081019050919050565b82818337600083830152505050565b6000612a9c612a9784612a49565b612a2e565b905082815260208101848484011115612ab857612ab76129c9565b5b612ac3848285612a7a565b509392505050565b600082601f830112612ae057612adf6129c4565b5b8135612af0848260208601612a89565b91505092915050565b60008060008060808587031215612b1357612b1261260c565b5b6000612b2187828801612859565b9450506020612b3287828801612859565b9350506040612b43878288016127a4565b925050606085013567ffffffffffffffff811115612b6457612b63612611565b5b612b7087828801612acb565b91505092959194509250565b600067ffffffffffffffff821115612b9757612b966129ce565b5b612ba082612717565b9050602081019050919050565b6000612bc0612bbb84612b7c565b612a2e565b905082815260208101848484011115612bdc57612bdb6129c9565b5b612be7848285612a7a565b509392505050565b600082601f830112612c0457612c036129c4565b5b8135612c14848260208601612bad565b91505092915050565b60008060408385031215612c3457612c3361260c565b5b6000612c4285828601612859565b925050602083013567ffffffffffffffff811115612c6357612c62612611565b5b612c6f85828601612bef565b9150509250929050565b60008060408385031215612c9057612c8f61260c565b5b6000612c9e85828601612859565b9250506020612caf85828601612859565b9150509250929050565b7f4e487b7100000000000000000000000000000000000000000000000000000000600052602260045260246000fd5b60006002820490506001821680612d0057607f821691505b602082108103612d1357612d12612cb9565b5b50919050565b7f4552433732313a20617070726f76616c20746f2063757272656e74206f776e6560008201527f7200000000000000000000000000000000000000000000000000000000000000602082015250565b6000612d756021836126dc565b9150612d8082612d19565b604082019050919050565b60006020820190508181036000830152612da481612d68565b9050919050565b7f4552433732313a20617070726f76652063616c6c6572206973206e6f7420746f60008201527f6b656e206f776e6572206f7220617070726f76656420666f7220616c6c000000602082015250565b6000612e07603d836126dc565b9150612e1282612dab565b604082019050919050565b60006020820190508181036000830152612e3681612dfa565b9050919050565b7f4552433732313a2063616c6c6572206973206e6f7420746f6b656e206f776e6560008201527f72206f7220617070726f76656400000000000000000000000000000000000000602082015250565b6000612e99602d836126dc565b9150612ea482612e3d565b604082019050919050565b60006020820190508181036000830152612ec881612e8c565b9050919050565b7f455243373231456e756d657261626c653a206f776e657220696e646578206f7560008201527f74206f6620626f756e6473000000000000000000000000000000000000000000602082015250565b6000612f2b602b836126dc565b9150612f3682612ecf565b604082019050919050565b60006020820190508181036000830152612f5a81612f1e565b9050919050565b7f63616e2774206d6f7265207468616e2031302070657263656e74000000000000600082015250565b6000612f97601a836126dc565b9150612fa282612f61565b602082019050919050565b60006020820190508181036000830152612fc681612f8a565b9050919050565b7f455243373231456e756d657261626c653a20676c6f62616c20696e646578206f60008201527f7574206f6620626f756e64730000000000000000000000000000000000000000602082015250565b6000613029602c836126dc565b915061303482612fcd565b604082019050919050565b600060208201905081810360008301526130588161301c565b9050919050565b7f4e487b7100000000000000000000000000000000000000000000000000000000600052603260045260246000fd5b7f4552433732313a20696e76616c696420746f6b656e2049440000000000000000600082015250565b60006130c46018836126dc565b91506130cf8261308e565b602082019050919050565b600060208201905081810360008301526130f3816130b7565b9050919050565b7f4552433732313a2061646472657373207a65726f206973206e6f74206120766160008201527f6c6964206f776e65720000000000000000000000000000000000000000000000602082015250565b60006131566029836126dc565b9150613161826130fa565b604082019050919050565b6000602082019050818103600083015261318581613149565b9050919050565b7f4f776e61626c653a206e6577206f776e657220697320746865207a65726f206160008201527f6464726573730000000000000000000000000000000000000000000000000000602082015250565b60006131e86026836126dc565b91506131f38261318c565b604082019050919050565b60006020820190508181036000830152613217816131db565b9050919050565b7f4552433732313a207472616e736665722066726f6d20696e636f72726563742060008201527f6f776e6572000000000000000000000000000000000000000000000000000000602082015250565b600061327a6025836126dc565b91506132858261321e565b604082019050919050565b600060208201905081810360008301526132a98161326d565b9050919050565b7f4552433732313a207472616e7366657220746f20746865207a65726f2061646460008201527f7265737300000000000000000000000000000000000000000000000000000000602082015250565b600061330c6024836126dc565b9150613317826132b0565b604082019050919050565b6000602082019050818103600083015261333b816132ff565b9050919050565b7f4f776e61626c653a2063616c6c6572206973206e6f7420746865206f776e6572600082015250565b60006133786020836126dc565b915061338382613342565b602082019050919050565b600060208201905081810360008301526133a78161336b565b9050919050565b7f4552433732313a20617070726f766520746f2063616c6c657200000000000000600082015250565b60006133e46019836126dc565b91506133ef826133ae565b602082019050919050565b60006020820190508181036000830152613413816133d7565b9050919050565b7f4552433732313a207472616e7366657220746f206e6f6e20455243373231526560008201527f63656976657220696d706c656d656e7465720000000000000000000000000000602082015250565b60006134766032836126dc565b91506134818261341a565b604082019050919050565b600060208201905081810360008301526134a581613469565b9050919050565b600081905092915050565b60006134c2826126d1565b6134cc81856134ac565b93506134dc8185602086016126ed565b80840191505092915050565b60006134f482856134b7565b915061350082846134b7565b91508190509392505050565b7f45524337323155524953746f726167653a2055524920736574206f66206e6f6e60008201527f6578697374656e7420746f6b656e000000000000000000000000000000000000602082015250565b6000613568602e836126dc565b91506135738261350c565b604082019050919050565b600060208201905081810360008301526135978161355b565b9050919050565b60008190508160005260206000209050919050565b60006020601f8301049050919050565b600082821b905092915050565b6000600883026136007fffffffffffffffffffffffffffffffffffffffffffffffffffffffffffffffff826135c3565b61360a86836135c3565b95508019841693508086168417925050509392505050565b6000819050919050565b600061364761364261363d84612783565b613622565b612783565b9050919050565b6000819050919050565b6136618361362c565b61367561366d8261364e565b8484546135d0565b825550505050565b600090565b61368a61367d565b613695818484613658565b505050565b5b818110156136b9576136ae600082613682565b60018101905061369b565b5050565b601f8211156136fe576136cf8161359e565b6136d8846135b3565b810160208510156136e7578190505b6136fb6136f3856135b3565b83018261369a565b50505b505050565b600082821c905092915050565b600061372160001984600802613703565b1980831691505092915050565b600061373a8383613710565b9150826002028217905092915050565b613753826126d1565b67ffffffffffffffff81111561376c5761376b6129ce565b5b6137768254612ce8565b6137818282856136bd565b600060209050601f8311600181146137b457600084156137a2578287015190505b6137ac858261372e565b865550613814565b601f1984166137c28661359e565b60005b828110156137ea578489015182556001820191506020850194506020810190506137c5565b868310156138075784890151613803601f891682613710565b8355505b6001600288020188555050505b505050505050565b600081519050919050565b600082825260208201905092915050565b60006138438261381c565b61384d8185613827565b935061385d8185602086016126ed565b61386681612717565b840191505092915050565b60006080820190506138866000830187612818565b6138936020830186612818565b6138a060408301856128ae565b81810360608301526138b28184613838565b905095945050505050565b6000815190506138cc81612642565b92915050565b6000602082840312156138e8576138e761260c565b5b60006138f6848285016138bd565b91505092915050565b7f455243373231456e756d657261626c653a20636f6e736563757469766520747260008201527f616e7366657273206e6f7420737570706f727465640000000000000000000000602082015250565b600061395b6035836126dc565b9150613966826138ff565b604082019050919050565b6000602082019050818103600083015261398a8161394e565b9050919050565b7f4e487b7100000000000000000000000000000000000000000000000000000000600052601260045260246000fd5b7f4552433732313a206d696e7420746f20746865207a65726f2061646472657373600082015250565b60006139f66020836126dc565b9150613a01826139c0565b602082019050919050565b60006020820190508181036000830152613a25816139e9565b9050919050565b7f4552433732313a20746f6b656e20616c7265616479206d696e74656400000000600082015250565b6000613a62601c836126dc565b9150613a6d82613a2c565b602082019050919050565b60006020820190508181036000830152613a9181613a55565b9050919050565b7f4e487b7100000000000000000000000000000000000000000000000000000000600052601160045260246000fd5b6000613ad282612783565b9150613add83612783565b9250828203905081811115613af557613af4613a98565b5b92915050565b7f4e487b7100000000000000000000000000000000000000000000000000000000600052603160045260246000fdfea264697066735822122062c46d593313e4daca12073d2af9536b63d2c0cdd69ca91ab6afdc652d8142ea64736f6c63430008110033a2646970667358221220ddfc1f90877087e77bf042b1b01edfbcb0571b49b95c07ccda7704e26e09c4c364736f6c63430008110033",
  "linkReferences": {},
  "deployedLinkReferences": {}
}