{
    "_format": "hh-sol-artifact-1",
    "contractName": "NFTMarketplace",
    "sourceName": "contracts/NFT_Marketplace.sol",
    "abi": [
        {
            "inputs": [],
            "stateMutability": "nonpayable",
            "type": "constructor"
        },
        {
            "anonymous": false,
            "inputs": [
                {
                    "indexed": true,
                    "internalType": "address",
                    "name": "owner",
                    "type": "address"
                },
                {
                    "indexed": true,
                    "internalType": "address",
                    "name": "approved",
                    "type": "address"
                },
                {
                    "indexed": true,
                    "internalType": "uint256",
                    "name": "tokenId",
                    "type": "uint256"
                }
            ],
            "name": "Approval",
            "type": "event"
        },
        {
            "anonymous": false,
            "inputs": [
                {
                    "indexed": true,
                    "internalType": "address",
                    "name": "owner",
                    "type": "address"
                },
                {
                    "indexed": true,
                    "internalType": "address",
                    "name": "operator",
                    "type": "address"
                },
                {
                    "indexed": false,
                    "internalType": "bool",
                    "name": "approved",
                    "type": "bool"
                }
            ],
            "name": "ApprovalForAll",
            "type": "event"
        },
        {
            "anonymous": false,
            "inputs": [
                {
                    "indexed": true,
                    "internalType": "address",
                    "name": "from",
                    "type": "address"
                },
                {
                    "indexed": true,
                    "internalType": "address",
                    "name": "to",
                    "type": "address"
                },
                {
                    "indexed": true,
                    "internalType": "uint256",
                    "name": "tokenId",
                    "type": "uint256"
                }
            ],
            "name": "Transfer",
            "type": "event"
        },
        {
            "anonymous": false,
            "inputs": [
                {
                    "indexed": true,
                    "internalType": "uint256",
                    "name": "tokenId",
                    "type": "uint256"
                },
                {
                    "indexed": false,
                    "internalType": "address",
                    "name": "seller",
                    "type": "address"
                },
                {
                    "indexed": false,
                    "internalType": "address",
                    "name": "owner",
                    "type": "address"
                },
                {
                    "indexed": false,
                    "internalType": "uint256",
                    "name": "price",
                    "type": "uint256"
                },
                {
                    "indexed": false,
                    "internalType": "bool",
                    "name": "sold",
                    "type": "bool"
                }
            ],
            "name": "idToMarketItemCreated",
            "type": "event"
        },
        {
            "inputs": [
                {
                    "internalType": "address",
                    "name": "to",
                    "type": "address"
                },
                {
                    "internalType": "uint256",
                    "name": "tokenId",
                    "type": "uint256"
                }
            ],
            "name": "approve",
            "outputs": [],
            "stateMutability": "nonpayable",
            "type": "function"
        },
        {
            "inputs": [
                {
                    "internalType": "address",
                    "name": "owner",
                    "type": "address"
                }
            ],
            "name": "balanceOf",
            "outputs": [
                {
                    "internalType": "uint256",
                    "name": "",
                    "type": "uint256"
                }
            ],
            "stateMutability": "view",
            "type": "function"
        },
        {
            "inputs": [
                {
                    "internalType": "uint256",
                    "name": "_tokenId",
                    "type": "uint256"
                }
            ],
            "name": "createMarketSale",
            "outputs": [],
            "stateMutability": "payable",
            "type": "function"
        },
        {
            "inputs": [
                {
                    "internalType": "string",
                    "name": "_tokenURI",
                    "type": "string"
                },
                {
                    "internalType": "uint256",
                    "name": "_price",
                    "type": "uint256"
                }
            ],
            "name": "createToken",
            "outputs": [
                {
                    "internalType": "uint256",
                    "name": "",
                    "type": "uint256"
                }
            ],
            "stateMutability": "payable",
            "type": "function"
        },
        {
            "inputs": [
                {
                    "internalType": "uint256",
                    "name": "tokenId",
                    "type": "uint256"
                }
            ],
            "name": "getApproved",
            "outputs": [
                {
                    "internalType": "address",
                    "name": "",
                    "type": "address"
                }
            ],
            "stateMutability": "view",
            "type": "function"
        },
        {
            "inputs": [],
            "name": "getListedItems",
            "outputs": [
                {
                    "components": [
                        {
                            "internalType": "uint256",
                            "name": "tokenId",
                            "type": "uint256"
                        },
                        {
                            "internalType": "address payable",
                            "name": "seller",
                            "type": "address"
                        },
                        {
                            "internalType": "address payable",
                            "name": "owner",
                            "type": "address"
                        },
                        {
                            "internalType": "uint256",
                            "name": "price",
                            "type": "uint256"
                        },
                        {
                            "internalType": "bool",
                            "name": "sold",
                            "type": "bool"
                        }
                    ],
                    "internalType": "struct NFTMarketplace.MarketItem[]",
                    "name": "",
                    "type": "tuple[]"
                }
            ],
            "stateMutability": "view",
            "type": "function"
        },
        {
            "inputs": [],
            "name": "getListingPrice",
            "outputs": [
                {
                    "internalType": "uint256",
                    "name": "",
                    "type": "uint256"
                }
            ],
            "stateMutability": "view",
            "type": "function"
        },
        {
            "inputs": [],
            "name": "getMarketItems",
            "outputs": [
                {
                    "components": [
                        {
                            "internalType": "uint256",
                            "name": "tokenId",
                            "type": "uint256"
                        },
                        {
                            "internalType": "address payable",
                            "name": "seller",
                            "type": "address"
                        },
                        {
                            "internalType": "address payable",
                            "name": "owner",
                            "type": "address"
                        },
                        {
                            "internalType": "uint256",
                            "name": "price",
                            "type": "uint256"
                        },
                        {
                            "internalType": "bool",
                            "name": "sold",
                            "type": "bool"
                        }
                    ],
                    "internalType": "struct NFTMarketplace.MarketItem[]",
                    "name": "",
                    "type": "tuple[]"
                }
            ],
            "stateMutability": "view",
            "type": "function"
        },
        {
            "inputs": [],
            "name": "getMyNFTs",
            "outputs": [
                {
                    "components": [
                        {
                            "internalType": "uint256",
                            "name": "tokenId",
                            "type": "uint256"
                        },
                        {
                            "internalType": "address payable",
                            "name": "seller",
                            "type": "address"
                        },
                        {
                            "internalType": "address payable",
                            "name": "owner",
                            "type": "address"
                        },
                        {
                            "internalType": "uint256",
                            "name": "price",
                            "type": "uint256"
                        },
                        {
                            "internalType": "bool",
                            "name": "sold",
                            "type": "bool"
                        }
                    ],
                    "internalType": "struct NFTMarketplace.MarketItem[]",
                    "name": "",
                    "type": "tuple[]"
                }
            ],
            "stateMutability": "view",
            "type": "function"
        },
        {
            "inputs": [
                {
                    "internalType": "address",
                    "name": "owner",
                    "type": "address"
                },
                {
                    "internalType": "address",
                    "name": "operator",
                    "type": "address"
                }
            ],
            "name": "isApprovedForAll",
            "outputs": [
                {
                    "internalType": "bool",
                    "name": "",
                    "type": "bool"
                }
            ],
            "stateMutability": "view",
            "type": "function"
        },
        {
            "inputs": [],
            "name": "name",
            "outputs": [
                {
                    "internalType": "string",
                    "name": "",
                    "type": "string"
                }
            ],
            "stateMutability": "view",
            "type": "function"
        },
        {
            "inputs": [
                {
                    "internalType": "uint256",
                    "name": "tokenId",
                    "type": "uint256"
                }
            ],
            "name": "ownerOf",
            "outputs": [
                {
                    "internalType": "address",
                    "name": "",
                    "type": "address"
                }
            ],
            "stateMutability": "view",
            "type": "function"
        },
        {
            "inputs": [
                {
                    "internalType": "uint256",
                    "name": "_tokenId",
                    "type": "uint256"
                },
                {
                    "internalType": "uint256",
                    "name": "_price",
                    "type": "uint256"
                }
            ],
            "name": "reSellToken",
            "outputs": [],
            "stateMutability": "payable",
            "type": "function"
        },
        {
            "inputs": [
                {
                    "internalType": "address",
                    "name": "from",
                    "type": "address"
                },
                {
                    "internalType": "address",
                    "name": "to",
                    "type": "address"
                },
                {
                    "internalType": "uint256",
                    "name": "tokenId",
                    "type": "uint256"
                }
            ],
            "name": "safeTransferFrom",
            "outputs": [],
            "stateMutability": "nonpayable",
            "type": "function"
        },
        {
            "inputs": [
                {
                    "internalType": "address",
                    "name": "from",
                    "type": "address"
                },
                {
                    "internalType": "address",
                    "name": "to",
                    "type": "address"
                },
                {
                    "internalType": "uint256",
                    "name": "tokenId",
                    "type": "uint256"
                },
                {
                    "internalType": "bytes",
                    "name": "data",
                    "type": "bytes"
                }
            ],
            "name": "safeTransferFrom",
            "outputs": [],
            "stateMutability": "nonpayable",
            "type": "function"
        },
        {
            "inputs": [
                {
                    "internalType": "address",
                    "name": "operator",
                    "type": "address"
                },
                {
                    "internalType": "bool",
                    "name": "approved",
                    "type": "bool"
                }
            ],
            "name": "setApprovalForAll",
            "outputs": [],
            "stateMutability": "nonpayable",
            "type": "function"
        },
        {
            "inputs": [
                {
                    "internalType": "bytes4",
                    "name": "interfaceId",
                    "type": "bytes4"
                }
            ],
            "name": "supportsInterface",
            "outputs": [
                {
                    "internalType": "bool",
                    "name": "",
                    "type": "bool"
                }
            ],
            "stateMutability": "view",
            "type": "function"
        },
        {
            "inputs": [],
            "name": "symbol",
            "outputs": [
                {
                    "internalType": "string",
                    "name": "",
                    "type": "string"
                }
            ],
            "stateMutability": "view",
            "type": "function"
        },
        {
            "inputs": [
                {
                    "internalType": "uint256",
                    "name": "tokenId",
                    "type": "uint256"
                }
            ],
            "name": "tokenURI",
            "outputs": [
                {
                    "internalType": "string",
                    "name": "",
                    "type": "string"
                }
            ],
            "stateMutability": "view",
            "type": "function"
        },
        {
            "inputs": [
                {
                    "internalType": "address",
                    "name": "from",
                    "type": "address"
                },
                {
                    "internalType": "address",
                    "name": "to",
                    "type": "address"
                },
                {
                    "internalType": "uint256",
                    "name": "tokenId",
                    "type": "uint256"
                }
            ],
            "name": "transferFrom",
            "outputs": [],
            "stateMutability": "nonpayable",
            "type": "function"
        },
        {
            "inputs": [
                {
                    "internalType": "uint256",
                    "name": "_listingPrice",
                    "type": "uint256"
                }
            ],
            "name": "updateListingPrice",
            "outputs": [],
            "stateMutability": "payable",
            "type": "function"
        }
    ],
    "bytecode": "0x60806040526605543df729c0006009553480156200001c57600080fd5b506040518060400160405280601381526020017f4e4654204d657461766172736520546f6b656e000000000000000000000000008152506040518060400160405280600581526020017f4d594e465400000000000000000000000000000000000000000000000000000081525081600090816200009a919062000355565b508060019081620000ac919062000355565b5050503373ffffffffffffffffffffffffffffffffffffffff16600a60009054906101000a905050506200043c565b600081519050919050565b7f4e487b7100000000000000000000000000000000000000000000000000000000600052604160045260246000fd5b7f4e487b7100000000000000000000000000000000000000000000000000000000600052602260045260246000fd5b600060028204905060018216806200015d57607f821691505b60208210810362000173576200017262000115565b5b50919050565b60008190508160005260206000209050919050565b60006020601f8301049050919050565b600082821b905092915050565b600060088302620001dd7fffffffffffffffffffffffffffffffffffffffffffffffffffffffffffffffff826200019e565b620001e986836200019e565b95508019841693508086168417925050509392505050565b6000819050919050565b6000819050919050565b600062000236620002306200022a8462000201565b6200020b565b62000201565b9050919050565b6000819050919050565b620002528362000215565b6200026a62000261826200023d565b848454620001ab565b825550505050565b600090565b6200028162000272565b6200028e81848462000247565b505050565b5b81811015620002b657620002aa60008262000277565b60018101905062000294565b5050565b601f8211156200030557620002cf8162000179565b620002da846200018e565b81016020851015620002ea578190505b62000302620002f9856200018e565b83018262000293565b50505b505050565b600082821c905092915050565b60006200032a600019846008026200030a565b1980831691505092915050565b600062000345838362000317565b9150826002028217905092915050565b6200036082620000db565b67ffffffffffffffff8111156200037c576200037b620000e6565b5b62000388825462000144565b62000395828285620002ba565b600060209050601f831160018114620003cd5760008415620003b8578287015190505b620003c4858262000337565b86555062000434565b601f198416620003dd8662000179565b60005b828110156200040757848901518255600182019150602085019450602081019050620003e0565b8683101562000427578489015162000423601f89168262000317565b8355505b6001600288020188555050505b505050505050565b6143e5806200044c6000396000f3fe60806040526004361061012a5760003560e01c806370a08231116100ab578063ae677aa31161006f578063ae677aa3146103ea578063b88d4fde14610406578063be9af5361461042f578063c87b56dd1461044b578063caf5069014610488578063e985e9c5146104b35761012a565b806370a082311461030d57806372b3b6201461034a57806385535b251461037a57806395d89b4114610396578063a22cb465146103c15761012a565b806323b872dd116100f257806323b872dd1461022857806329aa3a421461025157806342842e0e1461027c578063629cb2e4146102a55780636352211e146102d05761012a565b806301ffc9a71461012f57806306fdde031461016c578063081812fc14610197578063095ea7b3146101d457806312e85585146101fd575b600080fd5b34801561013b57600080fd5b5061015660048036038101906101519190612c17565b6104f0565b6040516101639190612c5f565b60405180910390f35b34801561017857600080fd5b506101816105d2565b60405161018e9190612d0a565b60405180910390f35b3480156101a357600080fd5b506101be60048036038101906101b99190612d62565b610664565b6040516101cb9190612dd0565b60405180910390f35b3480156101e057600080fd5b506101fb60048036038101906101f69190612e17565b6106aa565b005b34801561020957600080fd5b506102126107c1565b60405161021f9190612e66565b60405180910390f35b34801561023457600080fd5b5061024f600480360381019061024a9190612e81565b6107cb565b005b34801561025d57600080fd5b5061026661082b565b604051610273919061302a565b60405180910390f35b34801561028857600080fd5b506102a3600480360381019061029e9190612e81565b610a93565b005b3480156102b157600080fd5b506102ba610ab3565b6040516102c7919061302a565b60405180910390f35b3480156102dc57600080fd5b506102f760048036038101906102f29190612d62565b610d9f565b6040516103049190612dd0565b60405180910390f35b34801561031957600080fd5b50610334600480360381019061032f919061304c565b610e25565b6040516103419190612e66565b60405180910390f35b610364600480360381019061035f91906131ae565b610edc565b6040516103719190612e66565b60405180910390f35b610394600480360381019061038f919061320a565b610f1e565b005b3480156103a257600080fd5b506103ab611113565b6040516103b89190612d0a565b60405180910390f35b3480156103cd57600080fd5b506103e860048036038101906103e39190613276565b6111a5565b005b61040460048036038101906103ff9190612d62565b6111bb565b005b34801561041257600080fd5b5061042d60048036038101906104289190613357565b611255565b005b61044960048036038101906104449190612d62565b6112b7565b005b34801561045757600080fd5b50610472600480360381019061046d9190612d62565b6114ef565b60405161047f9190612d0a565b60405180910390f35b34801561049457600080fd5b5061049d611601565b6040516104aa919061302a565b60405180910390f35b3480156104bf57600080fd5b506104da60048036038101906104d591906133da565b6118ed565b6040516104e79190612c5f565b60405180910390f35b60007f80ac58cd000000000000000000000000000000000000000000000000000000007bffffffffffffffffffffffffffffffffffffffffffffffffffffffff1916827bffffffffffffffffffffffffffffffffffffffffffffffffffffffff191614806105bb57507f5b5e139f000000000000000000000000000000000000000000000000000000007bffffffffffffffffffffffffffffffffffffffffffffffffffffffff1916827bffffffffffffffffffffffffffffffffffffffffffffffffffffffff1916145b806105cb57506105ca82611981565b5b9050919050565b6060600080546105e190613449565b80601f016020809104026020016040519081016040528092919081815260200182805461060d90613449565b801561065a5780601f1061062f5761010080835404028352916020019161065a565b820191906000526020600020905b81548152906001019060200180831161063d57829003601f168201915b5050505050905090565b600061066f826119eb565b6004600083815260200190815260200160002060009054906101000a900473ffffffffffffffffffffffffffffffffffffffff169050919050565b60006106b582610d9f565b90508073ffffffffffffffffffffffffffffffffffffffff168373ffffffffffffffffffffffffffffffffffffffff1603610725576040517f08c379a000000000000000000000000000000000000000000000000000000000815260040161071c906134ec565b60405180910390fd5b8073ffffffffffffffffffffffffffffffffffffffff16610744611a36565b73ffffffffffffffffffffffffffffffffffffffff16148061077357506107728161076d611a36565b6118ed565b5b6107b2576040517f08c379a00000000000000000000000000000000000000000000000000000000081526004016107a99061357e565b60405180910390fd5b6107bc8383611a3e565b505050565b6000600954905090565b6107dc6107d6611a36565b82611af7565b61081b576040517f08c379a000000000000000000000000000000000000000000000000000000000815260040161081290613610565b60405180910390fd5b610826838383611b8c565b505050565b606060006108396007611e85565b905060006108476008611e85565b6108516007611e85565b61085b919061365f565b90506000808267ffffffffffffffff81111561087a57610879613083565b5b6040519080825280602002602001820160405280156108b357816020015b6108a0612b4e565b8152602001906001900390816108985790505b50905060005b84811015610a88573073ffffffffffffffffffffffffffffffffffffffff16600b60006001846108e99190613693565b815260200190815260200160002060020160009054906101000a900473ffffffffffffffffffffffffffffffffffffffff1673ffffffffffffffffffffffffffffffffffffffff1603610a755760006001826109459190613693565b90506000600b60008381526020019081526020016000209050806040518060a0016040529081600082015481526020016001820160009054906101000a900473ffffffffffffffffffffffffffffffffffffffff1673ffffffffffffffffffffffffffffffffffffffff1673ffffffffffffffffffffffffffffffffffffffff1681526020016002820160009054906101000a900473ffffffffffffffffffffffffffffffffffffffff1673ffffffffffffffffffffffffffffffffffffffff1673ffffffffffffffffffffffffffffffffffffffff168152602001600382015481526020016004820160009054906101000a900460ff161515151581525050848681518110610a5857610a576136c7565b5b6020026020010181905250600185610a709190613693565b945050505b8080610a80906136f6565b9150506108b9565b508094505050505090565b610aae83838360405180602001604052806000815250611255565b505050565b60606000610ac16007611e85565b905060008060005b83811015610b69573373ffffffffffffffffffffffffffffffffffffffff16600b6000600184610af99190613693565b815260200190815260200160002060020160009054906101000a900473ffffffffffffffffffffffffffffffffffffffff1673ffffffffffffffffffffffffffffffffffffffff1603610b5657600183610b539190613693565b92505b8080610b61906136f6565b915050610ac9565b5060008267ffffffffffffffff811115610b8657610b85613083565b5b604051908082528060200260200182016040528015610bbf57816020015b610bac612b4e565b815260200190600190039081610ba45790505b50905060005b84811015610d94573373ffffffffffffffffffffffffffffffffffffffff16600b6000600184610bf59190613693565b815260200190815260200160002060020160009054906101000a900473ffffffffffffffffffffffffffffffffffffffff1673ffffffffffffffffffffffffffffffffffffffff1603610d81576000600182610c519190613693565b90506000600b60008381526020019081526020016000209050806040518060a0016040529081600082015481526020016001820160009054906101000a900473ffffffffffffffffffffffffffffffffffffffff1673ffffffffffffffffffffffffffffffffffffffff1673ffffffffffffffffffffffffffffffffffffffff1681526020016002820160009054906101000a900473ffffffffffffffffffffffffffffffffffffffff1673ffffffffffffffffffffffffffffffffffffffff1673ffffffffffffffffffffffffffffffffffffffff168152602001600382015481526020016004820160009054906101000a900460ff161515151581525050848681518110610d6457610d636136c7565b5b6020026020010181905250600185610d7c9190613693565b945050505b8080610d8c906136f6565b915050610bc5565b508094505050505090565b600080610dab83611e93565b9050600073ffffffffffffffffffffffffffffffffffffffff168173ffffffffffffffffffffffffffffffffffffffff1603610e1c576040517f08c379a0000000000000000000000000000000000000000000000000000000008152600401610e139061378a565b60405180910390fd5b80915050919050565b60008073ffffffffffffffffffffffffffffffffffffffff168273ffffffffffffffffffffffffffffffffffffffff1603610e95576040517f08c379a0000000000000000000000000000000000000000000000000000000008152600401610e8c9061381c565b60405180910390fd5b600360008373ffffffffffffffffffffffffffffffffffffffff1673ffffffffffffffffffffffffffffffffffffffff168152602001908152602001600020549050919050565b6000610ee86007611ed0565b6000610ef46007611e85565b9050610f003382611ee6565b610f0a8185612103565b610f148184612170565b8091505092915050565b3373ffffffffffffffffffffffffffffffffffffffff16600b600084815260200190815260200160002060020160009054906101000a900473ffffffffffffffffffffffffffffffffffffffff1673ffffffffffffffffffffffffffffffffffffffff1614610fc2576040517f08c379a0000000000000000000000000000000000000000000000000000000008152600401610fb9906138ae565b60405180910390fd5b6009543414611006576040517f08c379a0000000000000000000000000000000000000000000000000000000008152600401610ffd90613940565b60405180910390fd5b6000600b600084815260200190815260200160002060040160006101000a81548160ff02191690831515021790555080600b60008481526020019081526020016000206003018190555033600b600084815260200190815260200160002060010160006101000a81548173ffffffffffffffffffffffffffffffffffffffff021916908373ffffffffffffffffffffffffffffffffffffffff16021790555030600b600084815260200190815260200160002060020160006101000a81548173ffffffffffffffffffffffffffffffffffffffff021916908373ffffffffffffffffffffffffffffffffffffffff1602179055506111046008612373565b61110f333084611b8c565b5050565b60606001805461112290613449565b80601f016020809104026020016040519081016040528092919081815260200182805461114e90613449565b801561119b5780601f106111705761010080835404028352916020019161119b565b820191906000526020600020905b81548152906001019060200180831161117e57829003601f168201915b5050505050905090565b6111b76111b0611a36565b83836123cf565b5050565b600a60009054906101000a900473ffffffffffffffffffffffffffffffffffffffff1673ffffffffffffffffffffffffffffffffffffffff163373ffffffffffffffffffffffffffffffffffffffff161461124b576040517f08c379a0000000000000000000000000000000000000000000000000000000008152600401611242906139d2565b60405180910390fd5b8060098190555050565b611266611260611a36565b83611af7565b6112a5576040517f08c379a000000000000000000000000000000000000000000000000000000000815260040161129c90613610565b60405180910390fd5b6112b18484848461253b565b50505050565b6000600b6000838152602001908152602001600020600301549050803414611314576040517f08c379a000000000000000000000000000000000000000000000000000000000815260040161130b90613a64565b60405180910390fd5b33600b600084815260200190815260200160002060020160006101000a81548173ffffffffffffffffffffffffffffffffffffffff021916908373ffffffffffffffffffffffffffffffffffffffff1602179055506001600b600084815260200190815260200160002060040160006101000a81548160ff0219169083151502179055506000600b600084815260200190815260200160002060020160006101000a81548173ffffffffffffffffffffffffffffffffffffffff021916908373ffffffffffffffffffffffffffffffffffffffff1602179055506113f86008611ed0565b611403303384611b8c565b600a60009054906101000a900473ffffffffffffffffffffffffffffffffffffffff1673ffffffffffffffffffffffffffffffffffffffff166108fc6009549081150290604051600060405180830381858888f1935050505015801561146d573d6000803e3d6000fd5b50600b600083815260200190815260200160002060010160009054906101000a900473ffffffffffffffffffffffffffffffffffffffff1673ffffffffffffffffffffffffffffffffffffffff166108fc349081150290604051600060405180830381858888f193505050501580156114ea573d6000803e3d6000fd5b505050565b60606114fa826119eb565b600060066000848152602001908152602001600020805461151a90613449565b80601f016020809104026020016040519081016040528092919081815260200182805461154690613449565b80156115935780601f1061156857610100808354040283529160200191611593565b820191906000526020600020905b81548152906001019060200180831161157657829003601f168201915b5050505050905060006115a4612597565b905060008151036115b95781925050506115fc565b6000825111156115ee5780826040516020016115d6929190613ac0565b604051602081830303815290604052925050506115fc565b6115f7846125ae565b925050505b919050565b6060600061160f6007611e85565b905060008060005b838110156116b7573373ffffffffffffffffffffffffffffffffffffffff16600b60006001846116479190613693565b815260200190815260200160002060010160009054906101000a900473ffffffffffffffffffffffffffffffffffffffff1673ffffffffffffffffffffffffffffffffffffffff16036116a4576001836116a19190613693565b92505b80806116af906136f6565b915050611617565b5060008267ffffffffffffffff8111156116d4576116d3613083565b5b60405190808252806020026020018201604052801561170d57816020015b6116fa612b4e565b8152602001906001900390816116f25790505b50905060005b848110156118e2573373ffffffffffffffffffffffffffffffffffffffff16600b60006001846117439190613693565b815260200190815260200160002060010160009054906101000a900473ffffffffffffffffffffffffffffffffffffffff1673ffffffffffffffffffffffffffffffffffffffff16036118cf57600060018261179f9190613693565b90506000600b60008381526020019081526020016000209050806040518060a0016040529081600082015481526020016001820160009054906101000a900473ffffffffffffffffffffffffffffffffffffffff1673ffffffffffffffffffffffffffffffffffffffff1673ffffffffffffffffffffffffffffffffffffffff1681526020016002820160009054906101000a900473ffffffffffffffffffffffffffffffffffffffff1673ffffffffffffffffffffffffffffffffffffffff1673ffffffffffffffffffffffffffffffffffffffff168152602001600382015481526020016004820160009054906101000a900460ff1615151515815250508486815181106118b2576118b16136c7565b5b60200260200101819052506001856118ca9190613693565b945050505b80806118da906136f6565b915050611713565b508094505050505090565b6000600560008473ffffffffffffffffffffffffffffffffffffffff1673ffffffffffffffffffffffffffffffffffffffff16815260200190815260200160002060008373ffffffffffffffffffffffffffffffffffffffff1673ffffffffffffffffffffffffffffffffffffffff16815260200190815260200160002060009054906101000a900460ff16905092915050565b60007f01ffc9a7000000000000000000000000000000000000000000000000000000007bffffffffffffffffffffffffffffffffffffffffffffffffffffffff1916827bffffffffffffffffffffffffffffffffffffffffffffffffffffffff1916149050919050565b6119f481612616565b611a33576040517f08c379a0000000000000000000000000000000000000000000000000000000008152600401611a2a9061378a565b60405180910390fd5b50565b600033905090565b816004600083815260200190815260200160002060006101000a81548173ffffffffffffffffffffffffffffffffffffffff021916908373ffffffffffffffffffffffffffffffffffffffff160217905550808273ffffffffffffffffffffffffffffffffffffffff16611ab183610d9f565b73ffffffffffffffffffffffffffffffffffffffff167f8c5be1e5ebec7d5bd14f71427d1e84f3dd0314c0f7b2291e5b200ac8c7c3b92560405160405180910390a45050565b600080611b0383610d9f565b90508073ffffffffffffffffffffffffffffffffffffffff168473ffffffffffffffffffffffffffffffffffffffff161480611b455750611b4481856118ed565b5b80611b8357508373ffffffffffffffffffffffffffffffffffffffff16611b6b84610664565b73ffffffffffffffffffffffffffffffffffffffff16145b91505092915050565b8273ffffffffffffffffffffffffffffffffffffffff16611bac82610d9f565b73ffffffffffffffffffffffffffffffffffffffff1614611c02576040517f08c379a0000000000000000000000000000000000000000000000000000000008152600401611bf990613b56565b60405180910390fd5b600073ffffffffffffffffffffffffffffffffffffffff168273ffffffffffffffffffffffffffffffffffffffff1603611c71576040517f08c379a0000000000000000000000000000000000000000000000000000000008152600401611c6890613be8565b60405180910390fd5b611c7e8383836001612657565b8273ffffffffffffffffffffffffffffffffffffffff16611c9e82610d9f565b73ffffffffffffffffffffffffffffffffffffffff1614611cf4576040517f08c379a0000000000000000000000000000000000000000000000000000000008152600401611ceb90613b56565b60405180910390fd5b6004600082815260200190815260200160002060006101000a81549073ffffffffffffffffffffffffffffffffffffffff02191690556001600360008573ffffffffffffffffffffffffffffffffffffffff1673ffffffffffffffffffffffffffffffffffffffff168152602001908152602001600020600082825403925050819055506001600360008473ffffffffffffffffffffffffffffffffffffffff1673ffffffffffffffffffffffffffffffffffffffff16815260200190815260200160002060008282540192505081905550816002600083815260200190815260200160002060006101000a81548173ffffffffffffffffffffffffffffffffffffffff021916908373ffffffffffffffffffffffffffffffffffffffff160217905550808273ffffffffffffffffffffffffffffffffffffffff168473ffffffffffffffffffffffffffffffffffffffff167fddf252ad1be2c89b69c2b068fc378daa952ba7f163c4a11628f55a4df523b3ef60405160405180910390a4611e80838383600161277d565b505050565b600081600001549050919050565b60006002600083815260200190815260200160002060009054906101000a900473ffffffffffffffffffffffffffffffffffffffff169050919050565b6001816000016000828254019250508190555050565b600073ffffffffffffffffffffffffffffffffffffffff168273ffffffffffffffffffffffffffffffffffffffff1603611f55576040517f08c379a0000000000000000000000000000000000000000000000000000000008152600401611f4c90613c54565b60405180910390fd5b611f5e81612616565b15611f9e576040517f08c379a0000000000000000000000000000000000000000000000000000000008152600401611f9590613cc0565b60405180910390fd5b611fac600083836001612657565b611fb581612616565b15611ff5576040517f08c379a0000000000000000000000000000000000000000000000000000000008152600401611fec90613cc0565b60405180910390fd5b6001600360008473ffffffffffffffffffffffffffffffffffffffff1673ffffffffffffffffffffffffffffffffffffffff16815260200190815260200160002060008282540192505081905550816002600083815260200190815260200160002060006101000a81548173ffffffffffffffffffffffffffffffffffffffff021916908373ffffffffffffffffffffffffffffffffffffffff160217905550808273ffffffffffffffffffffffffffffffffffffffff16600073ffffffffffffffffffffffffffffffffffffffff167fddf252ad1be2c89b69c2b068fc378daa952ba7f163c4a11628f55a4df523b3ef60405160405180910390a46120ff60008383600161277d565b5050565b61210c82612616565b61214b576040517f08c379a000000000000000000000000000000000000000000000000000000000815260040161214290613d52565b60405180910390fd5b8060066000848152602001908152602001600020908161216b9190613f1e565b505050565b600081116121b3576040517f08c379a00000000000000000000000000000000000000000000000000000000081526004016121aa9061403c565b60405180910390fd5b60095434146121f7576040517f08c379a00000000000000000000000000000000000000000000000000000000081526004016121ee906140ce565b60405180910390fd5b6040518060a001604052808381526020013373ffffffffffffffffffffffffffffffffffffffff1681526020013073ffffffffffffffffffffffffffffffffffffffff16815260200182815260200160001515815250600b60008481526020019081526020016000206000820151816000015560208201518160010160006101000a81548173ffffffffffffffffffffffffffffffffffffffff021916908373ffffffffffffffffffffffffffffffffffffffff16021790555060408201518160020160006101000a81548173ffffffffffffffffffffffffffffffffffffffff021916908373ffffffffffffffffffffffffffffffffffffffff1602179055506060820151816003015560808201518160040160006101000a81548160ff021916908315150217905550905050612330333084611b8c565b817f3e6929b95aadb146b3880d299110d50a3e90a467efc5c0c9827e521b59b02d15333084600060405161236794939291906140ee565b60405180910390a25050565b600081600001549050600081116123bf576040517f08c379a00000000000000000000000000000000000000000000000000000000081526004016123b69061417f565b60405180910390fd5b6001810382600001819055505050565b8173ffffffffffffffffffffffffffffffffffffffff168373ffffffffffffffffffffffffffffffffffffffff160361243d576040517f08c379a0000000000000000000000000000000000000000000000000000000008152600401612434906141eb565b60405180910390fd5b80600560008573ffffffffffffffffffffffffffffffffffffffff1673ffffffffffffffffffffffffffffffffffffffff16815260200190815260200160002060008473ffffffffffffffffffffffffffffffffffffffff1673ffffffffffffffffffffffffffffffffffffffff16815260200190815260200160002060006101000a81548160ff0219169083151502179055508173ffffffffffffffffffffffffffffffffffffffff168373ffffffffffffffffffffffffffffffffffffffff167f17307eab39ab6107e8899845ad3d59bd9653f200f220920489ca2b5937696c318360405161252e9190612c5f565b60405180910390a3505050565b612546848484611b8c565b61255284848484612783565b612591576040517f08c379a00000000000000000000000000000000000000000000000000000000081526004016125889061427d565b60405180910390fd5b50505050565b606060405180602001604052806000815250905090565b60606125b9826119eb565b60006125c3612597565b905060008151116125e3576040518060200160405280600081525061260e565b806125ed8461290a565b6040516020016125fe929190613ac0565b6040516020818303038152906040525b915050919050565b60008073ffffffffffffffffffffffffffffffffffffffff1661263883611e93565b73ffffffffffffffffffffffffffffffffffffffff1614159050919050565b600181111561277757600073ffffffffffffffffffffffffffffffffffffffff168473ffffffffffffffffffffffffffffffffffffffff16146126eb5780600360008673ffffffffffffffffffffffffffffffffffffffff1673ffffffffffffffffffffffffffffffffffffffff16815260200190815260200160002060008282546126e3919061365f565b925050819055505b600073ffffffffffffffffffffffffffffffffffffffff168373ffffffffffffffffffffffffffffffffffffffff16146127765780600360008573ffffffffffffffffffffffffffffffffffffffff1673ffffffffffffffffffffffffffffffffffffffff168152602001908152602001600020600082825461276e9190613693565b925050819055505b5b50505050565b50505050565b60006127a48473ffffffffffffffffffffffffffffffffffffffff166129d8565b156128fd578373ffffffffffffffffffffffffffffffffffffffff1663150b7a026127cd611a36565b8786866040518563ffffffff1660e01b81526004016127ef94939291906142f2565b6020604051808303816000875af192505050801561282b57506040513d601f19601f820116820180604052508101906128289190614353565b60015b6128ad573d806000811461285b576040519150601f19603f3d011682016040523d82523d6000602084013e612860565b606091505b5060008151036128a5576040517f08c379a000000000000000000000000000000000000000000000000000000000815260040161289c9061427d565b60405180910390fd5b805181602001fd5b63150b7a0260e01b7bffffffffffffffffffffffffffffffffffffffffffffffffffffffff1916817bffffffffffffffffffffffffffffffffffffffffffffffffffffffff191614915050612902565b600190505b949350505050565b606060006001612919846129fb565b01905060008167ffffffffffffffff81111561293857612937613083565b5b6040519080825280601f01601f19166020018201604052801561296a5781602001600182028036833780820191505090505b509050600082602001820190505b6001156129cd578080600190039150507f3031323334353637383961626364656600000000000000000000000000000000600a86061a8153600a85816129c1576129c0614380565b5b04945060008503612978575b819350505050919050565b6000808273ffffffffffffffffffffffffffffffffffffffff163b119050919050565b600080600090507a184f03e93ff9f4daa797ed6e38ed64bf6a1f0100000000000000008310612a59577a184f03e93ff9f4daa797ed6e38ed64bf6a1f0100000000000000008381612a4f57612a4e614380565b5b0492506040810190505b6d04ee2d6d415b85acef81000000008310612a96576d04ee2d6d415b85acef81000000008381612a8c57612a8b614380565b5b0492506020810190505b662386f26fc100008310612ac557662386f26fc100008381612abb57612aba614380565b5b0492506010810190505b6305f5e1008310612aee576305f5e1008381612ae457612ae3614380565b5b0492506008810190505b6127108310612b13576127108381612b0957612b08614380565b5b0492506004810190505b60648310612b365760648381612b2c57612b2b614380565b5b0492506002810190505b600a8310612b45576001810190505b80915050919050565b6040518060a0016040528060008152602001600073ffffffffffffffffffffffffffffffffffffffff168152602001600073ffffffffffffffffffffffffffffffffffffffff168152602001600081526020016000151581525090565b6000604051905090565b600080fd5b600080fd5b60007fffffffff0000000000000000000000000000000000000000000000000000000082169050919050565b612bf481612bbf565b8114612bff57600080fd5b50565b600081359050612c1181612beb565b92915050565b600060208284031215612c2d57612c2c612bb5565b5b6000612c3b84828501612c02565b91505092915050565b60008115159050919050565b612c5981612c44565b82525050565b6000602082019050612c746000830184612c50565b92915050565b600081519050919050565b600082825260208201905092915050565b60005b83811015612cb4578082015181840152602081019050612c99565b60008484015250505050565b6000601f19601f8301169050919050565b6000612cdc82612c7a565b612ce68185612c85565b9350612cf6818560208601612c96565b612cff81612cc0565b840191505092915050565b60006020820190508181036000830152612d248184612cd1565b905092915050565b6000819050919050565b612d3f81612d2c565b8114612d4a57600080fd5b50565b600081359050612d5c81612d36565b92915050565b600060208284031215612d7857612d77612bb5565b5b6000612d8684828501612d4d565b91505092915050565b600073ffffffffffffffffffffffffffffffffffffffff82169050919050565b6000612dba82612d8f565b9050919050565b612dca81612daf565b82525050565b6000602082019050612de56000830184612dc1565b92915050565b612df481612daf565b8114612dff57600080fd5b50565b600081359050612e1181612deb565b92915050565b60008060408385031215612e2e57612e2d612bb5565b5b6000612e3c85828601612e02565b9250506020612e4d85828601612d4d565b9150509250929050565b612e6081612d2c565b82525050565b6000602082019050612e7b6000830184612e57565b92915050565b600080600060608486031215612e9a57612e99612bb5565b5b6000612ea886828701612e02565b9350506020612eb986828701612e02565b9250506040612eca86828701612d4d565b9150509250925092565b600081519050919050565b600082825260208201905092915050565b6000819050602082019050919050565b612f0981612d2c565b82525050565b6000612f1a82612d8f565b9050919050565b612f2a81612f0f565b82525050565b612f3981612c44565b82525050565b60a082016000820151612f556000850182612f00565b506020820151612f686020850182612f21565b506040820151612f7b6040850182612f21565b506060820151612f8e6060850182612f00565b506080820151612fa16080850182612f30565b50505050565b6000612fb38383612f3f565b60a08301905092915050565b6000602082019050919050565b6000612fd782612ed4565b612fe18185612edf565b9350612fec83612ef0565b8060005b8381101561301d5781516130048882612fa7565b975061300f83612fbf565b925050600181019050612ff0565b5085935050505092915050565b600060208201905081810360008301526130448184612fcc565b905092915050565b60006020828403121561306257613061612bb5565b5b600061307084828501612e02565b91505092915050565b600080fd5b600080fd5b7f4e487b7100000000000000000000000000000000000000000000000000000000600052604160045260246000fd5b6130bb82612cc0565b810181811067ffffffffffffffff821117156130da576130d9613083565b5b80604052505050565b60006130ed612bab565b90506130f982826130b2565b919050565b600067ffffffffffffffff82111561311957613118613083565b5b61312282612cc0565b9050602081019050919050565b82818337600083830152505050565b600061315161314c846130fe565b6130e3565b90508281526020810184848401111561316d5761316c61307e565b5b61317884828561312f565b509392505050565b600082601f83011261319557613194613079565b5b81356131a584826020860161313e565b91505092915050565b600080604083850312156131c5576131c4612bb5565b5b600083013567ffffffffffffffff8111156131e3576131e2612bba565b5b6131ef85828601613180565b925050602061320085828601612d4d565b9150509250929050565b6000806040838503121561322157613220612bb5565b5b600061322f85828601612d4d565b925050602061324085828601612d4d565b9150509250929050565b61325381612c44565b811461325e57600080fd5b50565b6000813590506132708161324a565b92915050565b6000806040838503121561328d5761328c612bb5565b5b600061329b85828601612e02565b92505060206132ac85828601613261565b9150509250929050565b600067ffffffffffffffff8211156132d1576132d0613083565b5b6132da82612cc0565b9050602081019050919050565b60006132fa6132f5846132b6565b6130e3565b9050828152602081018484840111156133165761331561307e565b5b61332184828561312f565b509392505050565b600082601f83011261333e5761333d613079565b5b813561334e8482602086016132e7565b91505092915050565b6000806000806080858703121561337157613370612bb5565b5b600061337f87828801612e02565b945050602061339087828801612e02565b93505060406133a187828801612d4d565b925050606085013567ffffffffffffffff8111156133c2576133c1612bba565b5b6133ce87828801613329565b91505092959194509250565b600080604083850312156133f1576133f0612bb5565b5b60006133ff85828601612e02565b925050602061341085828601612e02565b9150509250929050565b7f4e487b7100000000000000000000000000000000000000000000000000000000600052602260045260246000fd5b6000600282049050600182168061346157607f821691505b6020821081036134745761347361341a565b5b50919050565b7f4552433732313a20617070726f76616c20746f2063757272656e74206f776e6560008201527f7200000000000000000000000000000000000000000000000000000000000000602082015250565b60006134d6602183612c85565b91506134e18261347a565b604082019050919050565b60006020820190508181036000830152613505816134c9565b9050919050565b7f4552433732313a20617070726f76652063616c6c6572206973206e6f7420746f60008201527f6b656e206f776e6572206f7220617070726f76656420666f7220616c6c000000602082015250565b6000613568603d83612c85565b91506135738261350c565b604082019050919050565b600060208201905081810360008301526135978161355b565b9050919050565b7f4552433732313a2063616c6c6572206973206e6f7420746f6b656e206f776e6560008201527f72206f7220617070726f76656400000000000000000000000000000000000000602082015250565b60006135fa602d83612c85565b91506136058261359e565b604082019050919050565b60006020820190508181036000830152613629816135ed565b9050919050565b7f4e487b7100000000000000000000000000000000000000000000000000000000600052601160045260246000fd5b600061366a82612d2c565b915061367583612d2c565b925082820390508181111561368d5761368c613630565b5b92915050565b600061369e82612d2c565b91506136a983612d2c565b92508282019050808211156136c1576136c0613630565b5b92915050565b7f4e487b7100000000000000000000000000000000000000000000000000000000600052603260045260246000fd5b600061370182612d2c565b91507fffffffffffffffffffffffffffffffffffffffffffffffffffffffffffffffff820361373357613732613630565b5b600182019050919050565b7f4552433732313a20696e76616c696420746f6b656e2049440000000000000000600082015250565b6000613774601883612c85565b915061377f8261373e565b602082019050919050565b600060208201905081810360008301526137a381613767565b9050919050565b7f4552433732313a2061646472657373207a65726f206973206e6f74206120766160008201527f6c6964206f776e65720000000000000000000000000000000000000000000000602082015250565b6000613806602983612c85565b9150613811826137aa565b604082019050919050565b60006020820190508181036000830152613835816137f9565b9050919050565b7f4f6e6c79206974656d206f776e65722063616e20706572666f726d207468697360008201527f206f7065726174696f6e00000000000000000000000000000000000000000000602082015250565b6000613898602a83612c85565b91506138a38261383c565b604082019050919050565b600060208201905081810360008301526138c78161388b565b9050919050565b7f5072696365206d75737420626520657175616c20746f206c697374696e67207060008201527f7269636500000000000000000000000000000000000000000000000000000000602082015250565b600061392a602483612c85565b9150613935826138ce565b604082019050919050565b600060208201905081810360008301526139598161391d565b9050919050565b7f6f6e6c79206f776e6572206f6620746865206d61726b6574706c61636520636160008201527f6e206368616e676520746865206c697374696e67207072696365000000000000602082015250565b60006139bc603a83612c85565b91506139c782613960565b604082019050919050565b600060208201905081810360008301526139eb816139af565b9050919050565b7f506c65617365207375626d6974207468652061736b696e67207072696365206960008201527f6e206f7264657220746f20636f6d706c65746520746865207075726368617365602082015250565b6000613a4e604083612c85565b9150613a59826139f2565b604082019050919050565b60006020820190508181036000830152613a7d81613a41565b9050919050565b600081905092915050565b6000613a9a82612c7a565b613aa48185613a84565b9350613ab4818560208601612c96565b80840191505092915050565b6000613acc8285613a8f565b9150613ad88284613a8f565b91508190509392505050565b7f4552433732313a207472616e736665722066726f6d20696e636f72726563742060008201527f6f776e6572000000000000000000000000000000000000000000000000000000602082015250565b6000613b40602583612c85565b9150613b4b82613ae4565b604082019050919050565b60006020820190508181036000830152613b6f81613b33565b9050919050565b7f4552433732313a207472616e7366657220746f20746865207a65726f2061646460008201527f7265737300000000000000000000000000000000000000000000000000000000602082015250565b6000613bd2602483612c85565b9150613bdd82613b76565b604082019050919050565b60006020820190508181036000830152613c0181613bc5565b9050919050565b7f4552433732313a206d696e7420746f20746865207a65726f2061646472657373600082015250565b6000613c3e602083612c85565b9150613c4982613c08565b602082019050919050565b60006020820190508181036000830152613c6d81613c31565b9050919050565b7f4552433732313a20746f6b656e20616c7265616479206d696e74656400000000600082015250565b6000613caa601c83612c85565b9150613cb582613c74565b602082019050919050565b60006020820190508181036000830152613cd981613c9d565b9050919050565b7f45524337323155524953746f726167653a2055524920736574206f66206e6f6e60008201527f6578697374656e7420746f6b656e000000000000000000000000000000000000602082015250565b6000613d3c602e83612c85565b9150613d4782613ce0565b604082019050919050565b60006020820190508181036000830152613d6b81613d2f565b9050919050565b60008190508160005260206000209050919050565b60006020601f8301049050919050565b600082821b905092915050565b600060088302613dd47fffffffffffffffffffffffffffffffffffffffffffffffffffffffffffffffff82613d97565b613dde8683613d97565b95508019841693508086168417925050509392505050565b6000819050919050565b6000613e1b613e16613e1184612d2c565b613df6565b612d2c565b9050919050565b6000819050919050565b613e3583613e00565b613e49613e4182613e22565b848454613da4565b825550505050565b600090565b613e5e613e51565b613e69818484613e2c565b505050565b5b81811015613e8d57613e82600082613e56565b600181019050613e6f565b5050565b601f821115613ed257613ea381613d72565b613eac84613d87565b81016020851015613ebb578190505b613ecf613ec785613d87565b830182613e6e565b50505b505050565b600082821c905092915050565b6000613ef560001984600802613ed7565b1980831691505092915050565b6000613f0e8383613ee4565b9150826002028217905092915050565b613f2782612c7a565b67ffffffffffffffff811115613f4057613f3f613083565b5b613f4a8254613449565b613f55828285613e91565b600060209050601f831160018114613f885760008415613f76578287015190505b613f808582613f02565b865550613fe8565b601f198416613f9686613d72565b60005b82811015613fbe57848901518255600182019150602085019450602081019050613f99565b86831015613fdb5784890151613fd7601f891682613ee4565b8355505b6001600288020188555050505b505050505050565b7f5072696365206d75737420626520616c206c6573742031000000000000000000600082015250565b6000614026601783612c85565b915061403182613ff0565b602082019050919050565b6000602082019050818103600083015261405581614019565b9050919050565b7f50726963206d75737420626520657175616c20746f206c697374696e6720707260008201527f6963650000000000000000000000000000000000000000000000000000000000602082015250565b60006140b8602383612c85565b91506140c38261405c565b604082019050919050565b600060208201905081810360008301526140e7816140ab565b9050919050565b60006080820190506141036000830187612dc1565b6141106020830186612dc1565b61411d6040830185612e57565b61412a6060830184612c50565b95945050505050565b7f436f756e7465723a2064656372656d656e74206f766572666c6f770000000000600082015250565b6000614169601b83612c85565b915061417482614133565b602082019050919050565b600060208201905081810360008301526141988161415c565b9050919050565b7f4552433732313a20617070726f766520746f2063616c6c657200000000000000600082015250565b60006141d5601983612c85565b91506141e08261419f565b602082019050919050565b60006020820190508181036000830152614204816141c8565b9050919050565b7f4552433732313a207472616e7366657220746f206e6f6e20455243373231526560008201527f63656976657220696d706c656d656e7465720000000000000000000000000000602082015250565b6000614267603283612c85565b91506142728261420b565b604082019050919050565b600060208201905081810360008301526142968161425a565b9050919050565b600081519050919050565b600082825260208201905092915050565b60006142c48261429d565b6142ce81856142a8565b93506142de818560208601612c96565b6142e781612cc0565b840191505092915050565b60006080820190506143076000830187612dc1565b6143146020830186612dc1565b6143216040830185612e57565b818103606083015261433381846142b9565b905095945050505050565b60008151905061434d81612beb565b92915050565b60006020828403121561436957614368612bb5565b5b60006143778482850161433e565b91505092915050565b7f4e487b7100000000000000000000000000000000000000000000000000000000600052601260045260246000fdfea264697066735822122065cdf363ef86cc8463b92bf036fb8f77dc8a479f419a4a9313c24788e52c57d264736f6c63430008110033",
    "linkReferences": {},
    "deployedLinkReferences": {}
}